{"contracts/CloudFunding.sol":{"CloudFunding":{"abi":[{"inputs":[],"stateMutability":"nonpayable","type":"constructor"},{"anonymous":false,"inputs":[{"indexed":false,"internalType":"uint256","name":"campaignId","type":"uint256"},{"indexed":false,"internalType":"address","name":"donor","type":"address"},{"indexed":false,"internalType":"uint256","name":"amount","type":"uint256"}],"name":"DonationReceived","type":"event"},{"anonymous":false,"inputs":[{"indexed":false,"internalType":"address","name":"walletAddress","type":"address"},{"indexed":false,"internalType":"string","name":"emailId","type":"string"}],"name":"UserLoggedIn","type":"event"},{"anonymous":false,"inputs":[{"indexed":false,"internalType":"address","name":"walletAddress","type":"address"},{"indexed":false,"internalType":"string","name":"emailId","type":"string"}],"name":"UserRegistered","type":"event"},{"inputs":[{"internalType":"uint256","name":"","type":"uint256"}],"name":"campaigns","outputs":[{"internalType":"address","name":"owner","type":"address"},{"internalType":"string","name":"title","type":"string"},{"internalType":"string","name":"description","type":"string"},{"internalType":"uint256","name":"target","type":"uint256"},{"internalType":"uint256","name":"deadline","type":"uint256"},{"internalType":"uint256","name":"amountCollected","type":"uint256"},{"internalType":"string","name":"image","type":"string"},{"internalType":"string","name":"campaigntype","type":"string"},{"internalType":"string","name":"documentlink","type":"string"}],"stateMutability":"view","type":"function"},{"inputs":[{"internalType":"address","name":"_owner","type":"address"},{"internalType":"string","name":"_title","type":"string"},{"internalType":"string","name":"_description","type":"string"},{"internalType":"uint256","name":"_target","type":"uint256"},{"internalType":"uint256","name":"_deadline","type":"uint256"},{"internalType":"string","name":"_image","type":"string"},{"internalType":"string","name":"_campaigntype","type":"string"},{"internalType":"string","name":"_documentlink","type":"string"}],"name":"createCampaign","outputs":[{"internalType":"uint256","name":"","type":"uint256"}],"stateMutability":"nonpayable","type":"function"},{"inputs":[{"internalType":"uint256","name":"_id","type":"uint256"}],"name":"donateToCampaign","outputs":[],"stateMutability":"payable","type":"function"},{"inputs":[{"internalType":"string","name":"","type":"string"}],"name":"emailToAddress","outputs":[{"internalType":"address","name":"","type":"address"}],"stateMutability":"view","type":"function"},{"inputs":[{"internalType":"string","name":"emailId","type":"string"}],"name":"getAddressByEmail","outputs":[{"internalType":"address","name":"","type":"address"}],"stateMutability":"view","type":"function"},{"inputs":[],"name":"getCampaigns","outputs":[{"components":[{"internalType":"address","name":"owner","type":"address"},{"internalType":"string","name":"title","type":"string"},{"internalType":"string","name":"description","type":"string"},{"internalType":"uint256","name":"target","type":"uint256"},{"internalType":"uint256","name":"deadline","type":"uint256"},{"internalType":"uint256","name":"amountCollected","type":"uint256"},{"internalType":"string","name":"image","type":"string"},{"internalType":"string","name":"campaigntype","type":"string"},{"internalType":"string","name":"documentlink","type":"string"},{"internalType":"address[]","name":"donators","type":"address[]"},{"internalType":"uint256[]","name":"donations","type":"uint256[]"}],"internalType":"struct CloudFunding.Campaign[]","name":"","type":"tuple[]"}],"stateMutability":"view","type":"function"},{"inputs":[{"internalType":"uint256","name":"_id","type":"uint256"}],"name":"getDonators","outputs":[{"internalType":"address[]","name":"","type":"address[]"},{"internalType":"uint256[]","name":"","type":"uint256[]"}],"stateMutability":"view","type":"function"},{"inputs":[{"internalType":"address","name":"walletAddress","type":"address"}],"name":"isAddressRegistered","outputs":[{"internalType":"bool","name":"","type":"bool"}],"stateMutability":"view","type":"function"},{"inputs":[{"internalType":"string","name":"emailId","type":"string"}],"name":"isEmailRegistered","outputs":[{"internalType":"bool","name":"","type":"bool"}],"stateMutability":"view","type":"function"},{"inputs":[],"name":"numberOfCampaigns","outputs":[{"internalType":"uint256","name":"","type":"uint256"}],"stateMutability":"view","type":"function"},{"inputs":[{"internalType":"string","name":"emailId","type":"string"},{"internalType":"string","name":"password","type":"string"},{"internalType":"string","name":"confirmPassword","type":"string"},{"internalType":"address","name":"walletAddress","type":"address"}],"name":"registerUser","outputs":[],"stateMutability":"nonpayable","type":"function"},{"inputs":[{"internalType":"string","name":"emailId","type":"string"},{"internalType":"string","name":"password","type":"string"}],"name":"signIn","outputs":[{"internalType":"bool","name":"","type":"bool"}],"stateMutability":"nonpayable","type":"function"},{"inputs":[],"name":"userCount","outputs":[{"internalType":"uint256","name":"","type":"uint256"}],"stateMutability":"view","type":"function"},{"inputs":[{"internalType":"address","name":"","type":"address"}],"name":"users","outputs":[{"internalType":"string","name":"emailId","type":"string"},{"internalType":"bytes32","name":"hashedPassword","type":"bytes32"},{"internalType":"address","name":"walletAddress","type":"address"}],"stateMutability":"view","type":"function"}],"evm":{"bytecode":{"linkReferences":{},"object":"6080604052600060065534801561001557600080fd5b506000600455611d588061002a6000396000f3fe6080604052600436106100dd5760003560e01c8063616208661161007f578063c5caea0111610059578063c5caea0114610273578063df3cdad7146102ab578063ea78dcbf146102cb578063fd3c99521461030c57600080fd5b80636162086614610202578063a6b0363314610222578063a87430ba1461024457600080fd5b8063141961bc116100bb578063141961bc1461014f5780632c162dbc1461018457806338b6a3a1146101b457806342a4fda8146101ed57600080fd5b806307973ccf146100e257806307ca140d1461010b5780630fa91fa914610121575b600080fd5b3480156100ee57600080fd5b506100f860045481565b6040519081526020015b60405180910390f35b34801561011757600080fd5b506100f860065481565b34801561012d57600080fd5b5061014161013c3660046114ac565b61032c565b6040516101029291906114c5565b34801561015b57600080fd5b5061016f61016a3660046114ac565b6103fd565b60405161010299989796959493929190611599565b34801561019057600080fd5b506101a461019f3660046116d4565b6106f6565b6040519015158152602001610102565b3480156101c057600080fd5b506101a46101cf366004611754565b6001600160a01b031660009081526001602052604090205460ff1690565b6102006101fb3660046114ac565b6108da565b005b34801561020e57600080fd5b506100f861021d366004611776565b610a20565b34801561022e57600080fd5b50610237610b44565b60405161010291906118e0565b34801561025057600080fd5b5061026461025f366004611754565b61109a565b60405161010293929190611a25565b34801561027f57600080fd5b5061029361028e366004611a58565b61114e565b6040516001600160a01b039091168152602001610102565b3480156102b757600080fd5b506101a46102c6366004611a58565b61117f565b3480156102d757600080fd5b506102936102e6366004611a58565b80516020818301810180516003825292820191909301209152546001600160a01b031681565b34801561031857600080fd5b50610200610327366004611a95565b6111a9565b60008181526005602090815260409182902060098101805484518185028101850190955280855260609485949293600a01929091849183018282801561039b57602002820191906000526020600020905b81546001600160a01b0316815260019091019060200180831161037d575b50505050509150808054806020026020016040519081016040528092919081815260200182805480156103ed57602002820191906000526020600020905b8154815260200190600101908083116103d9575b5050505050905091509150915091565b600560205260009081526040902080546001820180546001600160a01b03909216929161042990611b2e565b80601f016020809104026020016040519081016040528092919081815260200182805461045590611b2e565b80156104a25780601f10610477576101008083540402835291602001916104a2565b820191906000526020600020905b81548152906001019060200180831161048557829003601f168201915b5050505050908060020180546104b790611b2e565b80601f01602080910402602001604051908101604052809291908181526020018280546104e390611b2e565b80156105305780601f1061050557610100808354040283529160200191610530565b820191906000526020600020905b81548152906001019060200180831161051357829003601f168201915b50505050509080600301549080600401549080600501549080600601805461055790611b2e565b80601f016020809104026020016040519081016040528092919081815260200182805461058390611b2e565b80156105d05780601f106105a5576101008083540402835291602001916105d0565b820191906000526020600020905b8154815290600101906020018083116105b357829003601f168201915b5050505050908060070180546105e590611b2e565b80601f016020809104026020016040519081016040528092919081815260200182805461061190611b2e565b801561065e5780601f106106335761010080835404028352916020019161065e565b820191906000526020600020905b81548152906001019060200180831161064157829003601f168201915b50505050509080600801805461067390611b2e565b80601f016020809104026020016040519081016040528092919081815260200182805461069f90611b2e565b80156106ec5780601f106106c1576101008083540402835291602001916106ec565b820191906000526020600020905b8154815290600101906020018083116106cf57829003601f168201915b5050505050905089565b6000806107028461114e565b90506001600160a01b0381166107515760405162461bcd60e51b815260206004820152600f60248201526e2ab9b2b9103737ba103337bab7321760891b60448201526064015b60405180910390fd5b6001600160a01b03811660009081526002602052604080822081516060810190925280548290829061078290611b2e565b80601f01602080910402602001604051908101604052809291908181526020018280546107ae90611b2e565b80156107fb5780601f106107d0576101008083540402835291602001916107fb565b820191906000526020600020905b8154815290600101906020018083116107de57829003601f168201915b505050918352505060018201546020808301919091526002909201546001600160a01b03166040918201525191925061083691869101611b68565b604051602081830303815290604052805190602001208160200151146108945760405162461bcd60e51b815260206004820152601360248201527224b731b7b93932b1ba103830b9b9bbb7b9321760691b6044820152606401610748565b7ffd7a49bf0be38d61ec3404f450519a68eb8bdd1edb8729b6c5f8c139e9dafeaf82866040516108c5929190611b84565b60405180910390a16001925050505b92915050565b6000818152600560209081526040808320600981018054600180820183559186528486200180546001600160a01b03191633179055600a8201805491820181558552928420349301839055805491519293909290916001600160a01b03169084908381818185875af1925050503d8060008114610973576040519150601f19603f3d011682016040523d82523d6000602084013e610978565b606091505b5050905080156109e057828260050160008282546109969190611bbe565b9091555050604080518581523360208201529081018490527f0b5b4c52969ff7329ecf7ee536409fda87812b15a8622bc6e8cdeab3aee14a269060600160405180910390a1610a1a565b60405162461bcd60e51b815260206004820152600f60248201526e151c985b9cd9995c8819985a5b1959608a1b6044820152606401610748565b50505050565b600654600090815260056020526040812060048101544211610a995760405162461bcd60e51b815260206004820152602c60248201527f54686520646561646c696e652073686f756c642062652061206461746520696e60448201526b103a343290333aba3ab9329760a11b6064820152608401610748565b80546001600160a01b0319166001600160a01b038b1617815560018101610ac08a82611c20565b5060028101610acf8982611c20565b5060038101879055600481018690556000600582015560068101610af38682611c20565b5060078101610b028582611c20565b5060088101610b118482611c20565b5060068054906000610b2283611ce0565b91905055506001600654610b369190611cf9565b9a9950505050505050505050565b60606000805b600654811015610b92576000818152600560205260409020546001600160a01b03163314610b805781610b7c81611ce0565b9250505b80610b8a81611ce0565b915050610b4a565b5060008167ffffffffffffffff811115610bae57610bae611631565b604051908082528060200260200182016040528015610c4557816020015b610c3260405180610160016040528060006001600160a01b03168152602001606081526020016060815260200160008152602001600081526020016000815260200160608152602001606081526020016060815260200160608152602001606081525090565b815260200190600190039081610bcc5790505b5090506000805b600654811015611091576000818152600560205260409020546001600160a01b0316331461107f576000818152600560209081526040918290208251610160810190935280546001600160a01b031683526001810180549192840191610cb190611b2e565b80601f0160208091040260200160405190810160405280929190818152602001828054610cdd90611b2e565b8015610d2a5780601f10610cff57610100808354040283529160200191610d2a565b820191906000526020600020905b815481529060010190602001808311610d0d57829003601f168201915b50505050508152602001600282018054610d4390611b2e565b80601f0160208091040260200160405190810160405280929190818152602001828054610d6f90611b2e565b8015610dbc5780601f10610d9157610100808354040283529160200191610dbc565b820191906000526020600020905b815481529060010190602001808311610d9f57829003601f168201915b50505050508152602001600382015481526020016004820154815260200160058201548152602001600682018054610df390611b2e565b80601f0160208091040260200160405190810160405280929190818152602001828054610e1f90611b2e565b8015610e6c5780601f10610e4157610100808354040283529160200191610e6c565b820191906000526020600020905b815481529060010190602001808311610e4f57829003601f168201915b50505050508152602001600782018054610e8590611b2e565b80601f0160208091040260200160405190810160405280929190818152602001828054610eb190611b2e565b8015610efe5780601f10610ed357610100808354040283529160200191610efe565b820191906000526020600020905b815481529060010190602001808311610ee157829003601f168201915b50505050508152602001600882018054610f1790611b2e565b80601f0160208091040260200160405190810160405280929190818152602001828054610f4390611b2e565b8015610f905780601f10610f6557610100808354040283529160200191610f90565b820191906000526020600020905b815481529060010190602001808311610f7357829003601f168201915b5050505050815260200160098201805480602002602001604051908101604052809291908181526020018280548015610ff257602002820191906000526020600020905b81546001600160a01b03168152600190910190602001808311610fd4575b50505050508152602001600a820180548060200260200160405190810160405280929190818152602001828054801561104a57602002820191906000526020600020905b815481526020019060010190808311611036575b50505050508152505083838151811061106557611065611d0c565b6020026020010181905250818061107b90611ce0565b9250505b8061108981611ce0565b915050610c4c565b50909392505050565b6002602052600090815260409020805481906110b590611b2e565b80601f01602080910402602001604051908101604052809291908181526020018280546110e190611b2e565b801561112e5780601f106111035761010080835404028352916020019161112e565b820191906000526020600020905b81548152906001019060200180831161111157829003601f168201915b5050505060018301546002909301549192916001600160a01b0316905083565b60006003826040516111609190611b68565b908152604051908190036020019020546001600160a01b031692915050565b600080826040516111909190611b68565b9081526040519081900360200190205460ff1692915050565b6000846040516111b99190611b68565b9081526040519081900360200190205460ff16156112115760405162461bcd60e51b815260206004820152601560248201527422b6b0b4b61030b63932b0b23c9032bc34b9ba399760591b6044820152606401610748565b6001600160a01b03811660009081526001602052604090205460ff16156112855760405162461bcd60e51b815260206004820152602260248201527f57616c6c6574206164647265737320616c726561647920726567697374657265604482015261321760f11b6064820152608401610748565b816040516020016112969190611b68565b60405160208183030381529060405280519060200120836040516020016112bd9190611b68565b60405160208183030381529060405280519060200120146113205760405162461bcd60e51b815260206004820152601760248201527f50617373776f72647320646f206e6f74206d617463682e0000000000000000006044820152606401610748565b6000836040516020016113339190611b68565b60408051601f1981840301815282825280516020918201206060840183528884528382018190526001600160a01b0386168484018190526000908152600290925291902082519193509081906113899082611c20565b506020820151816001015560408201518160020160006101000a8154816001600160a01b0302191690836001600160a01b0316021790555090505060016000866040516113d69190611b68565b908152604080519182900360209081018320805494151560ff199586161790556001600160a01b0386166000908152600191829052919091208054909316179091558290600390611428908890611b68565b90815260405190819003602001902080546001600160a01b03929092166001600160a01b03199092169190911790556004805490600061146783611ce0565b91905055507f48cac28ad4dc618e15f4c2dd5e97751182f166de97b25618318b2112aa951a2f828660405161149d929190611b84565b60405180910390a15050505050565b6000602082840312156114be57600080fd5b5035919050565b604080825283519082018190526000906020906060840190828701845b828110156115075781516001600160a01b0316845292840192908401906001016114e2565b5050508381038285015284518082528583019183019060005b8181101561153c57835183529284019291840191600101611520565b5090979650505050505050565b60005b8381101561156457818101518382015260200161154c565b50506000910152565b60008151808452611585816020860160208601611549565b601f01601f19169290920160200192915050565b6001600160a01b038a168152610120602082018190526000906115be8382018c61156d565b905082810360408401526115d2818b61156d565b90508860608401528760808401528660a084015282810360c08401526115f8818761156d565b905082810360e084015261160c818661156d565b9050828103610100840152611621818561156d565b9c9b505050505050505050505050565b634e487b7160e01b600052604160045260246000fd5b600082601f83011261165857600080fd5b813567ffffffffffffffff8082111561167357611673611631565b604051601f8301601f19908116603f0116810190828211818310171561169b5761169b611631565b816040528381528660208588010111156116b457600080fd5b836020870160208301376000602085830101528094505050505092915050565b600080604083850312156116e757600080fd5b823567ffffffffffffffff808211156116ff57600080fd5b61170b86838701611647565b9350602085013591508082111561172157600080fd5b5061172e85828601611647565b9150509250929050565b80356001600160a01b038116811461174f57600080fd5b919050565b60006020828403121561176657600080fd5b61176f82611738565b9392505050565b600080600080600080600080610100898b03121561179357600080fd5b61179c89611738565b9750602089013567ffffffffffffffff808211156117b957600080fd5b6117c58c838d01611647565b985060408b01359150808211156117db57600080fd5b6117e78c838d01611647565b975060608b0135965060808b0135955060a08b013591508082111561180b57600080fd5b6118178c838d01611647565b945060c08b013591508082111561182d57600080fd5b6118398c838d01611647565b935060e08b013591508082111561184f57600080fd5b5061185c8b828c01611647565b9150509295985092959890939650565b600081518084526020808501945080840160005b838110156118a55781516001600160a01b031687529582019590820190600101611880565b509495945050505050565b600081518084526020808501945080840160005b838110156118a5578151875295820195908201906001016118c4565b60006020808301818452808551808352604092508286019150828160051b87010184880160005b83811015611a1757888303603f19018552815180516001600160a01b0316845261016088820151818a87015261193f8287018261156d565b9150508782015185820389870152611957828261156d565b606084810151908801526080808501519088015260a0808501519088015260c080850151888303828a01529193509150611991838261156d565b9250505060e080830151868303828801526119ac838261156d565b9250505061010080830151868303828801526119c8838261156d565b9250505061012080830151868303828801526119e4838261186c565b925050506101408083015192508582038187015250611a0381836118b0565b968901969450505090860190600101611907565b509098975050505050505050565b606081526000611a38606083018661156d565b6020830194909452506001600160a01b0391909116604090910152919050565b600060208284031215611a6a57600080fd5b813567ffffffffffffffff811115611a8157600080fd5b611a8d84828501611647565b949350505050565b60008060008060808587031215611aab57600080fd5b843567ffffffffffffffff80821115611ac357600080fd5b611acf88838901611647565b95506020870135915080821115611ae557600080fd5b611af188838901611647565b94506040870135915080821115611b0757600080fd5b50611b1487828801611647565b925050611b2360608601611738565b905092959194509250565b600181811c90821680611b4257607f821691505b602082108103611b6257634e487b7160e01b600052602260045260246000fd5b50919050565b60008251611b7a818460208701611549565b9190910192915050565b6001600160a01b0383168152604060208201819052600090611a8d9083018461156d565b634e487b7160e01b600052601160045260246000fd5b808201808211156108d4576108d4611ba8565b601f821115611c1b57600081815260208120601f850160051c81016020861015611bf85750805b601f850160051c820191505b81811015611c1757828155600101611c04565b5050505b505050565b815167ffffffffffffffff811115611c3a57611c3a611631565b611c4e81611c488454611b2e565b84611bd1565b602080601f831160018114611c835760008415611c6b5750858301515b600019600386901b1c1916600185901b178555611c17565b600085815260208120601f198616915b82811015611cb257888601518255948401946001909101908401611c93565b5085821015611cd05787850151600019600388901b60f8161c191681555b5050505050600190811b01905550565b600060018201611cf257611cf2611ba8565b5060010190565b818103818111156108d4576108d4611ba8565b634e487b7160e01b600052603260045260246000fdfea2646970667358221220ccbbbbddbc1a06041e0654c356f9b94a01f93525d537f9a3d34cc92c28ef822364736f6c63430008110033","opcodes":"PUSH1 0x80 PUSH1 0x40 MSTORE PUSH1 0x0 PUSH1 0x6 SSTORE CALLVALUE DUP1 ISZERO PUSH2 0x15 JUMPI PUSH1 0x0 DUP1 REVERT JUMPDEST POP PUSH1 0x0 PUSH1 0x4 SSTORE PUSH2 0x1D58 DUP1 PUSH2 0x2A PUSH1 0x0 CODECOPY PUSH1 0x0 RETURN INVALID PUSH1 0x80 PUSH1 0x40 MSTORE PUSH1 0x4 CALLDATASIZE LT PUSH2 0xDD JUMPI PUSH1 0x0 CALLDATALOAD PUSH1 0xE0 SHR DUP1 PUSH4 0x61620866 GT PUSH2 0x7F JUMPI DUP1 PUSH4 0xC5CAEA01 GT PUSH2 0x59 JUMPI DUP1 PUSH4 0xC5CAEA01 EQ PUSH2 0x273 JUMPI DUP1 PUSH4 0xDF3CDAD7 EQ PUSH2 0x2AB JUMPI DUP1 PUSH4 0xEA78DCBF EQ PUSH2 0x2CB JUMPI DUP1 PUSH4 0xFD3C9952 EQ PUSH2 0x30C JUMPI PUSH1 0x0 DUP1 REVERT JUMPDEST DUP1 PUSH4 0x61620866 EQ PUSH2 0x202 JUMPI DUP1 PUSH4 0xA6B03633 EQ PUSH2 0x222 JUMPI DUP1 PUSH4 0xA87430BA EQ PUSH2 0x244 JUMPI PUSH1 0x0 DUP1 REVERT JUMPDEST DUP1 PUSH4 0x141961BC GT PUSH2 0xBB JUMPI DUP1 PUSH4 0x141961BC EQ PUSH2 0x14F JUMPI DUP1 PUSH4 0x2C162DBC EQ PUSH2 0x184 JUMPI DUP1 PUSH4 0x38B6A3A1 EQ PUSH2 0x1B4 JUMPI DUP1 PUSH4 0x42A4FDA8 EQ PUSH2 0x1ED JUMPI PUSH1 0x0 DUP1 REVERT JUMPDEST DUP1 PUSH4 0x7973CCF EQ PUSH2 0xE2 JUMPI DUP1 PUSH4 0x7CA140D EQ PUSH2 0x10B JUMPI DUP1 PUSH4 0xFA91FA9 EQ PUSH2 0x121 JUMPI JUMPDEST PUSH1 0x0 DUP1 REVERT JUMPDEST CALLVALUE DUP1 ISZERO PUSH2 0xEE JUMPI PUSH1 0x0 DUP1 REVERT JUMPDEST POP PUSH2 0xF8 PUSH1 0x4 SLOAD DUP2 JUMP JUMPDEST PUSH1 0x40 MLOAD SWAP1 DUP2 MSTORE PUSH1 0x20 ADD JUMPDEST PUSH1 0x40 MLOAD DUP1 SWAP2 SUB SWAP1 RETURN JUMPDEST CALLVALUE DUP1 ISZERO PUSH2 0x117 JUMPI PUSH1 0x0 DUP1 REVERT JUMPDEST POP PUSH2 0xF8 PUSH1 0x6 SLOAD DUP2 JUMP JUMPDEST CALLVALUE DUP1 ISZERO PUSH2 0x12D JUMPI PUSH1 0x0 DUP1 REVERT JUMPDEST POP PUSH2 0x141 PUSH2 0x13C CALLDATASIZE PUSH1 0x4 PUSH2 0x14AC JUMP JUMPDEST PUSH2 0x32C JUMP JUMPDEST PUSH1 0x40 MLOAD PUSH2 0x102 SWAP3 SWAP2 SWAP1 PUSH2 0x14C5 JUMP JUMPDEST CALLVALUE DUP1 ISZERO PUSH2 0x15B JUMPI PUSH1 0x0 DUP1 REVERT JUMPDEST POP PUSH2 0x16F PUSH2 0x16A CALLDATASIZE PUSH1 0x4 PUSH2 0x14AC JUMP JUMPDEST PUSH2 0x3FD JUMP JUMPDEST PUSH1 0x40 MLOAD PUSH2 0x102 SWAP10 SWAP9 SWAP8 SWAP7 SWAP6 SWAP5 SWAP4 SWAP3 SWAP2 SWAP1 PUSH2 0x1599 JUMP JUMPDEST CALLVALUE DUP1 ISZERO PUSH2 0x190 JUMPI PUSH1 0x0 DUP1 REVERT JUMPDEST POP PUSH2 0x1A4 PUSH2 0x19F CALLDATASIZE PUSH1 0x4 PUSH2 0x16D4 JUMP JUMPDEST PUSH2 0x6F6 JUMP JUMPDEST PUSH1 0x40 MLOAD SWAP1 ISZERO ISZERO DUP2 MSTORE PUSH1 0x20 ADD PUSH2 0x102 JUMP JUMPDEST CALLVALUE DUP1 ISZERO PUSH2 0x1C0 JUMPI PUSH1 0x0 DUP1 REVERT JUMPDEST POP PUSH2 0x1A4 PUSH2 0x1CF CALLDATASIZE PUSH1 0x4 PUSH2 0x1754 JUMP JUMPDEST PUSH1 0x1 PUSH1 0x1 PUSH1 0xA0 SHL SUB AND PUSH1 0x0 SWAP1 DUP2 MSTORE PUSH1 0x1 PUSH1 0x20 MSTORE PUSH1 0x40 SWAP1 KECCAK256 SLOAD PUSH1 0xFF AND SWAP1 JUMP JUMPDEST PUSH2 0x200 PUSH2 0x1FB CALLDATASIZE PUSH1 0x4 PUSH2 0x14AC JUMP JUMPDEST PUSH2 0x8DA JUMP JUMPDEST STOP JUMPDEST CALLVALUE DUP1 ISZERO PUSH2 0x20E JUMPI PUSH1 0x0 DUP1 REVERT JUMPDEST POP PUSH2 0xF8 PUSH2 0x21D CALLDATASIZE PUSH1 0x4 PUSH2 0x1776 JUMP JUMPDEST PUSH2 0xA20 JUMP JUMPDEST CALLVALUE DUP1 ISZERO PUSH2 0x22E JUMPI PUSH1 0x0 DUP1 REVERT JUMPDEST POP PUSH2 0x237 PUSH2 0xB44 JUMP JUMPDEST PUSH1 0x40 MLOAD PUSH2 0x102 SWAP2 SWAP1 PUSH2 0x18E0 JUMP JUMPDEST CALLVALUE DUP1 ISZERO PUSH2 0x250 JUMPI PUSH1 0x0 DUP1 REVERT JUMPDEST POP PUSH2 0x264 PUSH2 0x25F CALLDATASIZE PUSH1 0x4 PUSH2 0x1754 JUMP JUMPDEST PUSH2 0x109A JUMP JUMPDEST PUSH1 0x40 MLOAD PUSH2 0x102 SWAP4 SWAP3 SWAP2 SWAP1 PUSH2 0x1A25 JUMP JUMPDEST CALLVALUE DUP1 ISZERO PUSH2 0x27F JUMPI PUSH1 0x0 DUP1 REVERT JUMPDEST POP PUSH2 0x293 PUSH2 0x28E CALLDATASIZE PUSH1 0x4 PUSH2 0x1A58 JUMP JUMPDEST PUSH2 0x114E JUMP JUMPDEST PUSH1 0x40 MLOAD PUSH1 0x1 PUSH1 0x1 PUSH1 0xA0 SHL SUB SWAP1 SWAP2 AND DUP2 MSTORE PUSH1 0x20 ADD PUSH2 0x102 JUMP JUMPDEST CALLVALUE DUP1 ISZERO PUSH2 0x2B7 JUMPI PUSH1 0x0 DUP1 REVERT JUMPDEST POP PUSH2 0x1A4 PUSH2 0x2C6 CALLDATASIZE PUSH1 0x4 PUSH2 0x1A58 JUMP JUMPDEST PUSH2 0x117F JUMP JUMPDEST CALLVALUE DUP1 ISZERO PUSH2 0x2D7 JUMPI PUSH1 0x0 DUP1 REVERT JUMPDEST POP PUSH2 0x293 PUSH2 0x2E6 CALLDATASIZE PUSH1 0x4 PUSH2 0x1A58 JUMP JUMPDEST DUP1 MLOAD PUSH1 0x20 DUP2 DUP4 ADD DUP2 ADD DUP1 MLOAD PUSH1 0x3 DUP3 MSTORE SWAP3 DUP3 ADD SWAP2 SWAP1 SWAP4 ADD KECCAK256 SWAP2 MSTORE SLOAD PUSH1 0x1 PUSH1 0x1 PUSH1 0xA0 SHL SUB AND DUP2 JUMP JUMPDEST CALLVALUE DUP1 ISZERO PUSH2 0x318 JUMPI PUSH1 0x0 DUP1 REVERT JUMPDEST POP PUSH2 0x200 PUSH2 0x327 CALLDATASIZE PUSH1 0x4 PUSH2 0x1A95 JUMP JUMPDEST PUSH2 0x11A9 JUMP JUMPDEST PUSH1 0x0 DUP2 DUP2 MSTORE PUSH1 0x5 PUSH1 0x20 SWAP1 DUP2 MSTORE PUSH1 0x40 SWAP2 DUP3 SWAP1 KECCAK256 PUSH1 0x9 DUP2 ADD DUP1 SLOAD DUP5 MLOAD DUP2 DUP6 MUL DUP2 ADD DUP6 ADD SWAP1 SWAP6 MSTORE DUP1 DUP6 MSTORE PUSH1 0x60 SWAP5 DUP6 SWAP5 SWAP3 SWAP4 PUSH1 0xA ADD SWAP3 SWAP1 SWAP2 DUP5 SWAP2 DUP4 ADD DUP3 DUP3 DUP1 ISZERO PUSH2 0x39B JUMPI PUSH1 0x20 MUL DUP3 ADD SWAP2 SWAP1 PUSH1 0x0 MSTORE PUSH1 0x20 PUSH1 0x0 KECCAK256 SWAP1 JUMPDEST DUP2 SLOAD PUSH1 0x1 PUSH1 0x1 PUSH1 0xA0 SHL SUB AND DUP2 MSTORE PUSH1 0x1 SWAP1 SWAP2 ADD SWAP1 PUSH1 0x20 ADD DUP1 DUP4 GT PUSH2 0x37D JUMPI JUMPDEST POP POP POP POP POP SWAP2 POP DUP1 DUP1 SLOAD DUP1 PUSH1 0x20 MUL PUSH1 0x20 ADD PUSH1 0x40 MLOAD SWAP1 DUP2 ADD PUSH1 0x40 MSTORE DUP1 SWAP3 SWAP2 SWAP1 DUP2 DUP2 MSTORE PUSH1 0x20 ADD DUP3 DUP1 SLOAD DUP1 ISZERO PUSH2 0x3ED JUMPI PUSH1 0x20 MUL DUP3 ADD SWAP2 SWAP1 PUSH1 0x0 MSTORE PUSH1 0x20 PUSH1 0x0 KECCAK256 SWAP1 JUMPDEST DUP2 SLOAD DUP2 MSTORE PUSH1 0x20 ADD SWAP1 PUSH1 0x1 ADD SWAP1 DUP1 DUP4 GT PUSH2 0x3D9 JUMPI JUMPDEST POP POP POP POP POP SWAP1 POP SWAP2 POP SWAP2 POP SWAP2 POP SWAP2 JUMP JUMPDEST PUSH1 0x5 PUSH1 0x20 MSTORE PUSH1 0x0 SWAP1 DUP2 MSTORE PUSH1 0x40 SWAP1 KECCAK256 DUP1 SLOAD PUSH1 0x1 DUP3 ADD DUP1 SLOAD PUSH1 0x1 PUSH1 0x1 PUSH1 0xA0 SHL SUB SWAP1 SWAP3 AND SWAP3 SWAP2 PUSH2 0x429 SWAP1 PUSH2 0x1B2E JUMP JUMPDEST DUP1 PUSH1 0x1F ADD PUSH1 0x20 DUP1 SWAP2 DIV MUL PUSH1 0x20 ADD PUSH1 0x40 MLOAD SWAP1 DUP2 ADD PUSH1 0x40 MSTORE DUP1 SWAP3 SWAP2 SWAP1 DUP2 DUP2 MSTORE PUSH1 0x20 ADD DUP3 DUP1 SLOAD PUSH2 0x455 SWAP1 PUSH2 0x1B2E JUMP JUMPDEST DUP1 ISZERO PUSH2 0x4A2 JUMPI DUP1 PUSH1 0x1F LT PUSH2 0x477 JUMPI PUSH2 0x100 DUP1 DUP4 SLOAD DIV MUL DUP4 MSTORE SWAP2 PUSH1 0x20 ADD SWAP2 PUSH2 0x4A2 JUMP JUMPDEST DUP3 ADD SWAP2 SWAP1 PUSH1 0x0 MSTORE PUSH1 0x20 PUSH1 0x0 KECCAK256 SWAP1 JUMPDEST DUP2 SLOAD DUP2 MSTORE SWAP1 PUSH1 0x1 ADD SWAP1 PUSH1 0x20 ADD DUP1 DUP4 GT PUSH2 0x485 JUMPI DUP3 SWAP1 SUB PUSH1 0x1F AND DUP3 ADD SWAP2 JUMPDEST POP POP POP POP POP SWAP1 DUP1 PUSH1 0x2 ADD DUP1 SLOAD PUSH2 0x4B7 SWAP1 PUSH2 0x1B2E JUMP JUMPDEST DUP1 PUSH1 0x1F ADD PUSH1 0x20 DUP1 SWAP2 DIV MUL PUSH1 0x20 ADD PUSH1 0x40 MLOAD SWAP1 DUP2 ADD PUSH1 0x40 MSTORE DUP1 SWAP3 SWAP2 SWAP1 DUP2 DUP2 MSTORE PUSH1 0x20 ADD DUP3 DUP1 SLOAD PUSH2 0x4E3 SWAP1 PUSH2 0x1B2E JUMP JUMPDEST DUP1 ISZERO PUSH2 0x530 JUMPI DUP1 PUSH1 0x1F LT PUSH2 0x505 JUMPI PUSH2 0x100 DUP1 DUP4 SLOAD DIV MUL DUP4 MSTORE SWAP2 PUSH1 0x20 ADD SWAP2 PUSH2 0x530 JUMP JUMPDEST DUP3 ADD SWAP2 SWAP1 PUSH1 0x0 MSTORE PUSH1 0x20 PUSH1 0x0 KECCAK256 SWAP1 JUMPDEST DUP2 SLOAD DUP2 MSTORE SWAP1 PUSH1 0x1 ADD SWAP1 PUSH1 0x20 ADD DUP1 DUP4 GT PUSH2 0x513 JUMPI DUP3 SWAP1 SUB PUSH1 0x1F AND DUP3 ADD SWAP2 JUMPDEST POP POP POP POP POP SWAP1 DUP1 PUSH1 0x3 ADD SLOAD SWAP1 DUP1 PUSH1 0x4 ADD SLOAD SWAP1 DUP1 PUSH1 0x5 ADD SLOAD SWAP1 DUP1 PUSH1 0x6 ADD DUP1 SLOAD PUSH2 0x557 SWAP1 PUSH2 0x1B2E JUMP JUMPDEST DUP1 PUSH1 0x1F ADD PUSH1 0x20 DUP1 SWAP2 DIV MUL PUSH1 0x20 ADD PUSH1 0x40 MLOAD SWAP1 DUP2 ADD PUSH1 0x40 MSTORE DUP1 SWAP3 SWAP2 SWAP1 DUP2 DUP2 MSTORE PUSH1 0x20 ADD DUP3 DUP1 SLOAD PUSH2 0x583 SWAP1 PUSH2 0x1B2E JUMP JUMPDEST DUP1 ISZERO PUSH2 0x5D0 JUMPI DUP1 PUSH1 0x1F LT PUSH2 0x5A5 JUMPI PUSH2 0x100 DUP1 DUP4 SLOAD DIV MUL DUP4 MSTORE SWAP2 PUSH1 0x20 ADD SWAP2 PUSH2 0x5D0 JUMP JUMPDEST DUP3 ADD SWAP2 SWAP1 PUSH1 0x0 MSTORE PUSH1 0x20 PUSH1 0x0 KECCAK256 SWAP1 JUMPDEST DUP2 SLOAD DUP2 MSTORE SWAP1 PUSH1 0x1 ADD SWAP1 PUSH1 0x20 ADD DUP1 DUP4 GT PUSH2 0x5B3 JUMPI DUP3 SWAP1 SUB PUSH1 0x1F AND DUP3 ADD SWAP2 JUMPDEST POP POP POP POP POP SWAP1 DUP1 PUSH1 0x7 ADD DUP1 SLOAD PUSH2 0x5E5 SWAP1 PUSH2 0x1B2E JUMP JUMPDEST DUP1 PUSH1 0x1F ADD PUSH1 0x20 DUP1 SWAP2 DIV MUL PUSH1 0x20 ADD PUSH1 0x40 MLOAD SWAP1 DUP2 ADD PUSH1 0x40 MSTORE DUP1 SWAP3 SWAP2 SWAP1 DUP2 DUP2 MSTORE PUSH1 0x20 ADD DUP3 DUP1 SLOAD PUSH2 0x611 SWAP1 PUSH2 0x1B2E JUMP JUMPDEST DUP1 ISZERO PUSH2 0x65E JUMPI DUP1 PUSH1 0x1F LT PUSH2 0x633 JUMPI PUSH2 0x100 DUP1 DUP4 SLOAD DIV MUL DUP4 MSTORE SWAP2 PUSH1 0x20 ADD SWAP2 PUSH2 0x65E JUMP JUMPDEST DUP3 ADD SWAP2 SWAP1 PUSH1 0x0 MSTORE PUSH1 0x20 PUSH1 0x0 KECCAK256 SWAP1 JUMPDEST DUP2 SLOAD DUP2 MSTORE SWAP1 PUSH1 0x1 ADD SWAP1 PUSH1 0x20 ADD DUP1 DUP4 GT PUSH2 0x641 JUMPI DUP3 SWAP1 SUB PUSH1 0x1F AND DUP3 ADD SWAP2 JUMPDEST POP POP POP POP POP SWAP1 DUP1 PUSH1 0x8 ADD DUP1 SLOAD PUSH2 0x673 SWAP1 PUSH2 0x1B2E JUMP JUMPDEST DUP1 PUSH1 0x1F ADD PUSH1 0x20 DUP1 SWAP2 DIV MUL PUSH1 0x20 ADD PUSH1 0x40 MLOAD SWAP1 DUP2 ADD PUSH1 0x40 MSTORE DUP1 SWAP3 SWAP2 SWAP1 DUP2 DUP2 MSTORE PUSH1 0x20 ADD DUP3 DUP1 SLOAD PUSH2 0x69F SWAP1 PUSH2 0x1B2E JUMP JUMPDEST DUP1 ISZERO PUSH2 0x6EC JUMPI DUP1 PUSH1 0x1F LT PUSH2 0x6C1 JUMPI PUSH2 0x100 DUP1 DUP4 SLOAD DIV MUL DUP4 MSTORE SWAP2 PUSH1 0x20 ADD SWAP2 PUSH2 0x6EC JUMP JUMPDEST DUP3 ADD SWAP2 SWAP1 PUSH1 0x0 MSTORE PUSH1 0x20 PUSH1 0x0 KECCAK256 SWAP1 JUMPDEST DUP2 SLOAD DUP2 MSTORE SWAP1 PUSH1 0x1 ADD SWAP1 PUSH1 0x20 ADD DUP1 DUP4 GT PUSH2 0x6CF JUMPI DUP3 SWAP1 SUB PUSH1 0x1F AND DUP3 ADD SWAP2 JUMPDEST POP POP POP POP POP SWAP1 POP DUP10 JUMP JUMPDEST PUSH1 0x0 DUP1 PUSH2 0x702 DUP5 PUSH2 0x114E JUMP JUMPDEST SWAP1 POP PUSH1 0x1 PUSH1 0x1 PUSH1 0xA0 SHL SUB DUP2 AND PUSH2 0x751 JUMPI PUSH1 0x40 MLOAD PUSH3 0x461BCD PUSH1 0xE5 SHL DUP2 MSTORE PUSH1 0x20 PUSH1 0x4 DUP3 ADD MSTORE PUSH1 0xF PUSH1 0x24 DUP3 ADD MSTORE PUSH15 0x2AB9B2B9103737BA103337BAB73217 PUSH1 0x89 SHL PUSH1 0x44 DUP3 ADD MSTORE PUSH1 0x64 ADD JUMPDEST PUSH1 0x40 MLOAD DUP1 SWAP2 SUB SWAP1 REVERT JUMPDEST PUSH1 0x1 PUSH1 0x1 PUSH1 0xA0 SHL SUB DUP2 AND PUSH1 0x0 SWAP1 DUP2 MSTORE PUSH1 0x2 PUSH1 0x20 MSTORE PUSH1 0x40 DUP1 DUP3 KECCAK256 DUP2 MLOAD PUSH1 0x60 DUP2 ADD SWAP1 SWAP3 MSTORE DUP1 SLOAD DUP3 SWAP1 DUP3 SWAP1 PUSH2 0x782 SWAP1 PUSH2 0x1B2E JUMP JUMPDEST DUP1 PUSH1 0x1F ADD PUSH1 0x20 DUP1 SWAP2 DIV MUL PUSH1 0x20 ADD PUSH1 0x40 MLOAD SWAP1 DUP2 ADD PUSH1 0x40 MSTORE DUP1 SWAP3 SWAP2 SWAP1 DUP2 DUP2 MSTORE PUSH1 0x20 ADD DUP3 DUP1 SLOAD PUSH2 0x7AE SWAP1 PUSH2 0x1B2E JUMP JUMPDEST DUP1 ISZERO PUSH2 0x7FB JUMPI DUP1 PUSH1 0x1F LT PUSH2 0x7D0 JUMPI PUSH2 0x100 DUP1 DUP4 SLOAD DIV MUL DUP4 MSTORE SWAP2 PUSH1 0x20 ADD SWAP2 PUSH2 0x7FB JUMP JUMPDEST DUP3 ADD SWAP2 SWAP1 PUSH1 0x0 MSTORE PUSH1 0x20 PUSH1 0x0 KECCAK256 SWAP1 JUMPDEST DUP2 SLOAD DUP2 MSTORE SWAP1 PUSH1 0x1 ADD SWAP1 PUSH1 0x20 ADD DUP1 DUP4 GT PUSH2 0x7DE JUMPI DUP3 SWAP1 SUB PUSH1 0x1F AND DUP3 ADD SWAP2 JUMPDEST POP POP POP SWAP2 DUP4 MSTORE POP POP PUSH1 0x1 DUP3 ADD SLOAD PUSH1 0x20 DUP1 DUP4 ADD SWAP2 SWAP1 SWAP2 MSTORE PUSH1 0x2 SWAP1 SWAP3 ADD SLOAD PUSH1 0x1 PUSH1 0x1 PUSH1 0xA0 SHL SUB AND PUSH1 0x40 SWAP2 DUP3 ADD MSTORE MLOAD SWAP2 SWAP3 POP PUSH2 0x836 SWAP2 DUP7 SWAP2 ADD PUSH2 0x1B68 JUMP JUMPDEST PUSH1 0x40 MLOAD PUSH1 0x20 DUP2 DUP4 SUB SUB DUP2 MSTORE SWAP1 PUSH1 0x40 MSTORE DUP1 MLOAD SWAP1 PUSH1 0x20 ADD KECCAK256 DUP2 PUSH1 0x20 ADD MLOAD EQ PUSH2 0x894 JUMPI PUSH1 0x40 MLOAD PUSH3 0x461BCD PUSH1 0xE5 SHL DUP2 MSTORE PUSH1 0x20 PUSH1 0x4 DUP3 ADD MSTORE PUSH1 0x13 PUSH1 0x24 DUP3 ADD MSTORE PUSH19 0x24B731B7B93932B1BA103830B9B9BBB7B93217 PUSH1 0x69 SHL PUSH1 0x44 DUP3 ADD MSTORE PUSH1 0x64 ADD PUSH2 0x748 JUMP JUMPDEST PUSH32 0xFD7A49BF0BE38D61EC3404F450519A68EB8BDD1EDB8729B6C5F8C139E9DAFEAF DUP3 DUP7 PUSH1 0x40 MLOAD PUSH2 0x8C5 SWAP3 SWAP2 SWAP1 PUSH2 0x1B84 JUMP JUMPDEST PUSH1 0x40 MLOAD DUP1 SWAP2 SUB SWAP1 LOG1 PUSH1 0x1 SWAP3 POP POP POP JUMPDEST SWAP3 SWAP2 POP POP JUMP JUMPDEST PUSH1 0x0 DUP2 DUP2 MSTORE PUSH1 0x5 PUSH1 0x20 SWAP1 DUP2 MSTORE PUSH1 0x40 DUP1 DUP4 KECCAK256 PUSH1 0x9 DUP2 ADD DUP1 SLOAD PUSH1 0x1 DUP1 DUP3 ADD DUP4 SSTORE SWAP2 DUP7 MSTORE DUP5 DUP7 KECCAK256 ADD DUP1 SLOAD PUSH1 0x1 PUSH1 0x1 PUSH1 0xA0 SHL SUB NOT AND CALLER OR SWAP1 SSTORE PUSH1 0xA DUP3 ADD DUP1 SLOAD SWAP2 DUP3 ADD DUP2 SSTORE DUP6 MSTORE SWAP3 DUP5 KECCAK256 CALLVALUE SWAP4 ADD DUP4 SWAP1 SSTORE DUP1 SLOAD SWAP2 MLOAD SWAP3 SWAP4 SWAP1 SWAP3 SWAP1 SWAP2 PUSH1 0x1 PUSH1 0x1 PUSH1 0xA0 SHL SUB AND SWAP1 DUP5 SWAP1 DUP4 DUP2 DUP2 DUP2 DUP6 DUP8 GAS CALL SWAP3 POP POP POP RETURNDATASIZE DUP1 PUSH1 0x0 DUP2 EQ PUSH2 0x973 JUMPI PUSH1 0x40 MLOAD SWAP2 POP PUSH1 0x1F NOT PUSH1 0x3F RETURNDATASIZE ADD AND DUP3 ADD PUSH1 0x40 MSTORE RETURNDATASIZE DUP3 MSTORE RETURNDATASIZE PUSH1 0x0 PUSH1 0x20 DUP5 ADD RETURNDATACOPY PUSH2 0x978 JUMP JUMPDEST PUSH1 0x60 SWAP2 POP JUMPDEST POP POP SWAP1 POP DUP1 ISZERO PUSH2 0x9E0 JUMPI DUP3 DUP3 PUSH1 0x5 ADD PUSH1 0x0 DUP3 DUP3 SLOAD PUSH2 0x996 SWAP2 SWAP1 PUSH2 0x1BBE JUMP JUMPDEST SWAP1 SWAP2 SSTORE POP POP PUSH1 0x40 DUP1 MLOAD DUP6 DUP2 MSTORE CALLER PUSH1 0x20 DUP3 ADD MSTORE SWAP1 DUP2 ADD DUP5 SWAP1 MSTORE PUSH32 0xB5B4C52969FF7329ECF7EE536409FDA87812B15A8622BC6E8CDEAB3AEE14A26 SWAP1 PUSH1 0x60 ADD PUSH1 0x40 MLOAD DUP1 SWAP2 SUB SWAP1 LOG1 PUSH2 0xA1A JUMP JUMPDEST PUSH1 0x40 MLOAD PUSH3 0x461BCD PUSH1 0xE5 SHL DUP2 MSTORE PUSH1 0x20 PUSH1 0x4 DUP3 ADD MSTORE PUSH1 0xF PUSH1 0x24 DUP3 ADD MSTORE PUSH15 0x151C985B9CD9995C8819985A5B1959 PUSH1 0x8A SHL PUSH1 0x44 DUP3 ADD MSTORE PUSH1 0x64 ADD PUSH2 0x748 JUMP JUMPDEST POP POP POP POP JUMP JUMPDEST PUSH1 0x6 SLOAD PUSH1 0x0 SWAP1 DUP2 MSTORE PUSH1 0x5 PUSH1 0x20 MSTORE PUSH1 0x40 DUP2 KECCAK256 PUSH1 0x4 DUP2 ADD SLOAD TIMESTAMP GT PUSH2 0xA99 JUMPI PUSH1 0x40 MLOAD PUSH3 0x461BCD PUSH1 0xE5 SHL DUP2 MSTORE PUSH1 0x20 PUSH1 0x4 DUP3 ADD MSTORE PUSH1 0x2C PUSH1 0x24 DUP3 ADD MSTORE PUSH32 0x54686520646561646C696E652073686F756C642062652061206461746520696E PUSH1 0x44 DUP3 ADD MSTORE PUSH12 0x103A343290333ABA3AB93297 PUSH1 0xA1 SHL PUSH1 0x64 DUP3 ADD MSTORE PUSH1 0x84 ADD PUSH2 0x748 JUMP JUMPDEST DUP1 SLOAD PUSH1 0x1 PUSH1 0x1 PUSH1 0xA0 SHL SUB NOT AND PUSH1 0x1 PUSH1 0x1 PUSH1 0xA0 SHL SUB DUP12 AND OR DUP2 SSTORE PUSH1 0x1 DUP2 ADD PUSH2 0xAC0 DUP11 DUP3 PUSH2 0x1C20 JUMP JUMPDEST POP PUSH1 0x2 DUP2 ADD PUSH2 0xACF DUP10 DUP3 PUSH2 0x1C20 JUMP JUMPDEST POP PUSH1 0x3 DUP2 ADD DUP8 SWAP1 SSTORE PUSH1 0x4 DUP2 ADD DUP7 SWAP1 SSTORE PUSH1 0x0 PUSH1 0x5 DUP3 ADD SSTORE PUSH1 0x6 DUP2 ADD PUSH2 0xAF3 DUP7 DUP3 PUSH2 0x1C20 JUMP JUMPDEST POP PUSH1 0x7 DUP2 ADD PUSH2 0xB02 DUP6 DUP3 PUSH2 0x1C20 JUMP JUMPDEST POP PUSH1 0x8 DUP2 ADD PUSH2 0xB11 DUP5 DUP3 PUSH2 0x1C20 JUMP JUMPDEST POP PUSH1 0x6 DUP1 SLOAD SWAP1 PUSH1 0x0 PUSH2 0xB22 DUP4 PUSH2 0x1CE0 JUMP JUMPDEST SWAP2 SWAP1 POP SSTORE POP PUSH1 0x1 PUSH1 0x6 SLOAD PUSH2 0xB36 SWAP2 SWAP1 PUSH2 0x1CF9 JUMP JUMPDEST SWAP11 SWAP10 POP POP POP POP POP POP POP POP POP POP JUMP JUMPDEST PUSH1 0x60 PUSH1 0x0 DUP1 JUMPDEST PUSH1 0x6 SLOAD DUP2 LT ISZERO PUSH2 0xB92 JUMPI PUSH1 0x0 DUP2 DUP2 MSTORE PUSH1 0x5 PUSH1 0x20 MSTORE PUSH1 0x40 SWAP1 KECCAK256 SLOAD PUSH1 0x1 PUSH1 0x1 PUSH1 0xA0 SHL SUB AND CALLER EQ PUSH2 0xB80 JUMPI DUP2 PUSH2 0xB7C DUP2 PUSH2 0x1CE0 JUMP JUMPDEST SWAP3 POP POP JUMPDEST DUP1 PUSH2 0xB8A DUP2 PUSH2 0x1CE0 JUMP JUMPDEST SWAP2 POP POP PUSH2 0xB4A JUMP JUMPDEST POP PUSH1 0x0 DUP2 PUSH8 0xFFFFFFFFFFFFFFFF DUP2 GT ISZERO PUSH2 0xBAE JUMPI PUSH2 0xBAE PUSH2 0x1631 JUMP JUMPDEST PUSH1 0x40 MLOAD SWAP1 DUP1 DUP3 MSTORE DUP1 PUSH1 0x20 MUL PUSH1 0x20 ADD DUP3 ADD PUSH1 0x40 MSTORE DUP1 ISZERO PUSH2 0xC45 JUMPI DUP2 PUSH1 0x20 ADD JUMPDEST PUSH2 0xC32 PUSH1 0x40 MLOAD DUP1 PUSH2 0x160 ADD PUSH1 0x40 MSTORE DUP1 PUSH1 0x0 PUSH1 0x1 PUSH1 0x1 PUSH1 0xA0 SHL SUB AND DUP2 MSTORE PUSH1 0x20 ADD PUSH1 0x60 DUP2 MSTORE PUSH1 0x20 ADD PUSH1 0x60 DUP2 MSTORE PUSH1 0x20 ADD PUSH1 0x0 DUP2 MSTORE PUSH1 0x20 ADD PUSH1 0x0 DUP2 MSTORE PUSH1 0x20 ADD PUSH1 0x0 DUP2 MSTORE PUSH1 0x20 ADD PUSH1 0x60 DUP2 MSTORE PUSH1 0x20 ADD PUSH1 0x60 DUP2 MSTORE PUSH1 0x20 ADD PUSH1 0x60 DUP2 MSTORE PUSH1 0x20 ADD PUSH1 0x60 DUP2 MSTORE PUSH1 0x20 ADD PUSH1 0x60 DUP2 MSTORE POP SWAP1 JUMP JUMPDEST DUP2 MSTORE PUSH1 0x20 ADD SWAP1 PUSH1 0x1 SWAP1 SUB SWAP1 DUP2 PUSH2 0xBCC JUMPI SWAP1 POP JUMPDEST POP SWAP1 POP PUSH1 0x0 DUP1 JUMPDEST PUSH1 0x6 SLOAD DUP2 LT ISZERO PUSH2 0x1091 JUMPI PUSH1 0x0 DUP2 DUP2 MSTORE PUSH1 0x5 PUSH1 0x20 MSTORE PUSH1 0x40 SWAP1 KECCAK256 SLOAD PUSH1 0x1 PUSH1 0x1 PUSH1 0xA0 SHL SUB AND CALLER EQ PUSH2 0x107F JUMPI PUSH1 0x0 DUP2 DUP2 MSTORE PUSH1 0x5 PUSH1 0x20 SWAP1 DUP2 MSTORE PUSH1 0x40 SWAP2 DUP3 SWAP1 KECCAK256 DUP3 MLOAD PUSH2 0x160 DUP2 ADD SWAP1 SWAP4 MSTORE DUP1 SLOAD PUSH1 0x1 PUSH1 0x1 PUSH1 0xA0 SHL SUB AND DUP4 MSTORE PUSH1 0x1 DUP2 ADD DUP1 SLOAD SWAP2 SWAP3 DUP5 ADD SWAP2 PUSH2 0xCB1 SWAP1 PUSH2 0x1B2E JUMP JUMPDEST DUP1 PUSH1 0x1F ADD PUSH1 0x20 DUP1 SWAP2 DIV MUL PUSH1 0x20 ADD PUSH1 0x40 MLOAD SWAP1 DUP2 ADD PUSH1 0x40 MSTORE DUP1 SWAP3 SWAP2 SWAP1 DUP2 DUP2 MSTORE PUSH1 0x20 ADD DUP3 DUP1 SLOAD PUSH2 0xCDD SWAP1 PUSH2 0x1B2E JUMP JUMPDEST DUP1 ISZERO PUSH2 0xD2A JUMPI DUP1 PUSH1 0x1F LT PUSH2 0xCFF JUMPI PUSH2 0x100 DUP1 DUP4 SLOAD DIV MUL DUP4 MSTORE SWAP2 PUSH1 0x20 ADD SWAP2 PUSH2 0xD2A JUMP JUMPDEST DUP3 ADD SWAP2 SWAP1 PUSH1 0x0 MSTORE PUSH1 0x20 PUSH1 0x0 KECCAK256 SWAP1 JUMPDEST DUP2 SLOAD DUP2 MSTORE SWAP1 PUSH1 0x1 ADD SWAP1 PUSH1 0x20 ADD DUP1 DUP4 GT PUSH2 0xD0D JUMPI DUP3 SWAP1 SUB PUSH1 0x1F AND DUP3 ADD SWAP2 JUMPDEST POP POP POP POP POP DUP2 MSTORE PUSH1 0x20 ADD PUSH1 0x2 DUP3 ADD DUP1 SLOAD PUSH2 0xD43 SWAP1 PUSH2 0x1B2E JUMP JUMPDEST DUP1 PUSH1 0x1F ADD PUSH1 0x20 DUP1 SWAP2 DIV MUL PUSH1 0x20 ADD PUSH1 0x40 MLOAD SWAP1 DUP2 ADD PUSH1 0x40 MSTORE DUP1 SWAP3 SWAP2 SWAP1 DUP2 DUP2 MSTORE PUSH1 0x20 ADD DUP3 DUP1 SLOAD PUSH2 0xD6F SWAP1 PUSH2 0x1B2E JUMP JUMPDEST DUP1 ISZERO PUSH2 0xDBC JUMPI DUP1 PUSH1 0x1F LT PUSH2 0xD91 JUMPI PUSH2 0x100 DUP1 DUP4 SLOAD DIV MUL DUP4 MSTORE SWAP2 PUSH1 0x20 ADD SWAP2 PUSH2 0xDBC JUMP JUMPDEST DUP3 ADD SWAP2 SWAP1 PUSH1 0x0 MSTORE PUSH1 0x20 PUSH1 0x0 KECCAK256 SWAP1 JUMPDEST DUP2 SLOAD DUP2 MSTORE SWAP1 PUSH1 0x1 ADD SWAP1 PUSH1 0x20 ADD DUP1 DUP4 GT PUSH2 0xD9F JUMPI DUP3 SWAP1 SUB PUSH1 0x1F AND DUP3 ADD SWAP2 JUMPDEST POP POP POP POP POP DUP2 MSTORE PUSH1 0x20 ADD PUSH1 0x3 DUP3 ADD SLOAD DUP2 MSTORE PUSH1 0x20 ADD PUSH1 0x4 DUP3 ADD SLOAD DUP2 MSTORE PUSH1 0x20 ADD PUSH1 0x5 DUP3 ADD SLOAD DUP2 MSTORE PUSH1 0x20 ADD PUSH1 0x6 DUP3 ADD DUP1 SLOAD PUSH2 0xDF3 SWAP1 PUSH2 0x1B2E JUMP JUMPDEST DUP1 PUSH1 0x1F ADD PUSH1 0x20 DUP1 SWAP2 DIV MUL PUSH1 0x20 ADD PUSH1 0x40 MLOAD SWAP1 DUP2 ADD PUSH1 0x40 MSTORE DUP1 SWAP3 SWAP2 SWAP1 DUP2 DUP2 MSTORE PUSH1 0x20 ADD DUP3 DUP1 SLOAD PUSH2 0xE1F SWAP1 PUSH2 0x1B2E JUMP JUMPDEST DUP1 ISZERO PUSH2 0xE6C JUMPI DUP1 PUSH1 0x1F LT PUSH2 0xE41 JUMPI PUSH2 0x100 DUP1 DUP4 SLOAD DIV MUL DUP4 MSTORE SWAP2 PUSH1 0x20 ADD SWAP2 PUSH2 0xE6C JUMP JUMPDEST DUP3 ADD SWAP2 SWAP1 PUSH1 0x0 MSTORE PUSH1 0x20 PUSH1 0x0 KECCAK256 SWAP1 JUMPDEST DUP2 SLOAD DUP2 MSTORE SWAP1 PUSH1 0x1 ADD SWAP1 PUSH1 0x20 ADD DUP1 DUP4 GT PUSH2 0xE4F JUMPI DUP3 SWAP1 SUB PUSH1 0x1F AND DUP3 ADD SWAP2 JUMPDEST POP POP POP POP POP DUP2 MSTORE PUSH1 0x20 ADD PUSH1 0x7 DUP3 ADD DUP1 SLOAD PUSH2 0xE85 SWAP1 PUSH2 0x1B2E JUMP JUMPDEST DUP1 PUSH1 0x1F ADD PUSH1 0x20 DUP1 SWAP2 DIV MUL PUSH1 0x20 ADD PUSH1 0x40 MLOAD SWAP1 DUP2 ADD PUSH1 0x40 MSTORE DUP1 SWAP3 SWAP2 SWAP1 DUP2 DUP2 MSTORE PUSH1 0x20 ADD DUP3 DUP1 SLOAD PUSH2 0xEB1 SWAP1 PUSH2 0x1B2E JUMP JUMPDEST DUP1 ISZERO PUSH2 0xEFE JUMPI DUP1 PUSH1 0x1F LT PUSH2 0xED3 JUMPI PUSH2 0x100 DUP1 DUP4 SLOAD DIV MUL DUP4 MSTORE SWAP2 PUSH1 0x20 ADD SWAP2 PUSH2 0xEFE JUMP JUMPDEST DUP3 ADD SWAP2 SWAP1 PUSH1 0x0 MSTORE PUSH1 0x20 PUSH1 0x0 KECCAK256 SWAP1 JUMPDEST DUP2 SLOAD DUP2 MSTORE SWAP1 PUSH1 0x1 ADD SWAP1 PUSH1 0x20 ADD DUP1 DUP4 GT PUSH2 0xEE1 JUMPI DUP3 SWAP1 SUB PUSH1 0x1F AND DUP3 ADD SWAP2 JUMPDEST POP POP POP POP POP DUP2 MSTORE PUSH1 0x20 ADD PUSH1 0x8 DUP3 ADD DUP1 SLOAD PUSH2 0xF17 SWAP1 PUSH2 0x1B2E JUMP JUMPDEST DUP1 PUSH1 0x1F ADD PUSH1 0x20 DUP1 SWAP2 DIV MUL PUSH1 0x20 ADD PUSH1 0x40 MLOAD SWAP1 DUP2 ADD PUSH1 0x40 MSTORE DUP1 SWAP3 SWAP2 SWAP1 DUP2 DUP2 MSTORE PUSH1 0x20 ADD DUP3 DUP1 SLOAD PUSH2 0xF43 SWAP1 PUSH2 0x1B2E JUMP JUMPDEST DUP1 ISZERO PUSH2 0xF90 JUMPI DUP1 PUSH1 0x1F LT PUSH2 0xF65 JUMPI PUSH2 0x100 DUP1 DUP4 SLOAD DIV MUL DUP4 MSTORE SWAP2 PUSH1 0x20 ADD SWAP2 PUSH2 0xF90 JUMP JUMPDEST DUP3 ADD SWAP2 SWAP1 PUSH1 0x0 MSTORE PUSH1 0x20 PUSH1 0x0 KECCAK256 SWAP1 JUMPDEST DUP2 SLOAD DUP2 MSTORE SWAP1 PUSH1 0x1 ADD SWAP1 PUSH1 0x20 ADD DUP1 DUP4 GT PUSH2 0xF73 JUMPI DUP3 SWAP1 SUB PUSH1 0x1F AND DUP3 ADD SWAP2 JUMPDEST POP POP POP POP POP DUP2 MSTORE PUSH1 0x20 ADD PUSH1 0x9 DUP3 ADD DUP1 SLOAD DUP1 PUSH1 0x20 MUL PUSH1 0x20 ADD PUSH1 0x40 MLOAD SWAP1 DUP2 ADD PUSH1 0x40 MSTORE DUP1 SWAP3 SWAP2 SWAP1 DUP2 DUP2 MSTORE PUSH1 0x20 ADD DUP3 DUP1 SLOAD DUP1 ISZERO PUSH2 0xFF2 JUMPI PUSH1 0x20 MUL DUP3 ADD SWAP2 SWAP1 PUSH1 0x0 MSTORE PUSH1 0x20 PUSH1 0x0 KECCAK256 SWAP1 JUMPDEST DUP2 SLOAD PUSH1 0x1 PUSH1 0x1 PUSH1 0xA0 SHL SUB AND DUP2 MSTORE PUSH1 0x1 SWAP1 SWAP2 ADD SWAP1 PUSH1 0x20 ADD DUP1 DUP4 GT PUSH2 0xFD4 JUMPI JUMPDEST POP POP POP POP POP DUP2 MSTORE PUSH1 0x20 ADD PUSH1 0xA DUP3 ADD DUP1 SLOAD DUP1 PUSH1 0x20 MUL PUSH1 0x20 ADD PUSH1 0x40 MLOAD SWAP1 DUP2 ADD PUSH1 0x40 MSTORE DUP1 SWAP3 SWAP2 SWAP1 DUP2 DUP2 MSTORE PUSH1 0x20 ADD DUP3 DUP1 SLOAD DUP1 ISZERO PUSH2 0x104A JUMPI PUSH1 0x20 MUL DUP3 ADD SWAP2 SWAP1 PUSH1 0x0 MSTORE PUSH1 0x20 PUSH1 0x0 KECCAK256 SWAP1 JUMPDEST DUP2 SLOAD DUP2 MSTORE PUSH1 0x20 ADD SWAP1 PUSH1 0x1 ADD SWAP1 DUP1 DUP4 GT PUSH2 0x1036 JUMPI JUMPDEST POP POP POP POP POP DUP2 MSTORE POP POP DUP4 DUP4 DUP2 MLOAD DUP2 LT PUSH2 0x1065 JUMPI PUSH2 0x1065 PUSH2 0x1D0C JUMP JUMPDEST PUSH1 0x20 MUL PUSH1 0x20 ADD ADD DUP2 SWAP1 MSTORE POP DUP2 DUP1 PUSH2 0x107B SWAP1 PUSH2 0x1CE0 JUMP JUMPDEST SWAP3 POP POP JUMPDEST DUP1 PUSH2 0x1089 DUP2 PUSH2 0x1CE0 JUMP JUMPDEST SWAP2 POP POP PUSH2 0xC4C JUMP JUMPDEST POP SWAP1 SWAP4 SWAP3 POP POP POP JUMP JUMPDEST PUSH1 0x2 PUSH1 0x20 MSTORE PUSH1 0x0 SWAP1 DUP2 MSTORE PUSH1 0x40 SWAP1 KECCAK256 DUP1 SLOAD DUP2 SWAP1 PUSH2 0x10B5 SWAP1 PUSH2 0x1B2E JUMP JUMPDEST DUP1 PUSH1 0x1F ADD PUSH1 0x20 DUP1 SWAP2 DIV MUL PUSH1 0x20 ADD PUSH1 0x40 MLOAD SWAP1 DUP2 ADD PUSH1 0x40 MSTORE DUP1 SWAP3 SWAP2 SWAP1 DUP2 DUP2 MSTORE PUSH1 0x20 ADD DUP3 DUP1 SLOAD PUSH2 0x10E1 SWAP1 PUSH2 0x1B2E JUMP JUMPDEST DUP1 ISZERO PUSH2 0x112E JUMPI DUP1 PUSH1 0x1F LT PUSH2 0x1103 JUMPI PUSH2 0x100 DUP1 DUP4 SLOAD DIV MUL DUP4 MSTORE SWAP2 PUSH1 0x20 ADD SWAP2 PUSH2 0x112E JUMP JUMPDEST DUP3 ADD SWAP2 SWAP1 PUSH1 0x0 MSTORE PUSH1 0x20 PUSH1 0x0 KECCAK256 SWAP1 JUMPDEST DUP2 SLOAD DUP2 MSTORE SWAP1 PUSH1 0x1 ADD SWAP1 PUSH1 0x20 ADD DUP1 DUP4 GT PUSH2 0x1111 JUMPI DUP3 SWAP1 SUB PUSH1 0x1F AND DUP3 ADD SWAP2 JUMPDEST POP POP POP POP PUSH1 0x1 DUP4 ADD SLOAD PUSH1 0x2 SWAP1 SWAP4 ADD SLOAD SWAP2 SWAP3 SWAP2 PUSH1 0x1 PUSH1 0x1 PUSH1 0xA0 SHL SUB AND SWAP1 POP DUP4 JUMP JUMPDEST PUSH1 0x0 PUSH1 0x3 DUP3 PUSH1 0x40 MLOAD PUSH2 0x1160 SWAP2 SWAP1 PUSH2 0x1B68 JUMP JUMPDEST SWAP1 DUP2 MSTORE PUSH1 0x40 MLOAD SWAP1 DUP2 SWAP1 SUB PUSH1 0x20 ADD SWAP1 KECCAK256 SLOAD PUSH1 0x1 PUSH1 0x1 PUSH1 0xA0 SHL SUB AND SWAP3 SWAP2 POP POP JUMP JUMPDEST PUSH1 0x0 DUP1 DUP3 PUSH1 0x40 MLOAD PUSH2 0x1190 SWAP2 SWAP1 PUSH2 0x1B68 JUMP JUMPDEST SWAP1 DUP2 MSTORE PUSH1 0x40 MLOAD SWAP1 DUP2 SWAP1 SUB PUSH1 0x20 ADD SWAP1 KECCAK256 SLOAD PUSH1 0xFF AND SWAP3 SWAP2 POP POP JUMP JUMPDEST PUSH1 0x0 DUP5 PUSH1 0x40 MLOAD PUSH2 0x11B9 SWAP2 SWAP1 PUSH2 0x1B68 JUMP JUMPDEST SWAP1 DUP2 MSTORE PUSH1 0x40 MLOAD SWAP1 DUP2 SWAP1 SUB PUSH1 0x20 ADD SWAP1 KECCAK256 SLOAD PUSH1 0xFF AND ISZERO PUSH2 0x1211 JUMPI PUSH1 0x40 MLOAD PUSH3 0x461BCD PUSH1 0xE5 SHL DUP2 MSTORE PUSH1 0x20 PUSH1 0x4 DUP3 ADD MSTORE PUSH1 0x15 PUSH1 0x24 DUP3 ADD MSTORE PUSH21 0x22B6B0B4B61030B63932B0B23C9032BC34B9BA3997 PUSH1 0x59 SHL PUSH1 0x44 DUP3 ADD MSTORE PUSH1 0x64 ADD PUSH2 0x748 JUMP JUMPDEST PUSH1 0x1 PUSH1 0x1 PUSH1 0xA0 SHL SUB DUP2 AND PUSH1 0x0 SWAP1 DUP2 MSTORE PUSH1 0x1 PUSH1 0x20 MSTORE PUSH1 0x40 SWAP1 KECCAK256 SLOAD PUSH1 0xFF AND ISZERO PUSH2 0x1285 JUMPI PUSH1 0x40 MLOAD PUSH3 0x461BCD PUSH1 0xE5 SHL DUP2 MSTORE PUSH1 0x20 PUSH1 0x4 DUP3 ADD MSTORE PUSH1 0x22 PUSH1 0x24 DUP3 ADD MSTORE PUSH32 0x57616C6C6574206164647265737320616C726561647920726567697374657265 PUSH1 0x44 DUP3 ADD MSTORE PUSH2 0x3217 PUSH1 0xF1 SHL PUSH1 0x64 DUP3 ADD MSTORE PUSH1 0x84 ADD PUSH2 0x748 JUMP JUMPDEST DUP2 PUSH1 0x40 MLOAD PUSH1 0x20 ADD PUSH2 0x1296 SWAP2 SWAP1 PUSH2 0x1B68 JUMP JUMPDEST PUSH1 0x40 MLOAD PUSH1 0x20 DUP2 DUP4 SUB SUB DUP2 MSTORE SWAP1 PUSH1 0x40 MSTORE DUP1 MLOAD SWAP1 PUSH1 0x20 ADD KECCAK256 DUP4 PUSH1 0x40 MLOAD PUSH1 0x20 ADD PUSH2 0x12BD SWAP2 SWAP1 PUSH2 0x1B68 JUMP JUMPDEST PUSH1 0x40 MLOAD PUSH1 0x20 DUP2 DUP4 SUB SUB DUP2 MSTORE SWAP1 PUSH1 0x40 MSTORE DUP1 MLOAD SWAP1 PUSH1 0x20 ADD KECCAK256 EQ PUSH2 0x1320 JUMPI PUSH1 0x40 MLOAD PUSH3 0x461BCD PUSH1 0xE5 SHL DUP2 MSTORE PUSH1 0x20 PUSH1 0x4 DUP3 ADD MSTORE PUSH1 0x17 PUSH1 0x24 DUP3 ADD MSTORE PUSH32 0x50617373776F72647320646F206E6F74206D617463682E000000000000000000 PUSH1 0x44 DUP3 ADD MSTORE PUSH1 0x64 ADD PUSH2 0x748 JUMP JUMPDEST PUSH1 0x0 DUP4 PUSH1 0x40 MLOAD PUSH1 0x20 ADD PUSH2 0x1333 SWAP2 SWAP1 PUSH2 0x1B68 JUMP JUMPDEST PUSH1 0x40 DUP1 MLOAD PUSH1 0x1F NOT DUP2 DUP5 SUB ADD DUP2 MSTORE DUP3 DUP3 MSTORE DUP1 MLOAD PUSH1 0x20 SWAP2 DUP3 ADD KECCAK256 PUSH1 0x60 DUP5 ADD DUP4 MSTORE DUP9 DUP5 MSTORE DUP4 DUP3 ADD DUP2 SWAP1 MSTORE PUSH1 0x1 PUSH1 0x1 PUSH1 0xA0 SHL SUB DUP7 AND DUP5 DUP5 ADD DUP2 SWAP1 MSTORE PUSH1 0x0 SWAP1 DUP2 MSTORE PUSH1 0x2 SWAP1 SWAP3 MSTORE SWAP2 SWAP1 KECCAK256 DUP3 MLOAD SWAP2 SWAP4 POP SWAP1 DUP2 SWAP1 PUSH2 0x1389 SWAP1 DUP3 PUSH2 0x1C20 JUMP JUMPDEST POP PUSH1 0x20 DUP3 ADD MLOAD DUP2 PUSH1 0x1 ADD SSTORE PUSH1 0x40 DUP3 ADD MLOAD DUP2 PUSH1 0x2 ADD PUSH1 0x0 PUSH2 0x100 EXP DUP2 SLOAD DUP2 PUSH1 0x1 PUSH1 0x1 PUSH1 0xA0 SHL SUB MUL NOT AND SWAP1 DUP4 PUSH1 0x1 PUSH1 0x1 PUSH1 0xA0 SHL SUB AND MUL OR SWAP1 SSTORE POP SWAP1 POP POP PUSH1 0x1 PUSH1 0x0 DUP7 PUSH1 0x40 MLOAD PUSH2 0x13D6 SWAP2 SWAP1 PUSH2 0x1B68 JUMP JUMPDEST SWAP1 DUP2 MSTORE PUSH1 0x40 DUP1 MLOAD SWAP2 DUP3 SWAP1 SUB PUSH1 0x20 SWAP1 DUP2 ADD DUP4 KECCAK256 DUP1 SLOAD SWAP5 ISZERO ISZERO PUSH1 0xFF NOT SWAP6 DUP7 AND OR SWAP1 SSTORE PUSH1 0x1 PUSH1 0x1 PUSH1 0xA0 SHL SUB DUP7 AND PUSH1 0x0 SWAP1 DUP2 MSTORE PUSH1 0x1 SWAP2 DUP3 SWAP1 MSTORE SWAP2 SWAP1 SWAP2 KECCAK256 DUP1 SLOAD SWAP1 SWAP4 AND OR SWAP1 SWAP2 SSTORE DUP3 SWAP1 PUSH1 0x3 SWAP1 PUSH2 0x1428 SWAP1 DUP9 SWAP1 PUSH2 0x1B68 JUMP JUMPDEST SWAP1 DUP2 MSTORE PUSH1 0x40 MLOAD SWAP1 DUP2 SWAP1 SUB PUSH1 0x20 ADD SWAP1 KECCAK256 DUP1 SLOAD PUSH1 0x1 PUSH1 0x1 PUSH1 0xA0 SHL SUB SWAP3 SWAP1 SWAP3 AND PUSH1 0x1 PUSH1 0x1 PUSH1 0xA0 SHL SUB NOT SWAP1 SWAP3 AND SWAP2 SWAP1 SWAP2 OR SWAP1 SSTORE PUSH1 0x4 DUP1 SLOAD SWAP1 PUSH1 0x0 PUSH2 0x1467 DUP4 PUSH2 0x1CE0 JUMP JUMPDEST SWAP2 SWAP1 POP SSTORE POP PUSH32 0x48CAC28AD4DC618E15F4C2DD5E97751182F166DE97B25618318B2112AA951A2F DUP3 DUP7 PUSH1 0x40 MLOAD PUSH2 0x149D SWAP3 SWAP2 SWAP1 PUSH2 0x1B84 JUMP JUMPDEST PUSH1 0x40 MLOAD DUP1 SWAP2 SUB SWAP1 LOG1 POP POP POP POP POP JUMP JUMPDEST PUSH1 0x0 PUSH1 0x20 DUP3 DUP5 SUB SLT ISZERO PUSH2 0x14BE JUMPI PUSH1 0x0 DUP1 REVERT JUMPDEST POP CALLDATALOAD SWAP2 SWAP1 POP JUMP JUMPDEST PUSH1 0x40 DUP1 DUP3 MSTORE DUP4 MLOAD SWAP1 DUP3 ADD DUP2 SWAP1 MSTORE PUSH1 0x0 SWAP1 PUSH1 0x20 SWAP1 PUSH1 0x60 DUP5 ADD SWAP1 DUP3 DUP8 ADD DUP5 JUMPDEST DUP3 DUP2 LT ISZERO PUSH2 0x1507 JUMPI DUP2 MLOAD PUSH1 0x1 PUSH1 0x1 PUSH1 0xA0 SHL SUB AND DUP5 MSTORE SWAP3 DUP5 ADD SWAP3 SWAP1 DUP5 ADD SWAP1 PUSH1 0x1 ADD PUSH2 0x14E2 JUMP JUMPDEST POP POP POP DUP4 DUP2 SUB DUP3 DUP6 ADD MSTORE DUP5 MLOAD DUP1 DUP3 MSTORE DUP6 DUP4 ADD SWAP2 DUP4 ADD SWAP1 PUSH1 0x0 JUMPDEST DUP2 DUP2 LT ISZERO PUSH2 0x153C JUMPI DUP4 MLOAD DUP4 MSTORE SWAP3 DUP5 ADD SWAP3 SWAP2 DUP5 ADD SWAP2 PUSH1 0x1 ADD PUSH2 0x1520 JUMP JUMPDEST POP SWAP1 SWAP8 SWAP7 POP POP POP POP POP POP POP JUMP JUMPDEST PUSH1 0x0 JUMPDEST DUP4 DUP2 LT ISZERO PUSH2 0x1564 JUMPI DUP2 DUP2 ADD MLOAD DUP4 DUP3 ADD MSTORE PUSH1 0x20 ADD PUSH2 0x154C JUMP JUMPDEST POP POP PUSH1 0x0 SWAP2 ADD MSTORE JUMP JUMPDEST PUSH1 0x0 DUP2 MLOAD DUP1 DUP5 MSTORE PUSH2 0x1585 DUP2 PUSH1 0x20 DUP7 ADD PUSH1 0x20 DUP7 ADD PUSH2 0x1549 JUMP JUMPDEST PUSH1 0x1F ADD PUSH1 0x1F NOT AND SWAP3 SWAP1 SWAP3 ADD PUSH1 0x20 ADD SWAP3 SWAP2 POP POP JUMP JUMPDEST PUSH1 0x1 PUSH1 0x1 PUSH1 0xA0 SHL SUB DUP11 AND DUP2 MSTORE PUSH2 0x120 PUSH1 0x20 DUP3 ADD DUP2 SWAP1 MSTORE PUSH1 0x0 SWAP1 PUSH2 0x15BE DUP4 DUP3 ADD DUP13 PUSH2 0x156D JUMP JUMPDEST SWAP1 POP DUP3 DUP2 SUB PUSH1 0x40 DUP5 ADD MSTORE PUSH2 0x15D2 DUP2 DUP12 PUSH2 0x156D JUMP JUMPDEST SWAP1 POP DUP9 PUSH1 0x60 DUP5 ADD MSTORE DUP8 PUSH1 0x80 DUP5 ADD MSTORE DUP7 PUSH1 0xA0 DUP5 ADD MSTORE DUP3 DUP2 SUB PUSH1 0xC0 DUP5 ADD MSTORE PUSH2 0x15F8 DUP2 DUP8 PUSH2 0x156D JUMP JUMPDEST SWAP1 POP DUP3 DUP2 SUB PUSH1 0xE0 DUP5 ADD MSTORE PUSH2 0x160C DUP2 DUP7 PUSH2 0x156D JUMP JUMPDEST SWAP1 POP DUP3 DUP2 SUB PUSH2 0x100 DUP5 ADD MSTORE PUSH2 0x1621 DUP2 DUP6 PUSH2 0x156D JUMP JUMPDEST SWAP13 SWAP12 POP POP POP POP POP POP POP POP POP POP POP POP JUMP JUMPDEST PUSH4 0x4E487B71 PUSH1 0xE0 SHL PUSH1 0x0 MSTORE PUSH1 0x41 PUSH1 0x4 MSTORE PUSH1 0x24 PUSH1 0x0 REVERT JUMPDEST PUSH1 0x0 DUP3 PUSH1 0x1F DUP4 ADD SLT PUSH2 0x1658 JUMPI PUSH1 0x0 DUP1 REVERT JUMPDEST DUP2 CALLDATALOAD PUSH8 0xFFFFFFFFFFFFFFFF DUP1 DUP3 GT ISZERO PUSH2 0x1673 JUMPI PUSH2 0x1673 PUSH2 0x1631 JUMP JUMPDEST PUSH1 0x40 MLOAD PUSH1 0x1F DUP4 ADD PUSH1 0x1F NOT SWAP1 DUP2 AND PUSH1 0x3F ADD AND DUP2 ADD SWAP1 DUP3 DUP3 GT DUP2 DUP4 LT OR ISZERO PUSH2 0x169B JUMPI PUSH2 0x169B PUSH2 0x1631 JUMP JUMPDEST DUP2 PUSH1 0x40 MSTORE DUP4 DUP2 MSTORE DUP7 PUSH1 0x20 DUP6 DUP9 ADD ADD GT ISZERO PUSH2 0x16B4 JUMPI PUSH1 0x0 DUP1 REVERT JUMPDEST DUP4 PUSH1 0x20 DUP8 ADD PUSH1 0x20 DUP4 ADD CALLDATACOPY PUSH1 0x0 PUSH1 0x20 DUP6 DUP4 ADD ADD MSTORE DUP1 SWAP5 POP POP POP POP POP SWAP3 SWAP2 POP POP JUMP JUMPDEST PUSH1 0x0 DUP1 PUSH1 0x40 DUP4 DUP6 SUB SLT ISZERO PUSH2 0x16E7 JUMPI PUSH1 0x0 DUP1 REVERT JUMPDEST DUP3 CALLDATALOAD PUSH8 0xFFFFFFFFFFFFFFFF DUP1 DUP3 GT ISZERO PUSH2 0x16FF JUMPI PUSH1 0x0 DUP1 REVERT JUMPDEST PUSH2 0x170B DUP7 DUP4 DUP8 ADD PUSH2 0x1647 JUMP JUMPDEST SWAP4 POP PUSH1 0x20 DUP6 ADD CALLDATALOAD SWAP2 POP DUP1 DUP3 GT ISZERO PUSH2 0x1721 JUMPI PUSH1 0x0 DUP1 REVERT JUMPDEST POP PUSH2 0x172E DUP6 DUP3 DUP7 ADD PUSH2 0x1647 JUMP JUMPDEST SWAP2 POP POP SWAP3 POP SWAP3 SWAP1 POP JUMP JUMPDEST DUP1 CALLDATALOAD PUSH1 0x1 PUSH1 0x1 PUSH1 0xA0 SHL SUB DUP2 AND DUP2 EQ PUSH2 0x174F JUMPI PUSH1 0x0 DUP1 REVERT JUMPDEST SWAP2 SWAP1 POP JUMP JUMPDEST PUSH1 0x0 PUSH1 0x20 DUP3 DUP5 SUB SLT ISZERO PUSH2 0x1766 JUMPI PUSH1 0x0 DUP1 REVERT JUMPDEST PUSH2 0x176F DUP3 PUSH2 0x1738 JUMP JUMPDEST SWAP4 SWAP3 POP POP POP JUMP JUMPDEST PUSH1 0x0 DUP1 PUSH1 0x0 DUP1 PUSH1 0x0 DUP1 PUSH1 0x0 DUP1 PUSH2 0x100 DUP10 DUP12 SUB SLT ISZERO PUSH2 0x1793 JUMPI PUSH1 0x0 DUP1 REVERT JUMPDEST PUSH2 0x179C DUP10 PUSH2 0x1738 JUMP JUMPDEST SWAP8 POP PUSH1 0x20 DUP10 ADD CALLDATALOAD PUSH8 0xFFFFFFFFFFFFFFFF DUP1 DUP3 GT ISZERO PUSH2 0x17B9 JUMPI PUSH1 0x0 DUP1 REVERT JUMPDEST PUSH2 0x17C5 DUP13 DUP4 DUP14 ADD PUSH2 0x1647 JUMP JUMPDEST SWAP9 POP PUSH1 0x40 DUP12 ADD CALLDATALOAD SWAP2 POP DUP1 DUP3 GT ISZERO PUSH2 0x17DB JUMPI PUSH1 0x0 DUP1 REVERT JUMPDEST PUSH2 0x17E7 DUP13 DUP4 DUP14 ADD PUSH2 0x1647 JUMP JUMPDEST SWAP8 POP PUSH1 0x60 DUP12 ADD CALLDATALOAD SWAP7 POP PUSH1 0x80 DUP12 ADD CALLDATALOAD SWAP6 POP PUSH1 0xA0 DUP12 ADD CALLDATALOAD SWAP2 POP DUP1 DUP3 GT ISZERO PUSH2 0x180B JUMPI PUSH1 0x0 DUP1 REVERT JUMPDEST PUSH2 0x1817 DUP13 DUP4 DUP14 ADD PUSH2 0x1647 JUMP JUMPDEST SWAP5 POP PUSH1 0xC0 DUP12 ADD CALLDATALOAD SWAP2 POP DUP1 DUP3 GT ISZERO PUSH2 0x182D JUMPI PUSH1 0x0 DUP1 REVERT JUMPDEST PUSH2 0x1839 DUP13 DUP4 DUP14 ADD PUSH2 0x1647 JUMP JUMPDEST SWAP4 POP PUSH1 0xE0 DUP12 ADD CALLDATALOAD SWAP2 POP DUP1 DUP3 GT ISZERO PUSH2 0x184F JUMPI PUSH1 0x0 DUP1 REVERT JUMPDEST POP PUSH2 0x185C DUP12 DUP3 DUP13 ADD PUSH2 0x1647 JUMP JUMPDEST SWAP2 POP POP SWAP3 SWAP6 SWAP9 POP SWAP3 SWAP6 SWAP9 SWAP1 SWAP4 SWAP7 POP JUMP JUMPDEST PUSH1 0x0 DUP2 MLOAD DUP1 DUP5 MSTORE PUSH1 0x20 DUP1 DUP6 ADD SWAP5 POP DUP1 DUP5 ADD PUSH1 0x0 JUMPDEST DUP4 DUP2 LT ISZERO PUSH2 0x18A5 JUMPI DUP2 MLOAD PUSH1 0x1 PUSH1 0x1 PUSH1 0xA0 SHL SUB AND DUP8 MSTORE SWAP6 DUP3 ADD SWAP6 SWAP1 DUP3 ADD SWAP1 PUSH1 0x1 ADD PUSH2 0x1880 JUMP JUMPDEST POP SWAP5 SWAP6 SWAP5 POP POP POP POP POP JUMP JUMPDEST PUSH1 0x0 DUP2 MLOAD DUP1 DUP5 MSTORE PUSH1 0x20 DUP1 DUP6 ADD SWAP5 POP DUP1 DUP5 ADD PUSH1 0x0 JUMPDEST DUP4 DUP2 LT ISZERO PUSH2 0x18A5 JUMPI DUP2 MLOAD DUP8 MSTORE SWAP6 DUP3 ADD SWAP6 SWAP1 DUP3 ADD SWAP1 PUSH1 0x1 ADD PUSH2 0x18C4 JUMP JUMPDEST PUSH1 0x0 PUSH1 0x20 DUP1 DUP4 ADD DUP2 DUP5 MSTORE DUP1 DUP6 MLOAD DUP1 DUP4 MSTORE PUSH1 0x40 SWAP3 POP DUP3 DUP7 ADD SWAP2 POP DUP3 DUP2 PUSH1 0x5 SHL DUP8 ADD ADD DUP5 DUP9 ADD PUSH1 0x0 JUMPDEST DUP4 DUP2 LT ISZERO PUSH2 0x1A17 JUMPI DUP9 DUP4 SUB PUSH1 0x3F NOT ADD DUP6 MSTORE DUP2 MLOAD DUP1 MLOAD PUSH1 0x1 PUSH1 0x1 PUSH1 0xA0 SHL SUB AND DUP5 MSTORE PUSH2 0x160 DUP9 DUP3 ADD MLOAD DUP2 DUP11 DUP8 ADD MSTORE PUSH2 0x193F DUP3 DUP8 ADD DUP3 PUSH2 0x156D JUMP JUMPDEST SWAP2 POP POP DUP8 DUP3 ADD MLOAD DUP6 DUP3 SUB DUP10 DUP8 ADD MSTORE PUSH2 0x1957 DUP3 DUP3 PUSH2 0x156D JUMP JUMPDEST PUSH1 0x60 DUP5 DUP2 ADD MLOAD SWAP1 DUP9 ADD MSTORE PUSH1 0x80 DUP1 DUP6 ADD MLOAD SWAP1 DUP9 ADD MSTORE PUSH1 0xA0 DUP1 DUP6 ADD MLOAD SWAP1 DUP9 ADD MSTORE PUSH1 0xC0 DUP1 DUP6 ADD MLOAD DUP9 DUP4 SUB DUP3 DUP11 ADD MSTORE SWAP2 SWAP4 POP SWAP2 POP PUSH2 0x1991 DUP4 DUP3 PUSH2 0x156D JUMP JUMPDEST SWAP3 POP POP POP PUSH1 0xE0 DUP1 DUP4 ADD MLOAD DUP7 DUP4 SUB DUP3 DUP9 ADD MSTORE PUSH2 0x19AC DUP4 DUP3 PUSH2 0x156D JUMP JUMPDEST SWAP3 POP POP POP PUSH2 0x100 DUP1 DUP4 ADD MLOAD DUP7 DUP4 SUB DUP3 DUP9 ADD MSTORE PUSH2 0x19C8 DUP4 DUP3 PUSH2 0x156D JUMP JUMPDEST SWAP3 POP POP POP PUSH2 0x120 DUP1 DUP4 ADD MLOAD DUP7 DUP4 SUB DUP3 DUP9 ADD MSTORE PUSH2 0x19E4 DUP4 DUP3 PUSH2 0x186C JUMP JUMPDEST SWAP3 POP POP POP PUSH2 0x140 DUP1 DUP4 ADD MLOAD SWAP3 POP DUP6 DUP3 SUB DUP2 DUP8 ADD MSTORE POP PUSH2 0x1A03 DUP2 DUP4 PUSH2 0x18B0 JUMP JUMPDEST SWAP7 DUP10 ADD SWAP7 SWAP5 POP POP POP SWAP1 DUP7 ADD SWAP1 PUSH1 0x1 ADD PUSH2 0x1907 JUMP JUMPDEST POP SWAP1 SWAP9 SWAP8 POP POP POP POP POP POP POP POP JUMP JUMPDEST PUSH1 0x60 DUP2 MSTORE PUSH1 0x0 PUSH2 0x1A38 PUSH1 0x60 DUP4 ADD DUP7 PUSH2 0x156D JUMP JUMPDEST PUSH1 0x20 DUP4 ADD SWAP5 SWAP1 SWAP5 MSTORE POP PUSH1 0x1 PUSH1 0x1 PUSH1 0xA0 SHL SUB SWAP2 SWAP1 SWAP2 AND PUSH1 0x40 SWAP1 SWAP2 ADD MSTORE SWAP2 SWAP1 POP JUMP JUMPDEST PUSH1 0x0 PUSH1 0x20 DUP3 DUP5 SUB SLT ISZERO PUSH2 0x1A6A JUMPI PUSH1 0x0 DUP1 REVERT JUMPDEST DUP2 CALLDATALOAD PUSH8 0xFFFFFFFFFFFFFFFF DUP2 GT ISZERO PUSH2 0x1A81 JUMPI PUSH1 0x0 DUP1 REVERT JUMPDEST PUSH2 0x1A8D DUP5 DUP3 DUP6 ADD PUSH2 0x1647 JUMP JUMPDEST SWAP5 SWAP4 POP POP POP POP JUMP JUMPDEST PUSH1 0x0 DUP1 PUSH1 0x0 DUP1 PUSH1 0x80 DUP6 DUP8 SUB SLT ISZERO PUSH2 0x1AAB JUMPI PUSH1 0x0 DUP1 REVERT JUMPDEST DUP5 CALLDATALOAD PUSH8 0xFFFFFFFFFFFFFFFF DUP1 DUP3 GT ISZERO PUSH2 0x1AC3 JUMPI PUSH1 0x0 DUP1 REVERT JUMPDEST PUSH2 0x1ACF DUP9 DUP4 DUP10 ADD PUSH2 0x1647 JUMP JUMPDEST SWAP6 POP PUSH1 0x20 DUP8 ADD CALLDATALOAD SWAP2 POP DUP1 DUP3 GT ISZERO PUSH2 0x1AE5 JUMPI PUSH1 0x0 DUP1 REVERT JUMPDEST PUSH2 0x1AF1 DUP9 DUP4 DUP10 ADD PUSH2 0x1647 JUMP JUMPDEST SWAP5 POP PUSH1 0x40 DUP8 ADD CALLDATALOAD SWAP2 POP DUP1 DUP3 GT ISZERO PUSH2 0x1B07 JUMPI PUSH1 0x0 DUP1 REVERT JUMPDEST POP PUSH2 0x1B14 DUP8 DUP3 DUP9 ADD PUSH2 0x1647 JUMP JUMPDEST SWAP3 POP POP PUSH2 0x1B23 PUSH1 0x60 DUP7 ADD PUSH2 0x1738 JUMP JUMPDEST SWAP1 POP SWAP3 SWAP6 SWAP2 SWAP5 POP SWAP3 POP JUMP JUMPDEST PUSH1 0x1 DUP2 DUP2 SHR SWAP1 DUP3 AND DUP1 PUSH2 0x1B42 JUMPI PUSH1 0x7F DUP3 AND SWAP2 POP JUMPDEST PUSH1 0x20 DUP3 LT DUP2 SUB PUSH2 0x1B62 JUMPI PUSH4 0x4E487B71 PUSH1 0xE0 SHL PUSH1 0x0 MSTORE PUSH1 0x22 PUSH1 0x4 MSTORE PUSH1 0x24 PUSH1 0x0 REVERT JUMPDEST POP SWAP2 SWAP1 POP JUMP JUMPDEST PUSH1 0x0 DUP3 MLOAD PUSH2 0x1B7A DUP2 DUP5 PUSH1 0x20 DUP8 ADD PUSH2 0x1549 JUMP JUMPDEST SWAP2 SWAP1 SWAP2 ADD SWAP3 SWAP2 POP POP JUMP JUMPDEST PUSH1 0x1 PUSH1 0x1 PUSH1 0xA0 SHL SUB DUP4 AND DUP2 MSTORE PUSH1 0x40 PUSH1 0x20 DUP3 ADD DUP2 SWAP1 MSTORE PUSH1 0x0 SWAP1 PUSH2 0x1A8D SWAP1 DUP4 ADD DUP5 PUSH2 0x156D JUMP JUMPDEST PUSH4 0x4E487B71 PUSH1 0xE0 SHL PUSH1 0x0 MSTORE PUSH1 0x11 PUSH1 0x4 MSTORE PUSH1 0x24 PUSH1 0x0 REVERT JUMPDEST DUP1 DUP3 ADD DUP1 DUP3 GT ISZERO PUSH2 0x8D4 JUMPI PUSH2 0x8D4 PUSH2 0x1BA8 JUMP JUMPDEST PUSH1 0x1F DUP3 GT ISZERO PUSH2 0x1C1B JUMPI PUSH1 0x0 DUP2 DUP2 MSTORE PUSH1 0x20 DUP2 KECCAK256 PUSH1 0x1F DUP6 ADD PUSH1 0x5 SHR DUP2 ADD PUSH1 0x20 DUP7 LT ISZERO PUSH2 0x1BF8 JUMPI POP DUP1 JUMPDEST PUSH1 0x1F DUP6 ADD PUSH1 0x5 SHR DUP3 ADD SWAP2 POP JUMPDEST DUP2 DUP2 LT ISZERO PUSH2 0x1C17 JUMPI DUP3 DUP2 SSTORE PUSH1 0x1 ADD PUSH2 0x1C04 JUMP JUMPDEST POP POP POP JUMPDEST POP POP POP JUMP JUMPDEST DUP2 MLOAD PUSH8 0xFFFFFFFFFFFFFFFF DUP2 GT ISZERO PUSH2 0x1C3A JUMPI PUSH2 0x1C3A PUSH2 0x1631 JUMP JUMPDEST PUSH2 0x1C4E DUP2 PUSH2 0x1C48 DUP5 SLOAD PUSH2 0x1B2E JUMP JUMPDEST DUP5 PUSH2 0x1BD1 JUMP JUMPDEST PUSH1 0x20 DUP1 PUSH1 0x1F DUP4 GT PUSH1 0x1 DUP2 EQ PUSH2 0x1C83 JUMPI PUSH1 0x0 DUP5 ISZERO PUSH2 0x1C6B JUMPI POP DUP6 DUP4 ADD MLOAD JUMPDEST PUSH1 0x0 NOT PUSH1 0x3 DUP7 SWAP1 SHL SHR NOT AND PUSH1 0x1 DUP6 SWAP1 SHL OR DUP6 SSTORE PUSH2 0x1C17 JUMP JUMPDEST PUSH1 0x0 DUP6 DUP2 MSTORE PUSH1 0x20 DUP2 KECCAK256 PUSH1 0x1F NOT DUP7 AND SWAP2 JUMPDEST DUP3 DUP2 LT ISZERO PUSH2 0x1CB2 JUMPI DUP9 DUP7 ADD MLOAD DUP3 SSTORE SWAP5 DUP5 ADD SWAP5 PUSH1 0x1 SWAP1 SWAP2 ADD SWAP1 DUP5 ADD PUSH2 0x1C93 JUMP JUMPDEST POP DUP6 DUP3 LT ISZERO PUSH2 0x1CD0 JUMPI DUP8 DUP6 ADD MLOAD PUSH1 0x0 NOT PUSH1 0x3 DUP9 SWAP1 SHL PUSH1 0xF8 AND SHR NOT AND DUP2 SSTORE JUMPDEST POP POP POP POP POP PUSH1 0x1 SWAP1 DUP2 SHL ADD SWAP1 SSTORE POP JUMP JUMPDEST PUSH1 0x0 PUSH1 0x1 DUP3 ADD PUSH2 0x1CF2 JUMPI PUSH2 0x1CF2 PUSH2 0x1BA8 JUMP JUMPDEST POP PUSH1 0x1 ADD SWAP1 JUMP JUMPDEST DUP2 DUP2 SUB DUP2 DUP2 GT ISZERO PUSH2 0x8D4 JUMPI PUSH2 0x8D4 PUSH2 0x1BA8 JUMP JUMPDEST PUSH4 0x4E487B71 PUSH1 0xE0 SHL PUSH1 0x0 MSTORE PUSH1 0x32 PUSH1 0x4 MSTORE PUSH1 0x24 PUSH1 0x0 REVERT INVALID LOG2 PUSH5 0x6970667358 0x22 SLT KECCAK256 0xCC 0xBB 0xBB 0xDD 0xBC BYTE MOD DIV 0x1E MOD SLOAD 0xC3 JUMP 0xF9 0xB9 0x4A ADD 0xF9 CALLDATALOAD 0x25 0xD5 CALLDATACOPY 0xF9 LOG3 0xD3 0x4C 0xC9 0x2C 0x28 0xEF DUP3 0x23 PUSH5 0x736F6C6343 STOP ADDMOD GT STOP CALLER "},"methodIdentifiers":{"campaigns(uint256)":"141961bc","createCampaign(address,string,string,uint256,uint256,string,string,string)":"61620866","donateToCampaign(uint256)":"42a4fda8","emailToAddress(string)":"ea78dcbf","getAddressByEmail(string)":"c5caea01","getCampaigns()":"a6b03633","getDonators(uint256)":"0fa91fa9","isAddressRegistered(address)":"38b6a3a1","isEmailRegistered(string)":"df3cdad7","numberOfCampaigns()":"07ca140d","registerUser(string,string,string,address)":"fd3c9952","signIn(string,string)":"2c162dbc","userCount()":"07973ccf","users(address)":"a87430ba"}}}}}