{"contracts/CloudFunding.sol":{"CloudFunding":{"abi":[{"inputs":[],"stateMutability":"nonpayable","type":"constructor"},{"anonymous":false,"inputs":[{"indexed":false,"internalType":"address","name":"walletAddress","type":"address"},{"indexed":false,"internalType":"string","name":"emailId","type":"string"}],"name":"UserLoggedIn","type":"event"},{"anonymous":false,"inputs":[{"indexed":false,"internalType":"address","name":"walletAddress","type":"address"},{"indexed":false,"internalType":"string","name":"emailId","type":"string"}],"name":"UserRegistered","type":"event"},{"inputs":[{"internalType":"uint256","name":"","type":"uint256"}],"name":"campaigns","outputs":[{"internalType":"address","name":"owner","type":"address"},{"internalType":"string","name":"title","type":"string"},{"internalType":"string","name":"description","type":"string"},{"internalType":"uint256","name":"target","type":"uint256"},{"internalType":"uint256","name":"deadline","type":"uint256"},{"internalType":"uint256","name":"amountCollected","type":"uint256"},{"internalType":"string","name":"image","type":"string"},{"internalType":"string","name":"campaigntype","type":"string"},{"internalType":"string","name":"documentlink","type":"string"}],"stateMutability":"view","type":"function"},{"inputs":[{"internalType":"address","name":"_owner","type":"address"},{"internalType":"string","name":"_title","type":"string"},{"internalType":"string","name":"_description","type":"string"},{"internalType":"uint256","name":"_target","type":"uint256"},{"internalType":"uint256","name":"_deadline","type":"uint256"},{"internalType":"string","name":"_image","type":"string"},{"internalType":"string","name":"_campaigntype","type":"string"},{"internalType":"string","name":"_documentlink","type":"string"}],"name":"createCampaign","outputs":[{"internalType":"uint256","name":"","type":"uint256"}],"stateMutability":"nonpayable","type":"function"},{"inputs":[{"internalType":"uint256","name":"_id","type":"uint256"}],"name":"donateToCampaign","outputs":[],"stateMutability":"payable","type":"function"},{"inputs":[{"internalType":"string","name":"","type":"string"}],"name":"emailToAddress","outputs":[{"internalType":"address","name":"","type":"address"}],"stateMutability":"view","type":"function"},{"inputs":[{"internalType":"string","name":"emailId","type":"string"}],"name":"getAddressByEmail","outputs":[{"internalType":"address","name":"","type":"address"}],"stateMutability":"view","type":"function"},{"inputs":[],"name":"getCampaigns","outputs":[{"components":[{"internalType":"address","name":"owner","type":"address"},{"internalType":"string","name":"title","type":"string"},{"internalType":"string","name":"description","type":"string"},{"internalType":"uint256","name":"target","type":"uint256"},{"internalType":"uint256","name":"deadline","type":"uint256"},{"internalType":"uint256","name":"amountCollected","type":"uint256"},{"internalType":"string","name":"image","type":"string"},{"internalType":"string","name":"campaigntype","type":"string"},{"internalType":"string","name":"documentlink","type":"string"},{"internalType":"address[]","name":"donators","type":"address[]"},{"internalType":"uint256[]","name":"donations","type":"uint256[]"}],"internalType":"struct CloudFunding.Campaign[]","name":"","type":"tuple[]"}],"stateMutability":"view","type":"function"},{"inputs":[{"internalType":"uint256","name":"_id","type":"uint256"}],"name":"getDonators","outputs":[{"internalType":"address[]","name":"","type":"address[]"},{"internalType":"uint256[]","name":"","type":"uint256[]"}],"stateMutability":"view","type":"function"},{"inputs":[{"internalType":"address","name":"walletAddress","type":"address"}],"name":"isAddressRegistered","outputs":[{"internalType":"bool","name":"","type":"bool"}],"stateMutability":"view","type":"function"},{"inputs":[{"internalType":"string","name":"emailId","type":"string"}],"name":"isEmailRegistered","outputs":[{"internalType":"bool","name":"","type":"bool"}],"stateMutability":"view","type":"function"},{"inputs":[],"name":"numberOfCampaigns","outputs":[{"internalType":"uint256","name":"","type":"uint256"}],"stateMutability":"view","type":"function"},{"inputs":[{"internalType":"string","name":"emailId","type":"string"},{"internalType":"string","name":"password","type":"string"},{"internalType":"string","name":"confirmPassword","type":"string"},{"internalType":"address","name":"walletAddress","type":"address"}],"name":"registerUser","outputs":[],"stateMutability":"nonpayable","type":"function"},{"inputs":[{"internalType":"string","name":"emailId","type":"string"},{"internalType":"string","name":"password","type":"string"}],"name":"signIn","outputs":[{"internalType":"bool","name":"","type":"bool"}],"stateMutability":"nonpayable","type":"function"},{"inputs":[],"name":"userCount","outputs":[{"internalType":"uint256","name":"","type":"uint256"}],"stateMutability":"view","type":"function"},{"inputs":[{"internalType":"address","name":"","type":"address"}],"name":"users","outputs":[{"internalType":"string","name":"emailId","type":"string"},{"internalType":"bytes32","name":"hashedPassword","type":"bytes32"},{"internalType":"address","name":"walletAddress","type":"address"}],"stateMutability":"view","type":"function"}],"evm":{"bytecode":{"linkReferences":{},"object":"6080604052600060065534801561001557600080fd5b506000600455611cd68061002a6000396000f3fe6080604052600436106100dd5760003560e01c8063616208661161007f578063c5caea0111610059578063c5caea0114610273578063df3cdad7146102ab578063ea78dcbf146102cb578063fd3c99521461030c57600080fd5b80636162086614610202578063a6b0363314610222578063a87430ba1461024457600080fd5b8063141961bc116100bb578063141961bc1461014f5780632c162dbc1461018457806338b6a3a1146101b457806342a4fda8146101ed57600080fd5b806307973ccf146100e257806307ca140d1461010b5780630fa91fa914610121575b600080fd5b3480156100ee57600080fd5b506100f860045481565b6040519081526020015b60405180910390f35b34801561011757600080fd5b506100f860065481565b34801561012d57600080fd5b5061014161013c36600461142a565b61032c565b604051610102929190611443565b34801561015b57600080fd5b5061016f61016a36600461142a565b6103fd565b60405161010299989796959493929190611517565b34801561019057600080fd5b506101a461019f366004611652565b6106f6565b6040519015158152602001610102565b3480156101c057600080fd5b506101a46101cf3660046116d2565b6001600160a01b031660009081526001602052604090205460ff1690565b6102006101fb36600461142a565b6108da565b005b34801561020e57600080fd5b506100f861021d3660046116f4565b61099e565b34801561022e57600080fd5b50610237610ac2565b604051610102919061185e565b34801561025057600080fd5b5061026461025f3660046116d2565b611018565b604051610102939291906119a3565b34801561027f57600080fd5b5061029361028e3660046119d6565b6110cc565b6040516001600160a01b039091168152602001610102565b3480156102b757600080fd5b506101a46102c63660046119d6565b6110fd565b3480156102d757600080fd5b506102936102e63660046119d6565b80516020818301810180516003825292820191909301209152546001600160a01b031681565b34801561031857600080fd5b50610200610327366004611a13565b611127565b60008181526005602090815260409182902060098101805484518185028101850190955280855260609485949293600a01929091849183018282801561039b57602002820191906000526020600020905b81546001600160a01b0316815260019091019060200180831161037d575b50505050509150808054806020026020016040519081016040528092919081815260200182805480156103ed57602002820191906000526020600020905b8154815260200190600101908083116103d9575b5050505050905091509150915091565b600560205260009081526040902080546001820180546001600160a01b03909216929161042990611aac565b80601f016020809104026020016040519081016040528092919081815260200182805461045590611aac565b80156104a25780601f10610477576101008083540402835291602001916104a2565b820191906000526020600020905b81548152906001019060200180831161048557829003601f168201915b5050505050908060020180546104b790611aac565b80601f01602080910402602001604051908101604052809291908181526020018280546104e390611aac565b80156105305780601f1061050557610100808354040283529160200191610530565b820191906000526020600020905b81548152906001019060200180831161051357829003601f168201915b50505050509080600301549080600401549080600501549080600601805461055790611aac565b80601f016020809104026020016040519081016040528092919081815260200182805461058390611aac565b80156105d05780601f106105a5576101008083540402835291602001916105d0565b820191906000526020600020905b8154815290600101906020018083116105b357829003601f168201915b5050505050908060070180546105e590611aac565b80601f016020809104026020016040519081016040528092919081815260200182805461061190611aac565b801561065e5780601f106106335761010080835404028352916020019161065e565b820191906000526020600020905b81548152906001019060200180831161064157829003601f168201915b50505050509080600801805461067390611aac565b80601f016020809104026020016040519081016040528092919081815260200182805461069f90611aac565b80156106ec5780601f106106c1576101008083540402835291602001916106ec565b820191906000526020600020905b8154815290600101906020018083116106cf57829003601f168201915b5050505050905089565b600080610702846110cc565b90506001600160a01b0381166107515760405162461bcd60e51b815260206004820152600f60248201526e2ab9b2b9103737ba103337bab7321760891b60448201526064015b60405180910390fd5b6001600160a01b03811660009081526002602052604080822081516060810190925280548290829061078290611aac565b80601f01602080910402602001604051908101604052809291908181526020018280546107ae90611aac565b80156107fb5780601f106107d0576101008083540402835291602001916107fb565b820191906000526020600020905b8154815290600101906020018083116107de57829003601f168201915b505050918352505060018201546020808301919091526002909201546001600160a01b03166040918201525191925061083691869101611ae6565b604051602081830303815290604052805190602001208160200151146108945760405162461bcd60e51b815260206004820152601360248201527224b731b7b93932b1ba103830b9b9bbb7b9321760691b6044820152606401610748565b7ffd7a49bf0be38d61ec3404f450519a68eb8bdd1edb8729b6c5f8c139e9dafeaf82866040516108c5929190611b02565b60405180910390a16001925050505b92915050565b6000818152600560209081526040808320600981018054600180820183559186528486200180546001600160a01b03191633179055600a8201805491820181558552928420349301839055805491519293909290916001600160a01b03169084908381818185875af1925050503d8060008114610973576040519150601f19603f3d011682016040523d82523d6000602084013e610978565b606091505b505090508015610998578282600501546109929190611b3c565b60058301555b50505050565b600654600090815260056020526040812060048101544211610a175760405162461bcd60e51b815260206004820152602c60248201527f54686520646561646c696e652073686f756c642062652061206461746520696e60448201526b103a343290333aba3ab9329760a11b6064820152608401610748565b80546001600160a01b0319166001600160a01b038b1617815560018101610a3e8a82611b9e565b5060028101610a4d8982611b9e565b5060038101879055600481018690556000600582015560068101610a718682611b9e565b5060078101610a808582611b9e565b5060088101610a8f8482611b9e565b5060068054906000610aa083611c5e565b91905055506001600654610ab49190611c77565b9a9950505050505050505050565b60606000805b600654811015610b10576000818152600560205260409020546001600160a01b03163314610afe5781610afa81611c5e565b9250505b80610b0881611c5e565b915050610ac8565b5060008167ffffffffffffffff811115610b2c57610b2c6115af565b604051908082528060200260200182016040528015610bc357816020015b610bb060405180610160016040528060006001600160a01b03168152602001606081526020016060815260200160008152602001600081526020016000815260200160608152602001606081526020016060815260200160608152602001606081525090565b815260200190600190039081610b4a5790505b5090506000805b60065481101561100f576000818152600560205260409020546001600160a01b03163314610ffd576000818152600560209081526040918290208251610160810190935280546001600160a01b031683526001810180549192840191610c2f90611aac565b80601f0160208091040260200160405190810160405280929190818152602001828054610c5b90611aac565b8015610ca85780601f10610c7d57610100808354040283529160200191610ca8565b820191906000526020600020905b815481529060010190602001808311610c8b57829003601f168201915b50505050508152602001600282018054610cc190611aac565b80601f0160208091040260200160405190810160405280929190818152602001828054610ced90611aac565b8015610d3a5780601f10610d0f57610100808354040283529160200191610d3a565b820191906000526020600020905b815481529060010190602001808311610d1d57829003601f168201915b50505050508152602001600382015481526020016004820154815260200160058201548152602001600682018054610d7190611aac565b80601f0160208091040260200160405190810160405280929190818152602001828054610d9d90611aac565b8015610dea5780601f10610dbf57610100808354040283529160200191610dea565b820191906000526020600020905b815481529060010190602001808311610dcd57829003601f168201915b50505050508152602001600782018054610e0390611aac565b80601f0160208091040260200160405190810160405280929190818152602001828054610e2f90611aac565b8015610e7c5780601f10610e5157610100808354040283529160200191610e7c565b820191906000526020600020905b815481529060010190602001808311610e5f57829003601f168201915b50505050508152602001600882018054610e9590611aac565b80601f0160208091040260200160405190810160405280929190818152602001828054610ec190611aac565b8015610f0e5780601f10610ee357610100808354040283529160200191610f0e565b820191906000526020600020905b815481529060010190602001808311610ef157829003601f168201915b5050505050815260200160098201805480602002602001604051908101604052809291908181526020018280548015610f7057602002820191906000526020600020905b81546001600160a01b03168152600190910190602001808311610f52575b50505050508152602001600a8201805480602002602001604051908101604052809291908181526020018280548015610fc857602002820191906000526020600020905b815481526020019060010190808311610fb4575b505050505081525050838381518110610fe357610fe3611c8a565b60200260200101819052508180610ff990611c5e565b9250505b8061100781611c5e565b915050610bca565b50909392505050565b60026020526000908152604090208054819061103390611aac565b80601f016020809104026020016040519081016040528092919081815260200182805461105f90611aac565b80156110ac5780601f10611081576101008083540402835291602001916110ac565b820191906000526020600020905b81548152906001019060200180831161108f57829003601f168201915b5050505060018301546002909301549192916001600160a01b0316905083565b60006003826040516110de9190611ae6565b908152604051908190036020019020546001600160a01b031692915050565b6000808260405161110e9190611ae6565b9081526040519081900360200190205460ff1692915050565b6000846040516111379190611ae6565b9081526040519081900360200190205460ff161561118f5760405162461bcd60e51b815260206004820152601560248201527422b6b0b4b61030b63932b0b23c9032bc34b9ba399760591b6044820152606401610748565b6001600160a01b03811660009081526001602052604090205460ff16156112035760405162461bcd60e51b815260206004820152602260248201527f57616c6c6574206164647265737320616c726561647920726567697374657265604482015261321760f11b6064820152608401610748565b816040516020016112149190611ae6565b604051602081830303815290604052805190602001208360405160200161123b9190611ae6565b604051602081830303815290604052805190602001201461129e5760405162461bcd60e51b815260206004820152601760248201527f50617373776f72647320646f206e6f74206d617463682e0000000000000000006044820152606401610748565b6000836040516020016112b19190611ae6565b60408051601f1981840301815282825280516020918201206060840183528884528382018190526001600160a01b0386168484018190526000908152600290925291902082519193509081906113079082611b9e565b506020820151816001015560408201518160020160006101000a8154816001600160a01b0302191690836001600160a01b0316021790555090505060016000866040516113549190611ae6565b908152604080519182900360209081018320805494151560ff199586161790556001600160a01b03861660009081526001918290529190912080549093161790915582906003906113a6908890611ae6565b90815260405190819003602001902080546001600160a01b03929092166001600160a01b0319909216919091179055600480549060006113e583611c5e565b91905055507f48cac28ad4dc618e15f4c2dd5e97751182f166de97b25618318b2112aa951a2f828660405161141b929190611b02565b60405180910390a15050505050565b60006020828403121561143c57600080fd5b5035919050565b604080825283519082018190526000906020906060840190828701845b828110156114855781516001600160a01b031684529284019290840190600101611460565b5050508381038285015284518082528583019183019060005b818110156114ba5783518352928401929184019160010161149e565b5090979650505050505050565b60005b838110156114e25781810151838201526020016114ca565b50506000910152565b600081518084526115038160208601602086016114c7565b601f01601f19169290920160200192915050565b6001600160a01b038a1681526101206020820181905260009061153c8382018c6114eb565b90508281036040840152611550818b6114eb565b90508860608401528760808401528660a084015282810360c084015261157681876114eb565b905082810360e084015261158a81866114eb565b905082810361010084015261159f81856114eb565b9c9b505050505050505050505050565b634e487b7160e01b600052604160045260246000fd5b600082601f8301126115d657600080fd5b813567ffffffffffffffff808211156115f1576115f16115af565b604051601f8301601f19908116603f01168101908282118183101715611619576116196115af565b8160405283815286602085880101111561163257600080fd5b836020870160208301376000602085830101528094505050505092915050565b6000806040838503121561166557600080fd5b823567ffffffffffffffff8082111561167d57600080fd5b611689868387016115c5565b9350602085013591508082111561169f57600080fd5b506116ac858286016115c5565b9150509250929050565b80356001600160a01b03811681146116cd57600080fd5b919050565b6000602082840312156116e457600080fd5b6116ed826116b6565b9392505050565b600080600080600080600080610100898b03121561171157600080fd5b61171a896116b6565b9750602089013567ffffffffffffffff8082111561173757600080fd5b6117438c838d016115c5565b985060408b013591508082111561175957600080fd5b6117658c838d016115c5565b975060608b0135965060808b0135955060a08b013591508082111561178957600080fd5b6117958c838d016115c5565b945060c08b01359150808211156117ab57600080fd5b6117b78c838d016115c5565b935060e08b01359150808211156117cd57600080fd5b506117da8b828c016115c5565b9150509295985092959890939650565b600081518084526020808501945080840160005b838110156118235781516001600160a01b0316875295820195908201906001016117fe565b509495945050505050565b600081518084526020808501945080840160005b8381101561182357815187529582019590820190600101611842565b60006020808301818452808551808352604092508286019150828160051b87010184880160005b8381101561199557888303603f19018552815180516001600160a01b0316845261016088820151818a8701526118bd828701826114eb565b91505087820151858203898701526118d582826114eb565b606084810151908801526080808501519088015260a0808501519088015260c080850151888303828a0152919350915061190f83826114eb565b9250505060e0808301518683038288015261192a83826114eb565b92505050610100808301518683038288015261194683826114eb565b92505050610120808301518683038288015261196283826117ea565b925050506101408083015192508582038187015250611981818361182e565b968901969450505090860190600101611885565b509098975050505050505050565b6060815260006119b660608301866114eb565b6020830194909452506001600160a01b0391909116604090910152919050565b6000602082840312156119e857600080fd5b813567ffffffffffffffff8111156119ff57600080fd5b611a0b848285016115c5565b949350505050565b60008060008060808587031215611a2957600080fd5b843567ffffffffffffffff80821115611a4157600080fd5b611a4d888389016115c5565b95506020870135915080821115611a6357600080fd5b611a6f888389016115c5565b94506040870135915080821115611a8557600080fd5b50611a92878288016115c5565b925050611aa1606086016116b6565b905092959194509250565b600181811c90821680611ac057607f821691505b602082108103611ae057634e487b7160e01b600052602260045260246000fd5b50919050565b60008251611af88184602087016114c7565b9190910192915050565b6001600160a01b0383168152604060208201819052600090611a0b908301846114eb565b634e487b7160e01b600052601160045260246000fd5b808201808211156108d4576108d4611b26565b601f821115611b9957600081815260208120601f850160051c81016020861015611b765750805b601f850160051c820191505b81811015611b9557828155600101611b82565b5050505b505050565b815167ffffffffffffffff811115611bb857611bb86115af565b611bcc81611bc68454611aac565b84611b4f565b602080601f831160018114611c015760008415611be95750858301515b600019600386901b1c1916600185901b178555611b95565b600085815260208120601f198616915b82811015611c3057888601518255948401946001909101908401611c11565b5085821015611c4e5787850151600019600388901b60f8161c191681555b5050505050600190811b01905550565b600060018201611c7057611c70611b26565b5060010190565b818103818111156108d4576108d4611b26565b634e487b7160e01b600052603260045260246000fdfea2646970667358221220ebcef9470bb8acfbe79b6a1fbd2f2ce34699ff8e47b5a79df014f55b168a9d5164736f6c63430008110033","opcodes":"PUSH1 0x80 PUSH1 0x40 MSTORE PUSH1 0x0 PUSH1 0x6 SSTORE CALLVALUE DUP1 ISZERO PUSH2 0x15 JUMPI PUSH1 0x0 DUP1 REVERT JUMPDEST POP PUSH1 0x0 PUSH1 0x4 SSTORE PUSH2 0x1CD6 DUP1 PUSH2 0x2A PUSH1 0x0 CODECOPY PUSH1 0x0 RETURN INVALID PUSH1 0x80 PUSH1 0x40 MSTORE PUSH1 0x4 CALLDATASIZE LT PUSH2 0xDD JUMPI PUSH1 0x0 CALLDATALOAD PUSH1 0xE0 SHR DUP1 PUSH4 0x61620866 GT PUSH2 0x7F JUMPI DUP1 PUSH4 0xC5CAEA01 GT PUSH2 0x59 JUMPI DUP1 PUSH4 0xC5CAEA01 EQ PUSH2 0x273 JUMPI DUP1 PUSH4 0xDF3CDAD7 EQ PUSH2 0x2AB JUMPI DUP1 PUSH4 0xEA78DCBF EQ PUSH2 0x2CB JUMPI DUP1 PUSH4 0xFD3C9952 EQ PUSH2 0x30C JUMPI PUSH1 0x0 DUP1 REVERT JUMPDEST DUP1 PUSH4 0x61620866 EQ PUSH2 0x202 JUMPI DUP1 PUSH4 0xA6B03633 EQ PUSH2 0x222 JUMPI DUP1 PUSH4 0xA87430BA EQ PUSH2 0x244 JUMPI PUSH1 0x0 DUP1 REVERT JUMPDEST DUP1 PUSH4 0x141961BC GT PUSH2 0xBB JUMPI DUP1 PUSH4 0x141961BC EQ PUSH2 0x14F JUMPI DUP1 PUSH4 0x2C162DBC EQ PUSH2 0x184 JUMPI DUP1 PUSH4 0x38B6A3A1 EQ PUSH2 0x1B4 JUMPI DUP1 PUSH4 0x42A4FDA8 EQ PUSH2 0x1ED JUMPI PUSH1 0x0 DUP1 REVERT JUMPDEST DUP1 PUSH4 0x7973CCF EQ PUSH2 0xE2 JUMPI DUP1 PUSH4 0x7CA140D EQ PUSH2 0x10B JUMPI DUP1 PUSH4 0xFA91FA9 EQ PUSH2 0x121 JUMPI JUMPDEST PUSH1 0x0 DUP1 REVERT JUMPDEST CALLVALUE DUP1 ISZERO PUSH2 0xEE JUMPI PUSH1 0x0 DUP1 REVERT JUMPDEST POP PUSH2 0xF8 PUSH1 0x4 SLOAD DUP2 JUMP JUMPDEST PUSH1 0x40 MLOAD SWAP1 DUP2 MSTORE PUSH1 0x20 ADD JUMPDEST PUSH1 0x40 MLOAD DUP1 SWAP2 SUB SWAP1 RETURN JUMPDEST CALLVALUE DUP1 ISZERO PUSH2 0x117 JUMPI PUSH1 0x0 DUP1 REVERT JUMPDEST POP PUSH2 0xF8 PUSH1 0x6 SLOAD DUP2 JUMP JUMPDEST CALLVALUE DUP1 ISZERO PUSH2 0x12D JUMPI PUSH1 0x0 DUP1 REVERT JUMPDEST POP PUSH2 0x141 PUSH2 0x13C CALLDATASIZE PUSH1 0x4 PUSH2 0x142A JUMP JUMPDEST PUSH2 0x32C JUMP JUMPDEST PUSH1 0x40 MLOAD PUSH2 0x102 SWAP3 SWAP2 SWAP1 PUSH2 0x1443 JUMP JUMPDEST CALLVALUE DUP1 ISZERO PUSH2 0x15B JUMPI PUSH1 0x0 DUP1 REVERT JUMPDEST POP PUSH2 0x16F PUSH2 0x16A CALLDATASIZE PUSH1 0x4 PUSH2 0x142A JUMP JUMPDEST PUSH2 0x3FD JUMP JUMPDEST PUSH1 0x40 MLOAD PUSH2 0x102 SWAP10 SWAP9 SWAP8 SWAP7 SWAP6 SWAP5 SWAP4 SWAP3 SWAP2 SWAP1 PUSH2 0x1517 JUMP JUMPDEST CALLVALUE DUP1 ISZERO PUSH2 0x190 JUMPI PUSH1 0x0 DUP1 REVERT JUMPDEST POP PUSH2 0x1A4 PUSH2 0x19F CALLDATASIZE PUSH1 0x4 PUSH2 0x1652 JUMP JUMPDEST PUSH2 0x6F6 JUMP JUMPDEST PUSH1 0x40 MLOAD SWAP1 ISZERO ISZERO DUP2 MSTORE PUSH1 0x20 ADD PUSH2 0x102 JUMP JUMPDEST CALLVALUE DUP1 ISZERO PUSH2 0x1C0 JUMPI PUSH1 0x0 DUP1 REVERT JUMPDEST POP PUSH2 0x1A4 PUSH2 0x1CF CALLDATASIZE PUSH1 0x4 PUSH2 0x16D2 JUMP JUMPDEST PUSH1 0x1 PUSH1 0x1 PUSH1 0xA0 SHL SUB AND PUSH1 0x0 SWAP1 DUP2 MSTORE PUSH1 0x1 PUSH1 0x20 MSTORE PUSH1 0x40 SWAP1 KECCAK256 SLOAD PUSH1 0xFF AND SWAP1 JUMP JUMPDEST PUSH2 0x200 PUSH2 0x1FB CALLDATASIZE PUSH1 0x4 PUSH2 0x142A JUMP JUMPDEST PUSH2 0x8DA JUMP JUMPDEST STOP JUMPDEST CALLVALUE DUP1 ISZERO PUSH2 0x20E JUMPI PUSH1 0x0 DUP1 REVERT JUMPDEST POP PUSH2 0xF8 PUSH2 0x21D CALLDATASIZE PUSH1 0x4 PUSH2 0x16F4 JUMP JUMPDEST PUSH2 0x99E JUMP JUMPDEST CALLVALUE DUP1 ISZERO PUSH2 0x22E JUMPI PUSH1 0x0 DUP1 REVERT JUMPDEST POP PUSH2 0x237 PUSH2 0xAC2 JUMP JUMPDEST PUSH1 0x40 MLOAD PUSH2 0x102 SWAP2 SWAP1 PUSH2 0x185E JUMP JUMPDEST CALLVALUE DUP1 ISZERO PUSH2 0x250 JUMPI PUSH1 0x0 DUP1 REVERT JUMPDEST POP PUSH2 0x264 PUSH2 0x25F CALLDATASIZE PUSH1 0x4 PUSH2 0x16D2 JUMP JUMPDEST PUSH2 0x1018 JUMP JUMPDEST PUSH1 0x40 MLOAD PUSH2 0x102 SWAP4 SWAP3 SWAP2 SWAP1 PUSH2 0x19A3 JUMP JUMPDEST CALLVALUE DUP1 ISZERO PUSH2 0x27F JUMPI PUSH1 0x0 DUP1 REVERT JUMPDEST POP PUSH2 0x293 PUSH2 0x28E CALLDATASIZE PUSH1 0x4 PUSH2 0x19D6 JUMP JUMPDEST PUSH2 0x10CC JUMP JUMPDEST PUSH1 0x40 MLOAD PUSH1 0x1 PUSH1 0x1 PUSH1 0xA0 SHL SUB SWAP1 SWAP2 AND DUP2 MSTORE PUSH1 0x20 ADD PUSH2 0x102 JUMP JUMPDEST CALLVALUE DUP1 ISZERO PUSH2 0x2B7 JUMPI PUSH1 0x0 DUP1 REVERT JUMPDEST POP PUSH2 0x1A4 PUSH2 0x2C6 CALLDATASIZE PUSH1 0x4 PUSH2 0x19D6 JUMP JUMPDEST PUSH2 0x10FD JUMP JUMPDEST CALLVALUE DUP1 ISZERO PUSH2 0x2D7 JUMPI PUSH1 0x0 DUP1 REVERT JUMPDEST POP PUSH2 0x293 PUSH2 0x2E6 CALLDATASIZE PUSH1 0x4 PUSH2 0x19D6 JUMP JUMPDEST DUP1 MLOAD PUSH1 0x20 DUP2 DUP4 ADD DUP2 ADD DUP1 MLOAD PUSH1 0x3 DUP3 MSTORE SWAP3 DUP3 ADD SWAP2 SWAP1 SWAP4 ADD KECCAK256 SWAP2 MSTORE SLOAD PUSH1 0x1 PUSH1 0x1 PUSH1 0xA0 SHL SUB AND DUP2 JUMP JUMPDEST CALLVALUE DUP1 ISZERO PUSH2 0x318 JUMPI PUSH1 0x0 DUP1 REVERT JUMPDEST POP PUSH2 0x200 PUSH2 0x327 CALLDATASIZE PUSH1 0x4 PUSH2 0x1A13 JUMP JUMPDEST PUSH2 0x1127 JUMP JUMPDEST PUSH1 0x0 DUP2 DUP2 MSTORE PUSH1 0x5 PUSH1 0x20 SWAP1 DUP2 MSTORE PUSH1 0x40 SWAP2 DUP3 SWAP1 KECCAK256 PUSH1 0x9 DUP2 ADD DUP1 SLOAD DUP5 MLOAD DUP2 DUP6 MUL DUP2 ADD DUP6 ADD SWAP1 SWAP6 MSTORE DUP1 DUP6 MSTORE PUSH1 0x60 SWAP5 DUP6 SWAP5 SWAP3 SWAP4 PUSH1 0xA ADD SWAP3 SWAP1 SWAP2 DUP5 SWAP2 DUP4 ADD DUP3 DUP3 DUP1 ISZERO PUSH2 0x39B JUMPI PUSH1 0x20 MUL DUP3 ADD SWAP2 SWAP1 PUSH1 0x0 MSTORE PUSH1 0x20 PUSH1 0x0 KECCAK256 SWAP1 JUMPDEST DUP2 SLOAD PUSH1 0x1 PUSH1 0x1 PUSH1 0xA0 SHL SUB AND DUP2 MSTORE PUSH1 0x1 SWAP1 SWAP2 ADD SWAP1 PUSH1 0x20 ADD DUP1 DUP4 GT PUSH2 0x37D JUMPI JUMPDEST POP POP POP POP POP SWAP2 POP DUP1 DUP1 SLOAD DUP1 PUSH1 0x20 MUL PUSH1 0x20 ADD PUSH1 0x40 MLOAD SWAP1 DUP2 ADD PUSH1 0x40 MSTORE DUP1 SWAP3 SWAP2 SWAP1 DUP2 DUP2 MSTORE PUSH1 0x20 ADD DUP3 DUP1 SLOAD DUP1 ISZERO PUSH2 0x3ED JUMPI PUSH1 0x20 MUL DUP3 ADD SWAP2 SWAP1 PUSH1 0x0 MSTORE PUSH1 0x20 PUSH1 0x0 KECCAK256 SWAP1 JUMPDEST DUP2 SLOAD DUP2 MSTORE PUSH1 0x20 ADD SWAP1 PUSH1 0x1 ADD SWAP1 DUP1 DUP4 GT PUSH2 0x3D9 JUMPI JUMPDEST POP POP POP POP POP SWAP1 POP SWAP2 POP SWAP2 POP SWAP2 POP SWAP2 JUMP JUMPDEST PUSH1 0x5 PUSH1 0x20 MSTORE PUSH1 0x0 SWAP1 DUP2 MSTORE PUSH1 0x40 SWAP1 KECCAK256 DUP1 SLOAD PUSH1 0x1 DUP3 ADD DUP1 SLOAD PUSH1 0x1 PUSH1 0x1 PUSH1 0xA0 SHL SUB SWAP1 SWAP3 AND SWAP3 SWAP2 PUSH2 0x429 SWAP1 PUSH2 0x1AAC JUMP JUMPDEST DUP1 PUSH1 0x1F ADD PUSH1 0x20 DUP1 SWAP2 DIV MUL PUSH1 0x20 ADD PUSH1 0x40 MLOAD SWAP1 DUP2 ADD PUSH1 0x40 MSTORE DUP1 SWAP3 SWAP2 SWAP1 DUP2 DUP2 MSTORE PUSH1 0x20 ADD DUP3 DUP1 SLOAD PUSH2 0x455 SWAP1 PUSH2 0x1AAC JUMP JUMPDEST DUP1 ISZERO PUSH2 0x4A2 JUMPI DUP1 PUSH1 0x1F LT PUSH2 0x477 JUMPI PUSH2 0x100 DUP1 DUP4 SLOAD DIV MUL DUP4 MSTORE SWAP2 PUSH1 0x20 ADD SWAP2 PUSH2 0x4A2 JUMP JUMPDEST DUP3 ADD SWAP2 SWAP1 PUSH1 0x0 MSTORE PUSH1 0x20 PUSH1 0x0 KECCAK256 SWAP1 JUMPDEST DUP2 SLOAD DUP2 MSTORE SWAP1 PUSH1 0x1 ADD SWAP1 PUSH1 0x20 ADD DUP1 DUP4 GT PUSH2 0x485 JUMPI DUP3 SWAP1 SUB PUSH1 0x1F AND DUP3 ADD SWAP2 JUMPDEST POP POP POP POP POP SWAP1 DUP1 PUSH1 0x2 ADD DUP1 SLOAD PUSH2 0x4B7 SWAP1 PUSH2 0x1AAC JUMP JUMPDEST DUP1 PUSH1 0x1F ADD PUSH1 0x20 DUP1 SWAP2 DIV MUL PUSH1 0x20 ADD PUSH1 0x40 MLOAD SWAP1 DUP2 ADD PUSH1 0x40 MSTORE DUP1 SWAP3 SWAP2 SWAP1 DUP2 DUP2 MSTORE PUSH1 0x20 ADD DUP3 DUP1 SLOAD PUSH2 0x4E3 SWAP1 PUSH2 0x1AAC JUMP JUMPDEST DUP1 ISZERO PUSH2 0x530 JUMPI DUP1 PUSH1 0x1F LT PUSH2 0x505 JUMPI PUSH2 0x100 DUP1 DUP4 SLOAD DIV MUL DUP4 MSTORE SWAP2 PUSH1 0x20 ADD SWAP2 PUSH2 0x530 JUMP JUMPDEST DUP3 ADD SWAP2 SWAP1 PUSH1 0x0 MSTORE PUSH1 0x20 PUSH1 0x0 KECCAK256 SWAP1 JUMPDEST DUP2 SLOAD DUP2 MSTORE SWAP1 PUSH1 0x1 ADD SWAP1 PUSH1 0x20 ADD DUP1 DUP4 GT PUSH2 0x513 JUMPI DUP3 SWAP1 SUB PUSH1 0x1F AND DUP3 ADD SWAP2 JUMPDEST POP POP POP POP POP SWAP1 DUP1 PUSH1 0x3 ADD SLOAD SWAP1 DUP1 PUSH1 0x4 ADD SLOAD SWAP1 DUP1 PUSH1 0x5 ADD SLOAD SWAP1 DUP1 PUSH1 0x6 ADD DUP1 SLOAD PUSH2 0x557 SWAP1 PUSH2 0x1AAC JUMP JUMPDEST DUP1 PUSH1 0x1F ADD PUSH1 0x20 DUP1 SWAP2 DIV MUL PUSH1 0x20 ADD PUSH1 0x40 MLOAD SWAP1 DUP2 ADD PUSH1 0x40 MSTORE DUP1 SWAP3 SWAP2 SWAP1 DUP2 DUP2 MSTORE PUSH1 0x20 ADD DUP3 DUP1 SLOAD PUSH2 0x583 SWAP1 PUSH2 0x1AAC JUMP JUMPDEST DUP1 ISZERO PUSH2 0x5D0 JUMPI DUP1 PUSH1 0x1F LT PUSH2 0x5A5 JUMPI PUSH2 0x100 DUP1 DUP4 SLOAD DIV MUL DUP4 MSTORE SWAP2 PUSH1 0x20 ADD SWAP2 PUSH2 0x5D0 JUMP JUMPDEST DUP3 ADD SWAP2 SWAP1 PUSH1 0x0 MSTORE PUSH1 0x20 PUSH1 0x0 KECCAK256 SWAP1 JUMPDEST DUP2 SLOAD DUP2 MSTORE SWAP1 PUSH1 0x1 ADD SWAP1 PUSH1 0x20 ADD DUP1 DUP4 GT PUSH2 0x5B3 JUMPI DUP3 SWAP1 SUB PUSH1 0x1F AND DUP3 ADD SWAP2 JUMPDEST POP POP POP POP POP SWAP1 DUP1 PUSH1 0x7 ADD DUP1 SLOAD PUSH2 0x5E5 SWAP1 PUSH2 0x1AAC JUMP JUMPDEST DUP1 PUSH1 0x1F ADD PUSH1 0x20 DUP1 SWAP2 DIV MUL PUSH1 0x20 ADD PUSH1 0x40 MLOAD SWAP1 DUP2 ADD PUSH1 0x40 MSTORE DUP1 SWAP3 SWAP2 SWAP1 DUP2 DUP2 MSTORE PUSH1 0x20 ADD DUP3 DUP1 SLOAD PUSH2 0x611 SWAP1 PUSH2 0x1AAC JUMP JUMPDEST DUP1 ISZERO PUSH2 0x65E JUMPI DUP1 PUSH1 0x1F LT PUSH2 0x633 JUMPI PUSH2 0x100 DUP1 DUP4 SLOAD DIV MUL DUP4 MSTORE SWAP2 PUSH1 0x20 ADD SWAP2 PUSH2 0x65E JUMP JUMPDEST DUP3 ADD SWAP2 SWAP1 PUSH1 0x0 MSTORE PUSH1 0x20 PUSH1 0x0 KECCAK256 SWAP1 JUMPDEST DUP2 SLOAD DUP2 MSTORE SWAP1 PUSH1 0x1 ADD SWAP1 PUSH1 0x20 ADD DUP1 DUP4 GT PUSH2 0x641 JUMPI DUP3 SWAP1 SUB PUSH1 0x1F AND DUP3 ADD SWAP2 JUMPDEST POP POP POP POP POP SWAP1 DUP1 PUSH1 0x8 ADD DUP1 SLOAD PUSH2 0x673 SWAP1 PUSH2 0x1AAC JUMP JUMPDEST DUP1 PUSH1 0x1F ADD PUSH1 0x20 DUP1 SWAP2 DIV MUL PUSH1 0x20 ADD PUSH1 0x40 MLOAD SWAP1 DUP2 ADD PUSH1 0x40 MSTORE DUP1 SWAP3 SWAP2 SWAP1 DUP2 DUP2 MSTORE PUSH1 0x20 ADD DUP3 DUP1 SLOAD PUSH2 0x69F SWAP1 PUSH2 0x1AAC JUMP JUMPDEST DUP1 ISZERO PUSH2 0x6EC JUMPI DUP1 PUSH1 0x1F LT PUSH2 0x6C1 JUMPI PUSH2 0x100 DUP1 DUP4 SLOAD DIV MUL DUP4 MSTORE SWAP2 PUSH1 0x20 ADD SWAP2 PUSH2 0x6EC JUMP JUMPDEST DUP3 ADD SWAP2 SWAP1 PUSH1 0x0 MSTORE PUSH1 0x20 PUSH1 0x0 KECCAK256 SWAP1 JUMPDEST DUP2 SLOAD DUP2 MSTORE SWAP1 PUSH1 0x1 ADD SWAP1 PUSH1 0x20 ADD DUP1 DUP4 GT PUSH2 0x6CF JUMPI DUP3 SWAP1 SUB PUSH1 0x1F AND DUP3 ADD SWAP2 JUMPDEST POP POP POP POP POP SWAP1 POP DUP10 JUMP JUMPDEST PUSH1 0x0 DUP1 PUSH2 0x702 DUP5 PUSH2 0x10CC JUMP JUMPDEST SWAP1 POP PUSH1 0x1 PUSH1 0x1 PUSH1 0xA0 SHL SUB DUP2 AND PUSH2 0x751 JUMPI PUSH1 0x40 MLOAD PUSH3 0x461BCD PUSH1 0xE5 SHL DUP2 MSTORE PUSH1 0x20 PUSH1 0x4 DUP3 ADD MSTORE PUSH1 0xF PUSH1 0x24 DUP3 ADD MSTORE PUSH15 0x2AB9B2B9103737BA103337BAB73217 PUSH1 0x89 SHL PUSH1 0x44 DUP3 ADD MSTORE PUSH1 0x64 ADD JUMPDEST PUSH1 0x40 MLOAD DUP1 SWAP2 SUB SWAP1 REVERT JUMPDEST PUSH1 0x1 PUSH1 0x1 PUSH1 0xA0 SHL SUB DUP2 AND PUSH1 0x0 SWAP1 DUP2 MSTORE PUSH1 0x2 PUSH1 0x20 MSTORE PUSH1 0x40 DUP1 DUP3 KECCAK256 DUP2 MLOAD PUSH1 0x60 DUP2 ADD SWAP1 SWAP3 MSTORE DUP1 SLOAD DUP3 SWAP1 DUP3 SWAP1 PUSH2 0x782 SWAP1 PUSH2 0x1AAC JUMP JUMPDEST DUP1 PUSH1 0x1F ADD PUSH1 0x20 DUP1 SWAP2 DIV MUL PUSH1 0x20 ADD PUSH1 0x40 MLOAD SWAP1 DUP2 ADD PUSH1 0x40 MSTORE DUP1 SWAP3 SWAP2 SWAP1 DUP2 DUP2 MSTORE PUSH1 0x20 ADD DUP3 DUP1 SLOAD PUSH2 0x7AE SWAP1 PUSH2 0x1AAC JUMP JUMPDEST DUP1 ISZERO PUSH2 0x7FB JUMPI DUP1 PUSH1 0x1F LT PUSH2 0x7D0 JUMPI PUSH2 0x100 DUP1 DUP4 SLOAD DIV MUL DUP4 MSTORE SWAP2 PUSH1 0x20 ADD SWAP2 PUSH2 0x7FB JUMP JUMPDEST DUP3 ADD SWAP2 SWAP1 PUSH1 0x0 MSTORE PUSH1 0x20 PUSH1 0x0 KECCAK256 SWAP1 JUMPDEST DUP2 SLOAD DUP2 MSTORE SWAP1 PUSH1 0x1 ADD SWAP1 PUSH1 0x20 ADD DUP1 DUP4 GT PUSH2 0x7DE JUMPI DUP3 SWAP1 SUB PUSH1 0x1F AND DUP3 ADD SWAP2 JUMPDEST POP POP POP SWAP2 DUP4 MSTORE POP POP PUSH1 0x1 DUP3 ADD SLOAD PUSH1 0x20 DUP1 DUP4 ADD SWAP2 SWAP1 SWAP2 MSTORE PUSH1 0x2 SWAP1 SWAP3 ADD SLOAD PUSH1 0x1 PUSH1 0x1 PUSH1 0xA0 SHL SUB AND PUSH1 0x40 SWAP2 DUP3 ADD MSTORE MLOAD SWAP2 SWAP3 POP PUSH2 0x836 SWAP2 DUP7 SWAP2 ADD PUSH2 0x1AE6 JUMP JUMPDEST PUSH1 0x40 MLOAD PUSH1 0x20 DUP2 DUP4 SUB SUB DUP2 MSTORE SWAP1 PUSH1 0x40 MSTORE DUP1 MLOAD SWAP1 PUSH1 0x20 ADD KECCAK256 DUP2 PUSH1 0x20 ADD MLOAD EQ PUSH2 0x894 JUMPI PUSH1 0x40 MLOAD PUSH3 0x461BCD PUSH1 0xE5 SHL DUP2 MSTORE PUSH1 0x20 PUSH1 0x4 DUP3 ADD MSTORE PUSH1 0x13 PUSH1 0x24 DUP3 ADD MSTORE PUSH19 0x24B731B7B93932B1BA103830B9B9BBB7B93217 PUSH1 0x69 SHL PUSH1 0x44 DUP3 ADD MSTORE PUSH1 0x64 ADD PUSH2 0x748 JUMP JUMPDEST PUSH32 0xFD7A49BF0BE38D61EC3404F450519A68EB8BDD1EDB8729B6C5F8C139E9DAFEAF DUP3 DUP7 PUSH1 0x40 MLOAD PUSH2 0x8C5 SWAP3 SWAP2 SWAP1 PUSH2 0x1B02 JUMP JUMPDEST PUSH1 0x40 MLOAD DUP1 SWAP2 SUB SWAP1 LOG1 PUSH1 0x1 SWAP3 POP POP POP JUMPDEST SWAP3 SWAP2 POP POP JUMP JUMPDEST PUSH1 0x0 DUP2 DUP2 MSTORE PUSH1 0x5 PUSH1 0x20 SWAP1 DUP2 MSTORE PUSH1 0x40 DUP1 DUP4 KECCAK256 PUSH1 0x9 DUP2 ADD DUP1 SLOAD PUSH1 0x1 DUP1 DUP3 ADD DUP4 SSTORE SWAP2 DUP7 MSTORE DUP5 DUP7 KECCAK256 ADD DUP1 SLOAD PUSH1 0x1 PUSH1 0x1 PUSH1 0xA0 SHL SUB NOT AND CALLER OR SWAP1 SSTORE PUSH1 0xA DUP3 ADD DUP1 SLOAD SWAP2 DUP3 ADD DUP2 SSTORE DUP6 MSTORE SWAP3 DUP5 KECCAK256 CALLVALUE SWAP4 ADD DUP4 SWAP1 SSTORE DUP1 SLOAD SWAP2 MLOAD SWAP3 SWAP4 SWAP1 SWAP3 SWAP1 SWAP2 PUSH1 0x1 PUSH1 0x1 PUSH1 0xA0 SHL SUB AND SWAP1 DUP5 SWAP1 DUP4 DUP2 DUP2 DUP2 DUP6 DUP8 GAS CALL SWAP3 POP POP POP RETURNDATASIZE DUP1 PUSH1 0x0 DUP2 EQ PUSH2 0x973 JUMPI PUSH1 0x40 MLOAD SWAP2 POP PUSH1 0x1F NOT PUSH1 0x3F RETURNDATASIZE ADD AND DUP3 ADD PUSH1 0x40 MSTORE RETURNDATASIZE DUP3 MSTORE RETURNDATASIZE PUSH1 0x0 PUSH1 0x20 DUP5 ADD RETURNDATACOPY PUSH2 0x978 JUMP JUMPDEST PUSH1 0x60 SWAP2 POP JUMPDEST POP POP SWAP1 POP DUP1 ISZERO PUSH2 0x998 JUMPI DUP3 DUP3 PUSH1 0x5 ADD SLOAD PUSH2 0x992 SWAP2 SWAP1 PUSH2 0x1B3C JUMP JUMPDEST PUSH1 0x5 DUP4 ADD SSTORE JUMPDEST POP POP POP POP JUMP JUMPDEST PUSH1 0x6 SLOAD PUSH1 0x0 SWAP1 DUP2 MSTORE PUSH1 0x5 PUSH1 0x20 MSTORE PUSH1 0x40 DUP2 KECCAK256 PUSH1 0x4 DUP2 ADD SLOAD TIMESTAMP GT PUSH2 0xA17 JUMPI PUSH1 0x40 MLOAD PUSH3 0x461BCD PUSH1 0xE5 SHL DUP2 MSTORE PUSH1 0x20 PUSH1 0x4 DUP3 ADD MSTORE PUSH1 0x2C PUSH1 0x24 DUP3 ADD MSTORE PUSH32 0x54686520646561646C696E652073686F756C642062652061206461746520696E PUSH1 0x44 DUP3 ADD MSTORE PUSH12 0x103A343290333ABA3AB93297 PUSH1 0xA1 SHL PUSH1 0x64 DUP3 ADD MSTORE PUSH1 0x84 ADD PUSH2 0x748 JUMP JUMPDEST DUP1 SLOAD PUSH1 0x1 PUSH1 0x1 PUSH1 0xA0 SHL SUB NOT AND PUSH1 0x1 PUSH1 0x1 PUSH1 0xA0 SHL SUB DUP12 AND OR DUP2 SSTORE PUSH1 0x1 DUP2 ADD PUSH2 0xA3E DUP11 DUP3 PUSH2 0x1B9E JUMP JUMPDEST POP PUSH1 0x2 DUP2 ADD PUSH2 0xA4D DUP10 DUP3 PUSH2 0x1B9E JUMP JUMPDEST POP PUSH1 0x3 DUP2 ADD DUP8 SWAP1 SSTORE PUSH1 0x4 DUP2 ADD DUP7 SWAP1 SSTORE PUSH1 0x0 PUSH1 0x5 DUP3 ADD SSTORE PUSH1 0x6 DUP2 ADD PUSH2 0xA71 DUP7 DUP3 PUSH2 0x1B9E JUMP JUMPDEST POP PUSH1 0x7 DUP2 ADD PUSH2 0xA80 DUP6 DUP3 PUSH2 0x1B9E JUMP JUMPDEST POP PUSH1 0x8 DUP2 ADD PUSH2 0xA8F DUP5 DUP3 PUSH2 0x1B9E JUMP JUMPDEST POP PUSH1 0x6 DUP1 SLOAD SWAP1 PUSH1 0x0 PUSH2 0xAA0 DUP4 PUSH2 0x1C5E JUMP JUMPDEST SWAP2 SWAP1 POP SSTORE POP PUSH1 0x1 PUSH1 0x6 SLOAD PUSH2 0xAB4 SWAP2 SWAP1 PUSH2 0x1C77 JUMP JUMPDEST SWAP11 SWAP10 POP POP POP POP POP POP POP POP POP POP JUMP JUMPDEST PUSH1 0x60 PUSH1 0x0 DUP1 JUMPDEST PUSH1 0x6 SLOAD DUP2 LT ISZERO PUSH2 0xB10 JUMPI PUSH1 0x0 DUP2 DUP2 MSTORE PUSH1 0x5 PUSH1 0x20 MSTORE PUSH1 0x40 SWAP1 KECCAK256 SLOAD PUSH1 0x1 PUSH1 0x1 PUSH1 0xA0 SHL SUB AND CALLER EQ PUSH2 0xAFE JUMPI DUP2 PUSH2 0xAFA DUP2 PUSH2 0x1C5E JUMP JUMPDEST SWAP3 POP POP JUMPDEST DUP1 PUSH2 0xB08 DUP2 PUSH2 0x1C5E JUMP JUMPDEST SWAP2 POP POP PUSH2 0xAC8 JUMP JUMPDEST POP PUSH1 0x0 DUP2 PUSH8 0xFFFFFFFFFFFFFFFF DUP2 GT ISZERO PUSH2 0xB2C JUMPI PUSH2 0xB2C PUSH2 0x15AF JUMP JUMPDEST PUSH1 0x40 MLOAD SWAP1 DUP1 DUP3 MSTORE DUP1 PUSH1 0x20 MUL PUSH1 0x20 ADD DUP3 ADD PUSH1 0x40 MSTORE DUP1 ISZERO PUSH2 0xBC3 JUMPI DUP2 PUSH1 0x20 ADD JUMPDEST PUSH2 0xBB0 PUSH1 0x40 MLOAD DUP1 PUSH2 0x160 ADD PUSH1 0x40 MSTORE DUP1 PUSH1 0x0 PUSH1 0x1 PUSH1 0x1 PUSH1 0xA0 SHL SUB AND DUP2 MSTORE PUSH1 0x20 ADD PUSH1 0x60 DUP2 MSTORE PUSH1 0x20 ADD PUSH1 0x60 DUP2 MSTORE PUSH1 0x20 ADD PUSH1 0x0 DUP2 MSTORE PUSH1 0x20 ADD PUSH1 0x0 DUP2 MSTORE PUSH1 0x20 ADD PUSH1 0x0 DUP2 MSTORE PUSH1 0x20 ADD PUSH1 0x60 DUP2 MSTORE PUSH1 0x20 ADD PUSH1 0x60 DUP2 MSTORE PUSH1 0x20 ADD PUSH1 0x60 DUP2 MSTORE PUSH1 0x20 ADD PUSH1 0x60 DUP2 MSTORE PUSH1 0x20 ADD PUSH1 0x60 DUP2 MSTORE POP SWAP1 JUMP JUMPDEST DUP2 MSTORE PUSH1 0x20 ADD SWAP1 PUSH1 0x1 SWAP1 SUB SWAP1 DUP2 PUSH2 0xB4A JUMPI SWAP1 POP JUMPDEST POP SWAP1 POP PUSH1 0x0 DUP1 JUMPDEST PUSH1 0x6 SLOAD DUP2 LT ISZERO PUSH2 0x100F JUMPI PUSH1 0x0 DUP2 DUP2 MSTORE PUSH1 0x5 PUSH1 0x20 MSTORE PUSH1 0x40 SWAP1 KECCAK256 SLOAD PUSH1 0x1 PUSH1 0x1 PUSH1 0xA0 SHL SUB AND CALLER EQ PUSH2 0xFFD JUMPI PUSH1 0x0 DUP2 DUP2 MSTORE PUSH1 0x5 PUSH1 0x20 SWAP1 DUP2 MSTORE PUSH1 0x40 SWAP2 DUP3 SWAP1 KECCAK256 DUP3 MLOAD PUSH2 0x160 DUP2 ADD SWAP1 SWAP4 MSTORE DUP1 SLOAD PUSH1 0x1 PUSH1 0x1 PUSH1 0xA0 SHL SUB AND DUP4 MSTORE PUSH1 0x1 DUP2 ADD DUP1 SLOAD SWAP2 SWAP3 DUP5 ADD SWAP2 PUSH2 0xC2F SWAP1 PUSH2 0x1AAC JUMP JUMPDEST DUP1 PUSH1 0x1F ADD PUSH1 0x20 DUP1 SWAP2 DIV MUL PUSH1 0x20 ADD PUSH1 0x40 MLOAD SWAP1 DUP2 ADD PUSH1 0x40 MSTORE DUP1 SWAP3 SWAP2 SWAP1 DUP2 DUP2 MSTORE PUSH1 0x20 ADD DUP3 DUP1 SLOAD PUSH2 0xC5B SWAP1 PUSH2 0x1AAC JUMP JUMPDEST DUP1 ISZERO PUSH2 0xCA8 JUMPI DUP1 PUSH1 0x1F LT PUSH2 0xC7D JUMPI PUSH2 0x100 DUP1 DUP4 SLOAD DIV MUL DUP4 MSTORE SWAP2 PUSH1 0x20 ADD SWAP2 PUSH2 0xCA8 JUMP JUMPDEST DUP3 ADD SWAP2 SWAP1 PUSH1 0x0 MSTORE PUSH1 0x20 PUSH1 0x0 KECCAK256 SWAP1 JUMPDEST DUP2 SLOAD DUP2 MSTORE SWAP1 PUSH1 0x1 ADD SWAP1 PUSH1 0x20 ADD DUP1 DUP4 GT PUSH2 0xC8B JUMPI DUP3 SWAP1 SUB PUSH1 0x1F AND DUP3 ADD SWAP2 JUMPDEST POP POP POP POP POP DUP2 MSTORE PUSH1 0x20 ADD PUSH1 0x2 DUP3 ADD DUP1 SLOAD PUSH2 0xCC1 SWAP1 PUSH2 0x1AAC JUMP JUMPDEST DUP1 PUSH1 0x1F ADD PUSH1 0x20 DUP1 SWAP2 DIV MUL PUSH1 0x20 ADD PUSH1 0x40 MLOAD SWAP1 DUP2 ADD PUSH1 0x40 MSTORE DUP1 SWAP3 SWAP2 SWAP1 DUP2 DUP2 MSTORE PUSH1 0x20 ADD DUP3 DUP1 SLOAD PUSH2 0xCED SWAP1 PUSH2 0x1AAC JUMP JUMPDEST DUP1 ISZERO PUSH2 0xD3A JUMPI DUP1 PUSH1 0x1F LT PUSH2 0xD0F JUMPI PUSH2 0x100 DUP1 DUP4 SLOAD DIV MUL DUP4 MSTORE SWAP2 PUSH1 0x20 ADD SWAP2 PUSH2 0xD3A JUMP JUMPDEST DUP3 ADD SWAP2 SWAP1 PUSH1 0x0 MSTORE PUSH1 0x20 PUSH1 0x0 KECCAK256 SWAP1 JUMPDEST DUP2 SLOAD DUP2 MSTORE SWAP1 PUSH1 0x1 ADD SWAP1 PUSH1 0x20 ADD DUP1 DUP4 GT PUSH2 0xD1D JUMPI DUP3 SWAP1 SUB PUSH1 0x1F AND DUP3 ADD SWAP2 JUMPDEST POP POP POP POP POP DUP2 MSTORE PUSH1 0x20 ADD PUSH1 0x3 DUP3 ADD SLOAD DUP2 MSTORE PUSH1 0x20 ADD PUSH1 0x4 DUP3 ADD SLOAD DUP2 MSTORE PUSH1 0x20 ADD PUSH1 0x5 DUP3 ADD SLOAD DUP2 MSTORE PUSH1 0x20 ADD PUSH1 0x6 DUP3 ADD DUP1 SLOAD PUSH2 0xD71 SWAP1 PUSH2 0x1AAC JUMP JUMPDEST DUP1 PUSH1 0x1F ADD PUSH1 0x20 DUP1 SWAP2 DIV MUL PUSH1 0x20 ADD PUSH1 0x40 MLOAD SWAP1 DUP2 ADD PUSH1 0x40 MSTORE DUP1 SWAP3 SWAP2 SWAP1 DUP2 DUP2 MSTORE PUSH1 0x20 ADD DUP3 DUP1 SLOAD PUSH2 0xD9D SWAP1 PUSH2 0x1AAC JUMP JUMPDEST DUP1 ISZERO PUSH2 0xDEA JUMPI DUP1 PUSH1 0x1F LT PUSH2 0xDBF JUMPI PUSH2 0x100 DUP1 DUP4 SLOAD DIV MUL DUP4 MSTORE SWAP2 PUSH1 0x20 ADD SWAP2 PUSH2 0xDEA JUMP JUMPDEST DUP3 ADD SWAP2 SWAP1 PUSH1 0x0 MSTORE PUSH1 0x20 PUSH1 0x0 KECCAK256 SWAP1 JUMPDEST DUP2 SLOAD DUP2 MSTORE SWAP1 PUSH1 0x1 ADD SWAP1 PUSH1 0x20 ADD DUP1 DUP4 GT PUSH2 0xDCD JUMPI DUP3 SWAP1 SUB PUSH1 0x1F AND DUP3 ADD SWAP2 JUMPDEST POP POP POP POP POP DUP2 MSTORE PUSH1 0x20 ADD PUSH1 0x7 DUP3 ADD DUP1 SLOAD PUSH2 0xE03 SWAP1 PUSH2 0x1AAC JUMP JUMPDEST DUP1 PUSH1 0x1F ADD PUSH1 0x20 DUP1 SWAP2 DIV MUL PUSH1 0x20 ADD PUSH1 0x40 MLOAD SWAP1 DUP2 ADD PUSH1 0x40 MSTORE DUP1 SWAP3 SWAP2 SWAP1 DUP2 DUP2 MSTORE PUSH1 0x20 ADD DUP3 DUP1 SLOAD PUSH2 0xE2F SWAP1 PUSH2 0x1AAC JUMP JUMPDEST DUP1 ISZERO PUSH2 0xE7C JUMPI DUP1 PUSH1 0x1F LT PUSH2 0xE51 JUMPI PUSH2 0x100 DUP1 DUP4 SLOAD DIV MUL DUP4 MSTORE SWAP2 PUSH1 0x20 ADD SWAP2 PUSH2 0xE7C JUMP JUMPDEST DUP3 ADD SWAP2 SWAP1 PUSH1 0x0 MSTORE PUSH1 0x20 PUSH1 0x0 KECCAK256 SWAP1 JUMPDEST DUP2 SLOAD DUP2 MSTORE SWAP1 PUSH1 0x1 ADD SWAP1 PUSH1 0x20 ADD DUP1 DUP4 GT PUSH2 0xE5F JUMPI DUP3 SWAP1 SUB PUSH1 0x1F AND DUP3 ADD SWAP2 JUMPDEST POP POP POP POP POP DUP2 MSTORE PUSH1 0x20 ADD PUSH1 0x8 DUP3 ADD DUP1 SLOAD PUSH2 0xE95 SWAP1 PUSH2 0x1AAC JUMP JUMPDEST DUP1 PUSH1 0x1F ADD PUSH1 0x20 DUP1 SWAP2 DIV MUL PUSH1 0x20 ADD PUSH1 0x40 MLOAD SWAP1 DUP2 ADD PUSH1 0x40 MSTORE DUP1 SWAP3 SWAP2 SWAP1 DUP2 DUP2 MSTORE PUSH1 0x20 ADD DUP3 DUP1 SLOAD PUSH2 0xEC1 SWAP1 PUSH2 0x1AAC JUMP JUMPDEST DUP1 ISZERO PUSH2 0xF0E JUMPI DUP1 PUSH1 0x1F LT PUSH2 0xEE3 JUMPI PUSH2 0x100 DUP1 DUP4 SLOAD DIV MUL DUP4 MSTORE SWAP2 PUSH1 0x20 ADD SWAP2 PUSH2 0xF0E JUMP JUMPDEST DUP3 ADD SWAP2 SWAP1 PUSH1 0x0 MSTORE PUSH1 0x20 PUSH1 0x0 KECCAK256 SWAP1 JUMPDEST DUP2 SLOAD DUP2 MSTORE SWAP1 PUSH1 0x1 ADD SWAP1 PUSH1 0x20 ADD DUP1 DUP4 GT PUSH2 0xEF1 JUMPI DUP3 SWAP1 SUB PUSH1 0x1F AND DUP3 ADD SWAP2 JUMPDEST POP POP POP POP POP DUP2 MSTORE PUSH1 0x20 ADD PUSH1 0x9 DUP3 ADD DUP1 SLOAD DUP1 PUSH1 0x20 MUL PUSH1 0x20 ADD PUSH1 0x40 MLOAD SWAP1 DUP2 ADD PUSH1 0x40 MSTORE DUP1 SWAP3 SWAP2 SWAP1 DUP2 DUP2 MSTORE PUSH1 0x20 ADD DUP3 DUP1 SLOAD DUP1 ISZERO PUSH2 0xF70 JUMPI PUSH1 0x20 MUL DUP3 ADD SWAP2 SWAP1 PUSH1 0x0 MSTORE PUSH1 0x20 PUSH1 0x0 KECCAK256 SWAP1 JUMPDEST DUP2 SLOAD PUSH1 0x1 PUSH1 0x1 PUSH1 0xA0 SHL SUB AND DUP2 MSTORE PUSH1 0x1 SWAP1 SWAP2 ADD SWAP1 PUSH1 0x20 ADD DUP1 DUP4 GT PUSH2 0xF52 JUMPI JUMPDEST POP POP POP POP POP DUP2 MSTORE PUSH1 0x20 ADD PUSH1 0xA DUP3 ADD DUP1 SLOAD DUP1 PUSH1 0x20 MUL PUSH1 0x20 ADD PUSH1 0x40 MLOAD SWAP1 DUP2 ADD PUSH1 0x40 MSTORE DUP1 SWAP3 SWAP2 SWAP1 DUP2 DUP2 MSTORE PUSH1 0x20 ADD DUP3 DUP1 SLOAD DUP1 ISZERO PUSH2 0xFC8 JUMPI PUSH1 0x20 MUL DUP3 ADD SWAP2 SWAP1 PUSH1 0x0 MSTORE PUSH1 0x20 PUSH1 0x0 KECCAK256 SWAP1 JUMPDEST DUP2 SLOAD DUP2 MSTORE PUSH1 0x20 ADD SWAP1 PUSH1 0x1 ADD SWAP1 DUP1 DUP4 GT PUSH2 0xFB4 JUMPI JUMPDEST POP POP POP POP POP DUP2 MSTORE POP POP DUP4 DUP4 DUP2 MLOAD DUP2 LT PUSH2 0xFE3 JUMPI PUSH2 0xFE3 PUSH2 0x1C8A JUMP JUMPDEST PUSH1 0x20 MUL PUSH1 0x20 ADD ADD DUP2 SWAP1 MSTORE POP DUP2 DUP1 PUSH2 0xFF9 SWAP1 PUSH2 0x1C5E JUMP JUMPDEST SWAP3 POP POP JUMPDEST DUP1 PUSH2 0x1007 DUP2 PUSH2 0x1C5E JUMP JUMPDEST SWAP2 POP POP PUSH2 0xBCA JUMP JUMPDEST POP SWAP1 SWAP4 SWAP3 POP POP POP JUMP JUMPDEST PUSH1 0x2 PUSH1 0x20 MSTORE PUSH1 0x0 SWAP1 DUP2 MSTORE PUSH1 0x40 SWAP1 KECCAK256 DUP1 SLOAD DUP2 SWAP1 PUSH2 0x1033 SWAP1 PUSH2 0x1AAC JUMP JUMPDEST DUP1 PUSH1 0x1F ADD PUSH1 0x20 DUP1 SWAP2 DIV MUL PUSH1 0x20 ADD PUSH1 0x40 MLOAD SWAP1 DUP2 ADD PUSH1 0x40 MSTORE DUP1 SWAP3 SWAP2 SWAP1 DUP2 DUP2 MSTORE PUSH1 0x20 ADD DUP3 DUP1 SLOAD PUSH2 0x105F SWAP1 PUSH2 0x1AAC JUMP JUMPDEST DUP1 ISZERO PUSH2 0x10AC JUMPI DUP1 PUSH1 0x1F LT PUSH2 0x1081 JUMPI PUSH2 0x100 DUP1 DUP4 SLOAD DIV MUL DUP4 MSTORE SWAP2 PUSH1 0x20 ADD SWAP2 PUSH2 0x10AC JUMP JUMPDEST DUP3 ADD SWAP2 SWAP1 PUSH1 0x0 MSTORE PUSH1 0x20 PUSH1 0x0 KECCAK256 SWAP1 JUMPDEST DUP2 SLOAD DUP2 MSTORE SWAP1 PUSH1 0x1 ADD SWAP1 PUSH1 0x20 ADD DUP1 DUP4 GT PUSH2 0x108F JUMPI DUP3 SWAP1 SUB PUSH1 0x1F AND DUP3 ADD SWAP2 JUMPDEST POP POP POP POP PUSH1 0x1 DUP4 ADD SLOAD PUSH1 0x2 SWAP1 SWAP4 ADD SLOAD SWAP2 SWAP3 SWAP2 PUSH1 0x1 PUSH1 0x1 PUSH1 0xA0 SHL SUB AND SWAP1 POP DUP4 JUMP JUMPDEST PUSH1 0x0 PUSH1 0x3 DUP3 PUSH1 0x40 MLOAD PUSH2 0x10DE SWAP2 SWAP1 PUSH2 0x1AE6 JUMP JUMPDEST SWAP1 DUP2 MSTORE PUSH1 0x40 MLOAD SWAP1 DUP2 SWAP1 SUB PUSH1 0x20 ADD SWAP1 KECCAK256 SLOAD PUSH1 0x1 PUSH1 0x1 PUSH1 0xA0 SHL SUB AND SWAP3 SWAP2 POP POP JUMP JUMPDEST PUSH1 0x0 DUP1 DUP3 PUSH1 0x40 MLOAD PUSH2 0x110E SWAP2 SWAP1 PUSH2 0x1AE6 JUMP JUMPDEST SWAP1 DUP2 MSTORE PUSH1 0x40 MLOAD SWAP1 DUP2 SWAP1 SUB PUSH1 0x20 ADD SWAP1 KECCAK256 SLOAD PUSH1 0xFF AND SWAP3 SWAP2 POP POP JUMP JUMPDEST PUSH1 0x0 DUP5 PUSH1 0x40 MLOAD PUSH2 0x1137 SWAP2 SWAP1 PUSH2 0x1AE6 JUMP JUMPDEST SWAP1 DUP2 MSTORE PUSH1 0x40 MLOAD SWAP1 DUP2 SWAP1 SUB PUSH1 0x20 ADD SWAP1 KECCAK256 SLOAD PUSH1 0xFF AND ISZERO PUSH2 0x118F JUMPI PUSH1 0x40 MLOAD PUSH3 0x461BCD PUSH1 0xE5 SHL DUP2 MSTORE PUSH1 0x20 PUSH1 0x4 DUP3 ADD MSTORE PUSH1 0x15 PUSH1 0x24 DUP3 ADD MSTORE PUSH21 0x22B6B0B4B61030B63932B0B23C9032BC34B9BA3997 PUSH1 0x59 SHL PUSH1 0x44 DUP3 ADD MSTORE PUSH1 0x64 ADD PUSH2 0x748 JUMP JUMPDEST PUSH1 0x1 PUSH1 0x1 PUSH1 0xA0 SHL SUB DUP2 AND PUSH1 0x0 SWAP1 DUP2 MSTORE PUSH1 0x1 PUSH1 0x20 MSTORE PUSH1 0x40 SWAP1 KECCAK256 SLOAD PUSH1 0xFF AND ISZERO PUSH2 0x1203 JUMPI PUSH1 0x40 MLOAD PUSH3 0x461BCD PUSH1 0xE5 SHL DUP2 MSTORE PUSH1 0x20 PUSH1 0x4 DUP3 ADD MSTORE PUSH1 0x22 PUSH1 0x24 DUP3 ADD MSTORE PUSH32 0x57616C6C6574206164647265737320616C726561647920726567697374657265 PUSH1 0x44 DUP3 ADD MSTORE PUSH2 0x3217 PUSH1 0xF1 SHL PUSH1 0x64 DUP3 ADD MSTORE PUSH1 0x84 ADD PUSH2 0x748 JUMP JUMPDEST DUP2 PUSH1 0x40 MLOAD PUSH1 0x20 ADD PUSH2 0x1214 SWAP2 SWAP1 PUSH2 0x1AE6 JUMP JUMPDEST PUSH1 0x40 MLOAD PUSH1 0x20 DUP2 DUP4 SUB SUB DUP2 MSTORE SWAP1 PUSH1 0x40 MSTORE DUP1 MLOAD SWAP1 PUSH1 0x20 ADD KECCAK256 DUP4 PUSH1 0x40 MLOAD PUSH1 0x20 ADD PUSH2 0x123B SWAP2 SWAP1 PUSH2 0x1AE6 JUMP JUMPDEST PUSH1 0x40 MLOAD PUSH1 0x20 DUP2 DUP4 SUB SUB DUP2 MSTORE SWAP1 PUSH1 0x40 MSTORE DUP1 MLOAD SWAP1 PUSH1 0x20 ADD KECCAK256 EQ PUSH2 0x129E JUMPI PUSH1 0x40 MLOAD PUSH3 0x461BCD PUSH1 0xE5 SHL DUP2 MSTORE PUSH1 0x20 PUSH1 0x4 DUP3 ADD MSTORE PUSH1 0x17 PUSH1 0x24 DUP3 ADD MSTORE PUSH32 0x50617373776F72647320646F206E6F74206D617463682E000000000000000000 PUSH1 0x44 DUP3 ADD MSTORE PUSH1 0x64 ADD PUSH2 0x748 JUMP JUMPDEST PUSH1 0x0 DUP4 PUSH1 0x40 MLOAD PUSH1 0x20 ADD PUSH2 0x12B1 SWAP2 SWAP1 PUSH2 0x1AE6 JUMP JUMPDEST PUSH1 0x40 DUP1 MLOAD PUSH1 0x1F NOT DUP2 DUP5 SUB ADD DUP2 MSTORE DUP3 DUP3 MSTORE DUP1 MLOAD PUSH1 0x20 SWAP2 DUP3 ADD KECCAK256 PUSH1 0x60 DUP5 ADD DUP4 MSTORE DUP9 DUP5 MSTORE DUP4 DUP3 ADD DUP2 SWAP1 MSTORE PUSH1 0x1 PUSH1 0x1 PUSH1 0xA0 SHL SUB DUP7 AND DUP5 DUP5 ADD DUP2 SWAP1 MSTORE PUSH1 0x0 SWAP1 DUP2 MSTORE PUSH1 0x2 SWAP1 SWAP3 MSTORE SWAP2 SWAP1 KECCAK256 DUP3 MLOAD SWAP2 SWAP4 POP SWAP1 DUP2 SWAP1 PUSH2 0x1307 SWAP1 DUP3 PUSH2 0x1B9E JUMP JUMPDEST POP PUSH1 0x20 DUP3 ADD MLOAD DUP2 PUSH1 0x1 ADD SSTORE PUSH1 0x40 DUP3 ADD MLOAD DUP2 PUSH1 0x2 ADD PUSH1 0x0 PUSH2 0x100 EXP DUP2 SLOAD DUP2 PUSH1 0x1 PUSH1 0x1 PUSH1 0xA0 SHL SUB MUL NOT AND SWAP1 DUP4 PUSH1 0x1 PUSH1 0x1 PUSH1 0xA0 SHL SUB AND MUL OR SWAP1 SSTORE POP SWAP1 POP POP PUSH1 0x1 PUSH1 0x0 DUP7 PUSH1 0x40 MLOAD PUSH2 0x1354 SWAP2 SWAP1 PUSH2 0x1AE6 JUMP JUMPDEST SWAP1 DUP2 MSTORE PUSH1 0x40 DUP1 MLOAD SWAP2 DUP3 SWAP1 SUB PUSH1 0x20 SWAP1 DUP2 ADD DUP4 KECCAK256 DUP1 SLOAD SWAP5 ISZERO ISZERO PUSH1 0xFF NOT SWAP6 DUP7 AND OR SWAP1 SSTORE PUSH1 0x1 PUSH1 0x1 PUSH1 0xA0 SHL SUB DUP7 AND PUSH1 0x0 SWAP1 DUP2 MSTORE PUSH1 0x1 SWAP2 DUP3 SWAP1 MSTORE SWAP2 SWAP1 SWAP2 KECCAK256 DUP1 SLOAD SWAP1 SWAP4 AND OR SWAP1 SWAP2 SSTORE DUP3 SWAP1 PUSH1 0x3 SWAP1 PUSH2 0x13A6 SWAP1 DUP9 SWAP1 PUSH2 0x1AE6 JUMP JUMPDEST SWAP1 DUP2 MSTORE PUSH1 0x40 MLOAD SWAP1 DUP2 SWAP1 SUB PUSH1 0x20 ADD SWAP1 KECCAK256 DUP1 SLOAD PUSH1 0x1 PUSH1 0x1 PUSH1 0xA0 SHL SUB SWAP3 SWAP1 SWAP3 AND PUSH1 0x1 PUSH1 0x1 PUSH1 0xA0 SHL SUB NOT SWAP1 SWAP3 AND SWAP2 SWAP1 SWAP2 OR SWAP1 SSTORE PUSH1 0x4 DUP1 SLOAD SWAP1 PUSH1 0x0 PUSH2 0x13E5 DUP4 PUSH2 0x1C5E JUMP JUMPDEST SWAP2 SWAP1 POP SSTORE POP PUSH32 0x48CAC28AD4DC618E15F4C2DD5E97751182F166DE97B25618318B2112AA951A2F DUP3 DUP7 PUSH1 0x40 MLOAD PUSH2 0x141B SWAP3 SWAP2 SWAP1 PUSH2 0x1B02 JUMP JUMPDEST PUSH1 0x40 MLOAD DUP1 SWAP2 SUB SWAP1 LOG1 POP POP POP POP POP JUMP JUMPDEST PUSH1 0x0 PUSH1 0x20 DUP3 DUP5 SUB SLT ISZERO PUSH2 0x143C JUMPI PUSH1 0x0 DUP1 REVERT JUMPDEST POP CALLDATALOAD SWAP2 SWAP1 POP JUMP JUMPDEST PUSH1 0x40 DUP1 DUP3 MSTORE DUP4 MLOAD SWAP1 DUP3 ADD DUP2 SWAP1 MSTORE PUSH1 0x0 SWAP1 PUSH1 0x20 SWAP1 PUSH1 0x60 DUP5 ADD SWAP1 DUP3 DUP8 ADD DUP5 JUMPDEST DUP3 DUP2 LT ISZERO PUSH2 0x1485 JUMPI DUP2 MLOAD PUSH1 0x1 PUSH1 0x1 PUSH1 0xA0 SHL SUB AND DUP5 MSTORE SWAP3 DUP5 ADD SWAP3 SWAP1 DUP5 ADD SWAP1 PUSH1 0x1 ADD PUSH2 0x1460 JUMP JUMPDEST POP POP POP DUP4 DUP2 SUB DUP3 DUP6 ADD MSTORE DUP5 MLOAD DUP1 DUP3 MSTORE DUP6 DUP4 ADD SWAP2 DUP4 ADD SWAP1 PUSH1 0x0 JUMPDEST DUP2 DUP2 LT ISZERO PUSH2 0x14BA JUMPI DUP4 MLOAD DUP4 MSTORE SWAP3 DUP5 ADD SWAP3 SWAP2 DUP5 ADD SWAP2 PUSH1 0x1 ADD PUSH2 0x149E JUMP JUMPDEST POP SWAP1 SWAP8 SWAP7 POP POP POP POP POP POP POP JUMP JUMPDEST PUSH1 0x0 JUMPDEST DUP4 DUP2 LT ISZERO PUSH2 0x14E2 JUMPI DUP2 DUP2 ADD MLOAD DUP4 DUP3 ADD MSTORE PUSH1 0x20 ADD PUSH2 0x14CA JUMP JUMPDEST POP POP PUSH1 0x0 SWAP2 ADD MSTORE JUMP JUMPDEST PUSH1 0x0 DUP2 MLOAD DUP1 DUP5 MSTORE PUSH2 0x1503 DUP2 PUSH1 0x20 DUP7 ADD PUSH1 0x20 DUP7 ADD PUSH2 0x14C7 JUMP JUMPDEST PUSH1 0x1F ADD PUSH1 0x1F NOT AND SWAP3 SWAP1 SWAP3 ADD PUSH1 0x20 ADD SWAP3 SWAP2 POP POP JUMP JUMPDEST PUSH1 0x1 PUSH1 0x1 PUSH1 0xA0 SHL SUB DUP11 AND DUP2 MSTORE PUSH2 0x120 PUSH1 0x20 DUP3 ADD DUP2 SWAP1 MSTORE PUSH1 0x0 SWAP1 PUSH2 0x153C DUP4 DUP3 ADD DUP13 PUSH2 0x14EB JUMP JUMPDEST SWAP1 POP DUP3 DUP2 SUB PUSH1 0x40 DUP5 ADD MSTORE PUSH2 0x1550 DUP2 DUP12 PUSH2 0x14EB JUMP JUMPDEST SWAP1 POP DUP9 PUSH1 0x60 DUP5 ADD MSTORE DUP8 PUSH1 0x80 DUP5 ADD MSTORE DUP7 PUSH1 0xA0 DUP5 ADD MSTORE DUP3 DUP2 SUB PUSH1 0xC0 DUP5 ADD MSTORE PUSH2 0x1576 DUP2 DUP8 PUSH2 0x14EB JUMP JUMPDEST SWAP1 POP DUP3 DUP2 SUB PUSH1 0xE0 DUP5 ADD MSTORE PUSH2 0x158A DUP2 DUP7 PUSH2 0x14EB JUMP JUMPDEST SWAP1 POP DUP3 DUP2 SUB PUSH2 0x100 DUP5 ADD MSTORE PUSH2 0x159F DUP2 DUP6 PUSH2 0x14EB JUMP JUMPDEST SWAP13 SWAP12 POP POP POP POP POP POP POP POP POP POP POP POP JUMP JUMPDEST PUSH4 0x4E487B71 PUSH1 0xE0 SHL PUSH1 0x0 MSTORE PUSH1 0x41 PUSH1 0x4 MSTORE PUSH1 0x24 PUSH1 0x0 REVERT JUMPDEST PUSH1 0x0 DUP3 PUSH1 0x1F DUP4 ADD SLT PUSH2 0x15D6 JUMPI PUSH1 0x0 DUP1 REVERT JUMPDEST DUP2 CALLDATALOAD PUSH8 0xFFFFFFFFFFFFFFFF DUP1 DUP3 GT ISZERO PUSH2 0x15F1 JUMPI PUSH2 0x15F1 PUSH2 0x15AF JUMP JUMPDEST PUSH1 0x40 MLOAD PUSH1 0x1F DUP4 ADD PUSH1 0x1F NOT SWAP1 DUP2 AND PUSH1 0x3F ADD AND DUP2 ADD SWAP1 DUP3 DUP3 GT DUP2 DUP4 LT OR ISZERO PUSH2 0x1619 JUMPI PUSH2 0x1619 PUSH2 0x15AF JUMP JUMPDEST DUP2 PUSH1 0x40 MSTORE DUP4 DUP2 MSTORE DUP7 PUSH1 0x20 DUP6 DUP9 ADD ADD GT ISZERO PUSH2 0x1632 JUMPI PUSH1 0x0 DUP1 REVERT JUMPDEST DUP4 PUSH1 0x20 DUP8 ADD PUSH1 0x20 DUP4 ADD CALLDATACOPY PUSH1 0x0 PUSH1 0x20 DUP6 DUP4 ADD ADD MSTORE DUP1 SWAP5 POP POP POP POP POP SWAP3 SWAP2 POP POP JUMP JUMPDEST PUSH1 0x0 DUP1 PUSH1 0x40 DUP4 DUP6 SUB SLT ISZERO PUSH2 0x1665 JUMPI PUSH1 0x0 DUP1 REVERT JUMPDEST DUP3 CALLDATALOAD PUSH8 0xFFFFFFFFFFFFFFFF DUP1 DUP3 GT ISZERO PUSH2 0x167D JUMPI PUSH1 0x0 DUP1 REVERT JUMPDEST PUSH2 0x1689 DUP7 DUP4 DUP8 ADD PUSH2 0x15C5 JUMP JUMPDEST SWAP4 POP PUSH1 0x20 DUP6 ADD CALLDATALOAD SWAP2 POP DUP1 DUP3 GT ISZERO PUSH2 0x169F JUMPI PUSH1 0x0 DUP1 REVERT JUMPDEST POP PUSH2 0x16AC DUP6 DUP3 DUP7 ADD PUSH2 0x15C5 JUMP JUMPDEST SWAP2 POP POP SWAP3 POP SWAP3 SWAP1 POP JUMP JUMPDEST DUP1 CALLDATALOAD PUSH1 0x1 PUSH1 0x1 PUSH1 0xA0 SHL SUB DUP2 AND DUP2 EQ PUSH2 0x16CD JUMPI PUSH1 0x0 DUP1 REVERT JUMPDEST SWAP2 SWAP1 POP JUMP JUMPDEST PUSH1 0x0 PUSH1 0x20 DUP3 DUP5 SUB SLT ISZERO PUSH2 0x16E4 JUMPI PUSH1 0x0 DUP1 REVERT JUMPDEST PUSH2 0x16ED DUP3 PUSH2 0x16B6 JUMP JUMPDEST SWAP4 SWAP3 POP POP POP JUMP JUMPDEST PUSH1 0x0 DUP1 PUSH1 0x0 DUP1 PUSH1 0x0 DUP1 PUSH1 0x0 DUP1 PUSH2 0x100 DUP10 DUP12 SUB SLT ISZERO PUSH2 0x1711 JUMPI PUSH1 0x0 DUP1 REVERT JUMPDEST PUSH2 0x171A DUP10 PUSH2 0x16B6 JUMP JUMPDEST SWAP8 POP PUSH1 0x20 DUP10 ADD CALLDATALOAD PUSH8 0xFFFFFFFFFFFFFFFF DUP1 DUP3 GT ISZERO PUSH2 0x1737 JUMPI PUSH1 0x0 DUP1 REVERT JUMPDEST PUSH2 0x1743 DUP13 DUP4 DUP14 ADD PUSH2 0x15C5 JUMP JUMPDEST SWAP9 POP PUSH1 0x40 DUP12 ADD CALLDATALOAD SWAP2 POP DUP1 DUP3 GT ISZERO PUSH2 0x1759 JUMPI PUSH1 0x0 DUP1 REVERT JUMPDEST PUSH2 0x1765 DUP13 DUP4 DUP14 ADD PUSH2 0x15C5 JUMP JUMPDEST SWAP8 POP PUSH1 0x60 DUP12 ADD CALLDATALOAD SWAP7 POP PUSH1 0x80 DUP12 ADD CALLDATALOAD SWAP6 POP PUSH1 0xA0 DUP12 ADD CALLDATALOAD SWAP2 POP DUP1 DUP3 GT ISZERO PUSH2 0x1789 JUMPI PUSH1 0x0 DUP1 REVERT JUMPDEST PUSH2 0x1795 DUP13 DUP4 DUP14 ADD PUSH2 0x15C5 JUMP JUMPDEST SWAP5 POP PUSH1 0xC0 DUP12 ADD CALLDATALOAD SWAP2 POP DUP1 DUP3 GT ISZERO PUSH2 0x17AB JUMPI PUSH1 0x0 DUP1 REVERT JUMPDEST PUSH2 0x17B7 DUP13 DUP4 DUP14 ADD PUSH2 0x15C5 JUMP JUMPDEST SWAP4 POP PUSH1 0xE0 DUP12 ADD CALLDATALOAD SWAP2 POP DUP1 DUP3 GT ISZERO PUSH2 0x17CD JUMPI PUSH1 0x0 DUP1 REVERT JUMPDEST POP PUSH2 0x17DA DUP12 DUP3 DUP13 ADD PUSH2 0x15C5 JUMP JUMPDEST SWAP2 POP POP SWAP3 SWAP6 SWAP9 POP SWAP3 SWAP6 SWAP9 SWAP1 SWAP4 SWAP7 POP JUMP JUMPDEST PUSH1 0x0 DUP2 MLOAD DUP1 DUP5 MSTORE PUSH1 0x20 DUP1 DUP6 ADD SWAP5 POP DUP1 DUP5 ADD PUSH1 0x0 JUMPDEST DUP4 DUP2 LT ISZERO PUSH2 0x1823 JUMPI DUP2 MLOAD PUSH1 0x1 PUSH1 0x1 PUSH1 0xA0 SHL SUB AND DUP8 MSTORE SWAP6 DUP3 ADD SWAP6 SWAP1 DUP3 ADD SWAP1 PUSH1 0x1 ADD PUSH2 0x17FE JUMP JUMPDEST POP SWAP5 SWAP6 SWAP5 POP POP POP POP POP JUMP JUMPDEST PUSH1 0x0 DUP2 MLOAD DUP1 DUP5 MSTORE PUSH1 0x20 DUP1 DUP6 ADD SWAP5 POP DUP1 DUP5 ADD PUSH1 0x0 JUMPDEST DUP4 DUP2 LT ISZERO PUSH2 0x1823 JUMPI DUP2 MLOAD DUP8 MSTORE SWAP6 DUP3 ADD SWAP6 SWAP1 DUP3 ADD SWAP1 PUSH1 0x1 ADD PUSH2 0x1842 JUMP JUMPDEST PUSH1 0x0 PUSH1 0x20 DUP1 DUP4 ADD DUP2 DUP5 MSTORE DUP1 DUP6 MLOAD DUP1 DUP4 MSTORE PUSH1 0x40 SWAP3 POP DUP3 DUP7 ADD SWAP2 POP DUP3 DUP2 PUSH1 0x5 SHL DUP8 ADD ADD DUP5 DUP9 ADD PUSH1 0x0 JUMPDEST DUP4 DUP2 LT ISZERO PUSH2 0x1995 JUMPI DUP9 DUP4 SUB PUSH1 0x3F NOT ADD DUP6 MSTORE DUP2 MLOAD DUP1 MLOAD PUSH1 0x1 PUSH1 0x1 PUSH1 0xA0 SHL SUB AND DUP5 MSTORE PUSH2 0x160 DUP9 DUP3 ADD MLOAD DUP2 DUP11 DUP8 ADD MSTORE PUSH2 0x18BD DUP3 DUP8 ADD DUP3 PUSH2 0x14EB JUMP JUMPDEST SWAP2 POP POP DUP8 DUP3 ADD MLOAD DUP6 DUP3 SUB DUP10 DUP8 ADD MSTORE PUSH2 0x18D5 DUP3 DUP3 PUSH2 0x14EB JUMP JUMPDEST PUSH1 0x60 DUP5 DUP2 ADD MLOAD SWAP1 DUP9 ADD MSTORE PUSH1 0x80 DUP1 DUP6 ADD MLOAD SWAP1 DUP9 ADD MSTORE PUSH1 0xA0 DUP1 DUP6 ADD MLOAD SWAP1 DUP9 ADD MSTORE PUSH1 0xC0 DUP1 DUP6 ADD MLOAD DUP9 DUP4 SUB DUP3 DUP11 ADD MSTORE SWAP2 SWAP4 POP SWAP2 POP PUSH2 0x190F DUP4 DUP3 PUSH2 0x14EB JUMP JUMPDEST SWAP3 POP POP POP PUSH1 0xE0 DUP1 DUP4 ADD MLOAD DUP7 DUP4 SUB DUP3 DUP9 ADD MSTORE PUSH2 0x192A DUP4 DUP3 PUSH2 0x14EB JUMP JUMPDEST SWAP3 POP POP POP PUSH2 0x100 DUP1 DUP4 ADD MLOAD DUP7 DUP4 SUB DUP3 DUP9 ADD MSTORE PUSH2 0x1946 DUP4 DUP3 PUSH2 0x14EB JUMP JUMPDEST SWAP3 POP POP POP PUSH2 0x120 DUP1 DUP4 ADD MLOAD DUP7 DUP4 SUB DUP3 DUP9 ADD MSTORE PUSH2 0x1962 DUP4 DUP3 PUSH2 0x17EA JUMP JUMPDEST SWAP3 POP POP POP PUSH2 0x140 DUP1 DUP4 ADD MLOAD SWAP3 POP DUP6 DUP3 SUB DUP2 DUP8 ADD MSTORE POP PUSH2 0x1981 DUP2 DUP4 PUSH2 0x182E JUMP JUMPDEST SWAP7 DUP10 ADD SWAP7 SWAP5 POP POP POP SWAP1 DUP7 ADD SWAP1 PUSH1 0x1 ADD PUSH2 0x1885 JUMP JUMPDEST POP SWAP1 SWAP9 SWAP8 POP POP POP POP POP POP POP POP JUMP JUMPDEST PUSH1 0x60 DUP2 MSTORE PUSH1 0x0 PUSH2 0x19B6 PUSH1 0x60 DUP4 ADD DUP7 PUSH2 0x14EB JUMP JUMPDEST PUSH1 0x20 DUP4 ADD SWAP5 SWAP1 SWAP5 MSTORE POP PUSH1 0x1 PUSH1 0x1 PUSH1 0xA0 SHL SUB SWAP2 SWAP1 SWAP2 AND PUSH1 0x40 SWAP1 SWAP2 ADD MSTORE SWAP2 SWAP1 POP JUMP JUMPDEST PUSH1 0x0 PUSH1 0x20 DUP3 DUP5 SUB SLT ISZERO PUSH2 0x19E8 JUMPI PUSH1 0x0 DUP1 REVERT JUMPDEST DUP2 CALLDATALOAD PUSH8 0xFFFFFFFFFFFFFFFF DUP2 GT ISZERO PUSH2 0x19FF JUMPI PUSH1 0x0 DUP1 REVERT JUMPDEST PUSH2 0x1A0B DUP5 DUP3 DUP6 ADD PUSH2 0x15C5 JUMP JUMPDEST SWAP5 SWAP4 POP POP POP POP JUMP JUMPDEST PUSH1 0x0 DUP1 PUSH1 0x0 DUP1 PUSH1 0x80 DUP6 DUP8 SUB SLT ISZERO PUSH2 0x1A29 JUMPI PUSH1 0x0 DUP1 REVERT JUMPDEST DUP5 CALLDATALOAD PUSH8 0xFFFFFFFFFFFFFFFF DUP1 DUP3 GT ISZERO PUSH2 0x1A41 JUMPI PUSH1 0x0 DUP1 REVERT JUMPDEST PUSH2 0x1A4D DUP9 DUP4 DUP10 ADD PUSH2 0x15C5 JUMP JUMPDEST SWAP6 POP PUSH1 0x20 DUP8 ADD CALLDATALOAD SWAP2 POP DUP1 DUP3 GT ISZERO PUSH2 0x1A63 JUMPI PUSH1 0x0 DUP1 REVERT JUMPDEST PUSH2 0x1A6F DUP9 DUP4 DUP10 ADD PUSH2 0x15C5 JUMP JUMPDEST SWAP5 POP PUSH1 0x40 DUP8 ADD CALLDATALOAD SWAP2 POP DUP1 DUP3 GT ISZERO PUSH2 0x1A85 JUMPI PUSH1 0x0 DUP1 REVERT JUMPDEST POP PUSH2 0x1A92 DUP8 DUP3 DUP9 ADD PUSH2 0x15C5 JUMP JUMPDEST SWAP3 POP POP PUSH2 0x1AA1 PUSH1 0x60 DUP7 ADD PUSH2 0x16B6 JUMP JUMPDEST SWAP1 POP SWAP3 SWAP6 SWAP2 SWAP5 POP SWAP3 POP JUMP JUMPDEST PUSH1 0x1 DUP2 DUP2 SHR SWAP1 DUP3 AND DUP1 PUSH2 0x1AC0 JUMPI PUSH1 0x7F DUP3 AND SWAP2 POP JUMPDEST PUSH1 0x20 DUP3 LT DUP2 SUB PUSH2 0x1AE0 JUMPI PUSH4 0x4E487B71 PUSH1 0xE0 SHL PUSH1 0x0 MSTORE PUSH1 0x22 PUSH1 0x4 MSTORE PUSH1 0x24 PUSH1 0x0 REVERT JUMPDEST POP SWAP2 SWAP1 POP JUMP JUMPDEST PUSH1 0x0 DUP3 MLOAD PUSH2 0x1AF8 DUP2 DUP5 PUSH1 0x20 DUP8 ADD PUSH2 0x14C7 JUMP JUMPDEST SWAP2 SWAP1 SWAP2 ADD SWAP3 SWAP2 POP POP JUMP JUMPDEST PUSH1 0x1 PUSH1 0x1 PUSH1 0xA0 SHL SUB DUP4 AND DUP2 MSTORE PUSH1 0x40 PUSH1 0x20 DUP3 ADD DUP2 SWAP1 MSTORE PUSH1 0x0 SWAP1 PUSH2 0x1A0B SWAP1 DUP4 ADD DUP5 PUSH2 0x14EB JUMP JUMPDEST PUSH4 0x4E487B71 PUSH1 0xE0 SHL PUSH1 0x0 MSTORE PUSH1 0x11 PUSH1 0x4 MSTORE PUSH1 0x24 PUSH1 0x0 REVERT JUMPDEST DUP1 DUP3 ADD DUP1 DUP3 GT ISZERO PUSH2 0x8D4 JUMPI PUSH2 0x8D4 PUSH2 0x1B26 JUMP JUMPDEST PUSH1 0x1F DUP3 GT ISZERO PUSH2 0x1B99 JUMPI PUSH1 0x0 DUP2 DUP2 MSTORE PUSH1 0x20 DUP2 KECCAK256 PUSH1 0x1F DUP6 ADD PUSH1 0x5 SHR DUP2 ADD PUSH1 0x20 DUP7 LT ISZERO PUSH2 0x1B76 JUMPI POP DUP1 JUMPDEST PUSH1 0x1F DUP6 ADD PUSH1 0x5 SHR DUP3 ADD SWAP2 POP JUMPDEST DUP2 DUP2 LT ISZERO PUSH2 0x1B95 JUMPI DUP3 DUP2 SSTORE PUSH1 0x1 ADD PUSH2 0x1B82 JUMP JUMPDEST POP POP POP JUMPDEST POP POP POP JUMP JUMPDEST DUP2 MLOAD PUSH8 0xFFFFFFFFFFFFFFFF DUP2 GT ISZERO PUSH2 0x1BB8 JUMPI PUSH2 0x1BB8 PUSH2 0x15AF JUMP JUMPDEST PUSH2 0x1BCC DUP2 PUSH2 0x1BC6 DUP5 SLOAD PUSH2 0x1AAC JUMP JUMPDEST DUP5 PUSH2 0x1B4F JUMP JUMPDEST PUSH1 0x20 DUP1 PUSH1 0x1F DUP4 GT PUSH1 0x1 DUP2 EQ PUSH2 0x1C01 JUMPI PUSH1 0x0 DUP5 ISZERO PUSH2 0x1BE9 JUMPI POP DUP6 DUP4 ADD MLOAD JUMPDEST PUSH1 0x0 NOT PUSH1 0x3 DUP7 SWAP1 SHL SHR NOT AND PUSH1 0x1 DUP6 SWAP1 SHL OR DUP6 SSTORE PUSH2 0x1B95 JUMP JUMPDEST PUSH1 0x0 DUP6 DUP2 MSTORE PUSH1 0x20 DUP2 KECCAK256 PUSH1 0x1F NOT DUP7 AND SWAP2 JUMPDEST DUP3 DUP2 LT ISZERO PUSH2 0x1C30 JUMPI DUP9 DUP7 ADD MLOAD DUP3 SSTORE SWAP5 DUP5 ADD SWAP5 PUSH1 0x1 SWAP1 SWAP2 ADD SWAP1 DUP5 ADD PUSH2 0x1C11 JUMP JUMPDEST POP DUP6 DUP3 LT ISZERO PUSH2 0x1C4E JUMPI DUP8 DUP6 ADD MLOAD PUSH1 0x0 NOT PUSH1 0x3 DUP9 SWAP1 SHL PUSH1 0xF8 AND SHR NOT AND DUP2 SSTORE JUMPDEST POP POP POP POP POP PUSH1 0x1 SWAP1 DUP2 SHL ADD SWAP1 SSTORE POP JUMP JUMPDEST PUSH1 0x0 PUSH1 0x1 DUP3 ADD PUSH2 0x1C70 JUMPI PUSH2 0x1C70 PUSH2 0x1B26 JUMP JUMPDEST POP PUSH1 0x1 ADD SWAP1 JUMP JUMPDEST DUP2 DUP2 SUB DUP2 DUP2 GT ISZERO PUSH2 0x8D4 JUMPI PUSH2 0x8D4 PUSH2 0x1B26 JUMP JUMPDEST PUSH4 0x4E487B71 PUSH1 0xE0 SHL PUSH1 0x0 MSTORE PUSH1 0x32 PUSH1 0x4 MSTORE PUSH1 0x24 PUSH1 0x0 REVERT INVALID LOG2 PUSH5 0x6970667358 0x22 SLT KECCAK256 0xEB 0xCE 0xF9 SELFBALANCE SIGNEXTEND 0xB8 0xAC 0xFB 0xE7 SWAP12 PUSH11 0x1FBD2F2CE34699FF8E47B5 0xA7 SWAP14 CREATE EQ CREATE2 JUMPDEST AND DUP11 SWAP14 MLOAD PUSH5 0x736F6C6343 STOP ADDMOD GT STOP CALLER "},"methodIdentifiers":{"campaigns(uint256)":"141961bc","createCampaign(address,string,string,uint256,uint256,string,string,string)":"61620866","donateToCampaign(uint256)":"42a4fda8","emailToAddress(string)":"ea78dcbf","getAddressByEmail(string)":"c5caea01","getCampaigns()":"a6b03633","getDonators(uint256)":"0fa91fa9","isAddressRegistered(address)":"38b6a3a1","isEmailRegistered(string)":"df3cdad7","numberOfCampaigns()":"07ca140d","registerUser(string,string,string,address)":"fd3c9952","signIn(string,string)":"2c162dbc","userCount()":"07973ccf","users(address)":"a87430ba"}}}}}