{
  "_format": "hh-sol-artifact-1",
  "contractName": "CloudFunding",
  "sourceName": "contracts/CloudFunding.sol",
  "abi": [
    {
      "inputs": [],
      "stateMutability": "nonpayable",
      "type": "constructor"
    },
    {
      "anonymous": false,
      "inputs": [
        {
          "indexed": false,
          "internalType": "address",
          "name": "walletAddress",
          "type": "address"
        },
        {
          "indexed": false,
          "internalType": "string",
          "name": "emailId",
          "type": "string"
        }
      ],
      "name": "UserLoggedIn",
      "type": "event"
    },
    {
      "anonymous": false,
      "inputs": [
        {
          "indexed": false,
          "internalType": "address",
          "name": "walletAddress",
          "type": "address"
        },
        {
          "indexed": false,
          "internalType": "string",
          "name": "emailId",
          "type": "string"
        }
      ],
      "name": "UserRegistered",
      "type": "event"
    },
    {
      "inputs": [
        {
          "internalType": "uint256",
          "name": "",
          "type": "uint256"
        }
      ],
      "name": "campaigns",
      "outputs": [
        {
          "internalType": "address",
          "name": "owner",
          "type": "address"
        },
        {
          "internalType": "string",
          "name": "title",
          "type": "string"
        },
        {
          "internalType": "string",
          "name": "description",
          "type": "string"
        },
        {
          "internalType": "uint256",
          "name": "target",
          "type": "uint256"
        },
        {
          "internalType": "uint256",
          "name": "deadline",
          "type": "uint256"
        },
        {
          "internalType": "uint256",
          "name": "amountCollected",
          "type": "uint256"
        },
        {
          "internalType": "string",
          "name": "image",
          "type": "string"
        },
        {
          "internalType": "string",
          "name": "campaigntype",
          "type": "string"
        },
        {
          "internalType": "string",
          "name": "documentlink",
          "type": "string"
        }
      ],
      "stateMutability": "view",
      "type": "function"
    },
    {
      "inputs": [
        {
          "internalType": "address",
          "name": "_owner",
          "type": "address"
        },
        {
          "internalType": "string",
          "name": "_title",
          "type": "string"
        },
        {
          "internalType": "string",
          "name": "_description",
          "type": "string"
        },
        {
          "internalType": "uint256",
          "name": "_target",
          "type": "uint256"
        },
        {
          "internalType": "uint256",
          "name": "_deadline",
          "type": "uint256"
        },
        {
          "internalType": "string",
          "name": "_image",
          "type": "string"
        },
        {
          "internalType": "string",
          "name": "_campaigntype",
          "type": "string"
        },
        {
          "internalType": "string",
          "name": "_documentlink",
          "type": "string"
        }
      ],
      "name": "createCampaign",
      "outputs": [
        {
          "internalType": "uint256",
          "name": "",
          "type": "uint256"
        }
      ],
      "stateMutability": "nonpayable",
      "type": "function"
    },
    {
      "inputs": [
        {
          "internalType": "uint256",
          "name": "_id",
          "type": "uint256"
        }
      ],
      "name": "donateToCampaign",
      "outputs": [],
      "stateMutability": "payable",
      "type": "function"
    },
    {
      "inputs": [
        {
          "internalType": "string",
          "name": "",
          "type": "string"
        }
      ],
      "name": "emailToAddress",
      "outputs": [
        {
          "internalType": "address",
          "name": "",
          "type": "address"
        }
      ],
      "stateMutability": "view",
      "type": "function"
    },
    {
      "inputs": [
        {
          "internalType": "string",
          "name": "emailId",
          "type": "string"
        }
      ],
      "name": "getAddressByEmail",
      "outputs": [
        {
          "internalType": "address",
          "name": "",
          "type": "address"
        }
      ],
      "stateMutability": "view",
      "type": "function"
    },
    {
      "inputs": [],
      "name": "getCampaigns",
      "outputs": [
        {
          "components": [
            {
              "internalType": "address",
              "name": "owner",
              "type": "address"
            },
            {
              "internalType": "string",
              "name": "title",
              "type": "string"
            },
            {
              "internalType": "string",
              "name": "description",
              "type": "string"
            },
            {
              "internalType": "uint256",
              "name": "target",
              "type": "uint256"
            },
            {
              "internalType": "uint256",
              "name": "deadline",
              "type": "uint256"
            },
            {
              "internalType": "uint256",
              "name": "amountCollected",
              "type": "uint256"
            },
            {
              "internalType": "string",
              "name": "image",
              "type": "string"
            },
            {
              "internalType": "string",
              "name": "campaigntype",
              "type": "string"
            },
            {
              "internalType": "string",
              "name": "documentlink",
              "type": "string"
            },
            {
              "internalType": "address[]",
              "name": "donators",
              "type": "address[]"
            },
            {
              "internalType": "uint256[]",
              "name": "donations",
              "type": "uint256[]"
            }
          ],
          "internalType": "struct CloudFunding.Campaign[]",
          "name": "",
          "type": "tuple[]"
        }
      ],
      "stateMutability": "view",
      "type": "function"
    },
    {
      "inputs": [
        {
          "internalType": "uint256",
          "name": "_id",
          "type": "uint256"
        }
      ],
      "name": "getDonators",
      "outputs": [
        {
          "internalType": "address[]",
          "name": "",
          "type": "address[]"
        },
        {
          "internalType": "uint256[]",
          "name": "",
          "type": "uint256[]"
        }
      ],
      "stateMutability": "view",
      "type": "function"
    },
    {
      "inputs": [
        {
          "internalType": "address",
          "name": "walletAddress",
          "type": "address"
        }
      ],
      "name": "isAddressRegistered",
      "outputs": [
        {
          "internalType": "bool",
          "name": "",
          "type": "bool"
        }
      ],
      "stateMutability": "view",
      "type": "function"
    },
    {
      "inputs": [
        {
          "internalType": "string",
          "name": "emailId",
          "type": "string"
        }
      ],
      "name": "isEmailRegistered",
      "outputs": [
        {
          "internalType": "bool",
          "name": "",
          "type": "bool"
        }
      ],
      "stateMutability": "view",
      "type": "function"
    },
    {
      "inputs": [],
      "name": "numberOfCampaigns",
      "outputs": [
        {
          "internalType": "uint256",
          "name": "",
          "type": "uint256"
        }
      ],
      "stateMutability": "view",
      "type": "function"
    },
    {
      "inputs": [
        {
          "internalType": "string",
          "name": "emailId",
          "type": "string"
        },
        {
          "internalType": "string",
          "name": "password",
          "type": "string"
        },
        {
          "internalType": "string",
          "name": "confirmPassword",
          "type": "string"
        },
        {
          "internalType": "address",
          "name": "walletAddress",
          "type": "address"
        }
      ],
      "name": "registerUser",
      "outputs": [],
      "stateMutability": "nonpayable",
      "type": "function"
    },
    {
      "inputs": [
        {
          "internalType": "string",
          "name": "emailId",
          "type": "string"
        },
        {
          "internalType": "string",
          "name": "password",
          "type": "string"
        }
      ],
      "name": "signIn",
      "outputs": [
        {
          "internalType": "bool",
          "name": "",
          "type": "bool"
        }
      ],
      "stateMutability": "nonpayable",
      "type": "function"
    },
    {
      "inputs": [],
      "name": "userCount",
      "outputs": [
        {
          "internalType": "uint256",
          "name": "",
          "type": "uint256"
        }
      ],
      "stateMutability": "view",
      "type": "function"
    },
    {
      "inputs": [
        {
          "internalType": "address",
          "name": "",
          "type": "address"
        }
      ],
      "name": "users",
      "outputs": [
        {
          "internalType": "string",
          "name": "emailId",
          "type": "string"
        },
        {
          "internalType": "bytes32",
          "name": "hashedPassword",
          "type": "bytes32"
        },
        {
          "internalType": "address",
          "name": "walletAddress",
          "type": "address"
        }
      ],
      "stateMutability": "view",
      "type": "function"
    }
  ],
  "bytecode": "0x6080604052600060065534801561001557600080fd5b506000600455611cd68061002a6000396000f3fe6080604052600436106100dd5760003560e01c8063616208661161007f578063c5caea0111610059578063c5caea0114610273578063df3cdad7146102ab578063ea78dcbf146102cb578063fd3c99521461030c57600080fd5b80636162086614610202578063a6b0363314610222578063a87430ba1461024457600080fd5b8063141961bc116100bb578063141961bc1461014f5780632c162dbc1461018457806338b6a3a1146101b457806342a4fda8146101ed57600080fd5b806307973ccf146100e257806307ca140d1461010b5780630fa91fa914610121575b600080fd5b3480156100ee57600080fd5b506100f860045481565b6040519081526020015b60405180910390f35b34801561011757600080fd5b506100f860065481565b34801561012d57600080fd5b5061014161013c36600461142a565b61032c565b604051610102929190611443565b34801561015b57600080fd5b5061016f61016a36600461142a565b6103fd565b60405161010299989796959493929190611517565b34801561019057600080fd5b506101a461019f366004611652565b6106f6565b6040519015158152602001610102565b3480156101c057600080fd5b506101a46101cf3660046116d2565b6001600160a01b031660009081526001602052604090205460ff1690565b6102006101fb36600461142a565b6108da565b005b34801561020e57600080fd5b506100f861021d3660046116f4565b61099e565b34801561022e57600080fd5b50610237610ac2565b604051610102919061185e565b34801561025057600080fd5b5061026461025f3660046116d2565b611018565b604051610102939291906119a3565b34801561027f57600080fd5b5061029361028e3660046119d6565b6110cc565b6040516001600160a01b039091168152602001610102565b3480156102b757600080fd5b506101a46102c63660046119d6565b6110fd565b3480156102d757600080fd5b506102936102e63660046119d6565b80516020818301810180516003825292820191909301209152546001600160a01b031681565b34801561031857600080fd5b50610200610327366004611a13565b611127565b60008181526005602090815260409182902060098101805484518185028101850190955280855260609485949293600a01929091849183018282801561039b57602002820191906000526020600020905b81546001600160a01b0316815260019091019060200180831161037d575b50505050509150808054806020026020016040519081016040528092919081815260200182805480156103ed57602002820191906000526020600020905b8154815260200190600101908083116103d9575b5050505050905091509150915091565b600560205260009081526040902080546001820180546001600160a01b03909216929161042990611aac565b80601f016020809104026020016040519081016040528092919081815260200182805461045590611aac565b80156104a25780601f10610477576101008083540402835291602001916104a2565b820191906000526020600020905b81548152906001019060200180831161048557829003601f168201915b5050505050908060020180546104b790611aac565b80601f01602080910402602001604051908101604052809291908181526020018280546104e390611aac565b80156105305780601f1061050557610100808354040283529160200191610530565b820191906000526020600020905b81548152906001019060200180831161051357829003601f168201915b50505050509080600301549080600401549080600501549080600601805461055790611aac565b80601f016020809104026020016040519081016040528092919081815260200182805461058390611aac565b80156105d05780601f106105a5576101008083540402835291602001916105d0565b820191906000526020600020905b8154815290600101906020018083116105b357829003601f168201915b5050505050908060070180546105e590611aac565b80601f016020809104026020016040519081016040528092919081815260200182805461061190611aac565b801561065e5780601f106106335761010080835404028352916020019161065e565b820191906000526020600020905b81548152906001019060200180831161064157829003601f168201915b50505050509080600801805461067390611aac565b80601f016020809104026020016040519081016040528092919081815260200182805461069f90611aac565b80156106ec5780601f106106c1576101008083540402835291602001916106ec565b820191906000526020600020905b8154815290600101906020018083116106cf57829003601f168201915b5050505050905089565b600080610702846110cc565b90506001600160a01b0381166107515760405162461bcd60e51b815260206004820152600f60248201526e2ab9b2b9103737ba103337bab7321760891b60448201526064015b60405180910390fd5b6001600160a01b03811660009081526002602052604080822081516060810190925280548290829061078290611aac565b80601f01602080910402602001604051908101604052809291908181526020018280546107ae90611aac565b80156107fb5780601f106107d0576101008083540402835291602001916107fb565b820191906000526020600020905b8154815290600101906020018083116107de57829003601f168201915b505050918352505060018201546020808301919091526002909201546001600160a01b03166040918201525191925061083691869101611ae6565b604051602081830303815290604052805190602001208160200151146108945760405162461bcd60e51b815260206004820152601360248201527224b731b7b93932b1ba103830b9b9bbb7b9321760691b6044820152606401610748565b7ffd7a49bf0be38d61ec3404f450519a68eb8bdd1edb8729b6c5f8c139e9dafeaf82866040516108c5929190611b02565b60405180910390a16001925050505b92915050565b6000818152600560209081526040808320600981018054600180820183559186528486200180546001600160a01b03191633179055600a8201805491820181558552928420349301839055805491519293909290916001600160a01b03169084908381818185875af1925050503d8060008114610973576040519150601f19603f3d011682016040523d82523d6000602084013e610978565b606091505b505090508015610998578282600501546109929190611b3c565b60058301555b50505050565b600654600090815260056020526040812060048101544211610a175760405162461bcd60e51b815260206004820152602c60248201527f54686520646561646c696e652073686f756c642062652061206461746520696e60448201526b103a343290333aba3ab9329760a11b6064820152608401610748565b80546001600160a01b0319166001600160a01b038b1617815560018101610a3e8a82611b9e565b5060028101610a4d8982611b9e565b5060038101879055600481018690556000600582015560068101610a718682611b9e565b5060078101610a808582611b9e565b5060088101610a8f8482611b9e565b5060068054906000610aa083611c5e565b91905055506001600654610ab49190611c77565b9a9950505050505050505050565b60606000805b600654811015610b10576000818152600560205260409020546001600160a01b03163314610afe5781610afa81611c5e565b9250505b80610b0881611c5e565b915050610ac8565b5060008167ffffffffffffffff811115610b2c57610b2c6115af565b604051908082528060200260200182016040528015610bc357816020015b610bb060405180610160016040528060006001600160a01b03168152602001606081526020016060815260200160008152602001600081526020016000815260200160608152602001606081526020016060815260200160608152602001606081525090565b815260200190600190039081610b4a5790505b5090506000805b60065481101561100f576000818152600560205260409020546001600160a01b03163314610ffd576000818152600560209081526040918290208251610160810190935280546001600160a01b031683526001810180549192840191610c2f90611aac565b80601f0160208091040260200160405190810160405280929190818152602001828054610c5b90611aac565b8015610ca85780601f10610c7d57610100808354040283529160200191610ca8565b820191906000526020600020905b815481529060010190602001808311610c8b57829003601f168201915b50505050508152602001600282018054610cc190611aac565b80601f0160208091040260200160405190810160405280929190818152602001828054610ced90611aac565b8015610d3a5780601f10610d0f57610100808354040283529160200191610d3a565b820191906000526020600020905b815481529060010190602001808311610d1d57829003601f168201915b50505050508152602001600382015481526020016004820154815260200160058201548152602001600682018054610d7190611aac565b80601f0160208091040260200160405190810160405280929190818152602001828054610d9d90611aac565b8015610dea5780601f10610dbf57610100808354040283529160200191610dea565b820191906000526020600020905b815481529060010190602001808311610dcd57829003601f168201915b50505050508152602001600782018054610e0390611aac565b80601f0160208091040260200160405190810160405280929190818152602001828054610e2f90611aac565b8015610e7c5780601f10610e5157610100808354040283529160200191610e7c565b820191906000526020600020905b815481529060010190602001808311610e5f57829003601f168201915b50505050508152602001600882018054610e9590611aac565b80601f0160208091040260200160405190810160405280929190818152602001828054610ec190611aac565b8015610f0e5780601f10610ee357610100808354040283529160200191610f0e565b820191906000526020600020905b815481529060010190602001808311610ef157829003601f168201915b5050505050815260200160098201805480602002602001604051908101604052809291908181526020018280548015610f7057602002820191906000526020600020905b81546001600160a01b03168152600190910190602001808311610f52575b50505050508152602001600a8201805480602002602001604051908101604052809291908181526020018280548015610fc857602002820191906000526020600020905b815481526020019060010190808311610fb4575b505050505081525050838381518110610fe357610fe3611c8a565b60200260200101819052508180610ff990611c5e565b9250505b8061100781611c5e565b915050610bca565b50909392505050565b60026020526000908152604090208054819061103390611aac565b80601f016020809104026020016040519081016040528092919081815260200182805461105f90611aac565b80156110ac5780601f10611081576101008083540402835291602001916110ac565b820191906000526020600020905b81548152906001019060200180831161108f57829003601f168201915b5050505060018301546002909301549192916001600160a01b0316905083565b60006003826040516110de9190611ae6565b908152604051908190036020019020546001600160a01b031692915050565b6000808260405161110e9190611ae6565b9081526040519081900360200190205460ff1692915050565b6000846040516111379190611ae6565b9081526040519081900360200190205460ff161561118f5760405162461bcd60e51b815260206004820152601560248201527422b6b0b4b61030b63932b0b23c9032bc34b9ba399760591b6044820152606401610748565b6001600160a01b03811660009081526001602052604090205460ff16156112035760405162461bcd60e51b815260206004820152602260248201527f57616c6c6574206164647265737320616c726561647920726567697374657265604482015261321760f11b6064820152608401610748565b816040516020016112149190611ae6565b604051602081830303815290604052805190602001208360405160200161123b9190611ae6565b604051602081830303815290604052805190602001201461129e5760405162461bcd60e51b815260206004820152601760248201527f50617373776f72647320646f206e6f74206d617463682e0000000000000000006044820152606401610748565b6000836040516020016112b19190611ae6565b60408051601f1981840301815282825280516020918201206060840183528884528382018190526001600160a01b0386168484018190526000908152600290925291902082519193509081906113079082611b9e565b506020820151816001015560408201518160020160006101000a8154816001600160a01b0302191690836001600160a01b0316021790555090505060016000866040516113549190611ae6565b908152604080519182900360209081018320805494151560ff199586161790556001600160a01b03861660009081526001918290529190912080549093161790915582906003906113a6908890611ae6565b90815260405190819003602001902080546001600160a01b03929092166001600160a01b0319909216919091179055600480549060006113e583611c5e565b91905055507f48cac28ad4dc618e15f4c2dd5e97751182f166de97b25618318b2112aa951a2f828660405161141b929190611b02565b60405180910390a15050505050565b60006020828403121561143c57600080fd5b5035919050565b604080825283519082018190526000906020906060840190828701845b828110156114855781516001600160a01b031684529284019290840190600101611460565b5050508381038285015284518082528583019183019060005b818110156114ba5783518352928401929184019160010161149e565b5090979650505050505050565b60005b838110156114e25781810151838201526020016114ca565b50506000910152565b600081518084526115038160208601602086016114c7565b601f01601f19169290920160200192915050565b6001600160a01b038a1681526101206020820181905260009061153c8382018c6114eb565b90508281036040840152611550818b6114eb565b90508860608401528760808401528660a084015282810360c084015261157681876114eb565b905082810360e084015261158a81866114eb565b905082810361010084015261159f81856114eb565b9c9b505050505050505050505050565b634e487b7160e01b600052604160045260246000fd5b600082601f8301126115d657600080fd5b813567ffffffffffffffff808211156115f1576115f16115af565b604051601f8301601f19908116603f01168101908282118183101715611619576116196115af565b8160405283815286602085880101111561163257600080fd5b836020870160208301376000602085830101528094505050505092915050565b6000806040838503121561166557600080fd5b823567ffffffffffffffff8082111561167d57600080fd5b611689868387016115c5565b9350602085013591508082111561169f57600080fd5b506116ac858286016115c5565b9150509250929050565b80356001600160a01b03811681146116cd57600080fd5b919050565b6000602082840312156116e457600080fd5b6116ed826116b6565b9392505050565b600080600080600080600080610100898b03121561171157600080fd5b61171a896116b6565b9750602089013567ffffffffffffffff8082111561173757600080fd5b6117438c838d016115c5565b985060408b013591508082111561175957600080fd5b6117658c838d016115c5565b975060608b0135965060808b0135955060a08b013591508082111561178957600080fd5b6117958c838d016115c5565b945060c08b01359150808211156117ab57600080fd5b6117b78c838d016115c5565b935060e08b01359150808211156117cd57600080fd5b506117da8b828c016115c5565b9150509295985092959890939650565b600081518084526020808501945080840160005b838110156118235781516001600160a01b0316875295820195908201906001016117fe565b509495945050505050565b600081518084526020808501945080840160005b8381101561182357815187529582019590820190600101611842565b60006020808301818452808551808352604092508286019150828160051b87010184880160005b8381101561199557888303603f19018552815180516001600160a01b0316845261016088820151818a8701526118bd828701826114eb565b91505087820151858203898701526118d582826114eb565b606084810151908801526080808501519088015260a0808501519088015260c080850151888303828a0152919350915061190f83826114eb565b9250505060e0808301518683038288015261192a83826114eb565b92505050610100808301518683038288015261194683826114eb565b92505050610120808301518683038288015261196283826117ea565b925050506101408083015192508582038187015250611981818361182e565b968901969450505090860190600101611885565b509098975050505050505050565b6060815260006119b660608301866114eb565b6020830194909452506001600160a01b0391909116604090910152919050565b6000602082840312156119e857600080fd5b813567ffffffffffffffff8111156119ff57600080fd5b611a0b848285016115c5565b949350505050565b60008060008060808587031215611a2957600080fd5b843567ffffffffffffffff80821115611a4157600080fd5b611a4d888389016115c5565b95506020870135915080821115611a6357600080fd5b611a6f888389016115c5565b94506040870135915080821115611a8557600080fd5b50611a92878288016115c5565b925050611aa1606086016116b6565b905092959194509250565b600181811c90821680611ac057607f821691505b602082108103611ae057634e487b7160e01b600052602260045260246000fd5b50919050565b60008251611af88184602087016114c7565b9190910192915050565b6001600160a01b0383168152604060208201819052600090611a0b908301846114eb565b634e487b7160e01b600052601160045260246000fd5b808201808211156108d4576108d4611b26565b601f821115611b9957600081815260208120601f850160051c81016020861015611b765750805b601f850160051c820191505b81811015611b9557828155600101611b82565b5050505b505050565b815167ffffffffffffffff811115611bb857611bb86115af565b611bcc81611bc68454611aac565b84611b4f565b602080601f831160018114611c015760008415611be95750858301515b600019600386901b1c1916600185901b178555611b95565b600085815260208120601f198616915b82811015611c3057888601518255948401946001909101908401611c11565b5085821015611c4e5787850151600019600388901b60f8161c191681555b5050505050600190811b01905550565b600060018201611c7057611c70611b26565b5060010190565b818103818111156108d4576108d4611b26565b634e487b7160e01b600052603260045260246000fdfea2646970667358221220ebcef9470bb8acfbe79b6a1fbd2f2ce34699ff8e47b5a79df014f55b168a9d5164736f6c63430008110033",
  "linkReferences": {},
  "deployedLinkReferences": {}
}