{
  "_format": "hh-sol-artifact-1",
  "contractName": "CloudFunding",
  "sourceName": "contracts/CloudFunding.sol",
  "abi": [
    {
      "inputs": [
        {
          "internalType": "uint256",
          "name": "",
          "type": "uint256"
        }
      ],
      "name": "campaigns",
      "outputs": [
        {
          "internalType": "address",
          "name": "owner",
          "type": "address"
        },
        {
          "internalType": "string",
          "name": "title",
          "type": "string"
        },
        {
          "internalType": "string",
          "name": "description",
          "type": "string"
        },
        {
          "internalType": "uint256",
          "name": "target",
          "type": "uint256"
        },
        {
          "internalType": "uint256",
          "name": "deadline",
          "type": "uint256"
        },
        {
          "internalType": "uint256",
          "name": "amountCollected",
          "type": "uint256"
        },
        {
          "internalType": "string",
          "name": "image",
          "type": "string"
        },
        {
          "internalType": "string",
          "name": "campaigntype",
          "type": "string"
        },
        {
          "internalType": "string",
          "name": "documentlink",
          "type": "string"
        }
      ],
      "stateMutability": "view",
      "type": "function"
    },
    {
      "inputs": [
        {
          "internalType": "address",
          "name": "_owner",
          "type": "address"
        },
        {
          "internalType": "string",
          "name": "_title",
          "type": "string"
        },
        {
          "internalType": "string",
          "name": "_description",
          "type": "string"
        },
        {
          "internalType": "uint256",
          "name": "_target",
          "type": "uint256"
        },
        {
          "internalType": "uint256",
          "name": "_deadline",
          "type": "uint256"
        },
        {
          "internalType": "string",
          "name": "_image",
          "type": "string"
        },
        {
          "internalType": "string",
          "name": "_campaigntype",
          "type": "string"
        },
        {
          "internalType": "string",
          "name": "_documentlink",
          "type": "string"
        }
      ],
      "name": "createCampaign",
      "outputs": [
        {
          "internalType": "uint256",
          "name": "",
          "type": "uint256"
        }
      ],
      "stateMutability": "nonpayable",
      "type": "function"
    },
    {
      "inputs": [
        {
          "internalType": "uint256",
          "name": "_id",
          "type": "uint256"
        }
      ],
      "name": "donateToCampaign",
      "outputs": [],
      "stateMutability": "payable",
      "type": "function"
    },
    {
      "inputs": [],
      "name": "getCampaigns",
      "outputs": [
        {
          "components": [
            {
              "internalType": "address",
              "name": "owner",
              "type": "address"
            },
            {
              "internalType": "string",
              "name": "title",
              "type": "string"
            },
            {
              "internalType": "string",
              "name": "description",
              "type": "string"
            },
            {
              "internalType": "uint256",
              "name": "target",
              "type": "uint256"
            },
            {
              "internalType": "uint256",
              "name": "deadline",
              "type": "uint256"
            },
            {
              "internalType": "uint256",
              "name": "amountCollected",
              "type": "uint256"
            },
            {
              "internalType": "string",
              "name": "image",
              "type": "string"
            },
            {
              "internalType": "string",
              "name": "campaigntype",
              "type": "string"
            },
            {
              "internalType": "string",
              "name": "documentlink",
              "type": "string"
            },
            {
              "internalType": "address[]",
              "name": "donators",
              "type": "address[]"
            },
            {
              "internalType": "uint256[]",
              "name": "donations",
              "type": "uint256[]"
            }
          ],
          "internalType": "struct CloudFunding.Campaign[]",
          "name": "",
          "type": "tuple[]"
        }
      ],
      "stateMutability": "view",
      "type": "function"
    },
    {
      "inputs": [
        {
          "internalType": "uint256",
          "name": "_id",
          "type": "uint256"
        }
      ],
      "name": "getDonators",
      "outputs": [
        {
          "internalType": "address[]",
          "name": "",
          "type": "address[]"
        },
        {
          "internalType": "uint256[]",
          "name": "",
          "type": "uint256[]"
        }
      ],
      "stateMutability": "view",
      "type": "function"
    },
    {
      "inputs": [],
      "name": "numberOfCampaigns",
      "outputs": [
        {
          "internalType": "uint256",
          "name": "",
          "type": "uint256"
        }
      ],
      "stateMutability": "view",
      "type": "function"
    }
  ],
  "bytecode": "0x6080604052600060015534801561001557600080fd5b5061131b806100256000396000f3fe6080604052600436106100555760003560e01c806307ca140d1461005a5780630fa91fa914610083578063141961bc146100b157806342a4fda8146100e657806361620866146100fb578063a6b036331461011b575b600080fd5b34801561006657600080fd5b5061007060015481565b6040519081526020015b60405180910390f35b34801561008f57600080fd5b506100a361009e366004610c42565b61013d565b60405161007a929190610c5b565b3480156100bd57600080fd5b506100d16100cc366004610c42565b61020c565b60405161007a99989796959493929190610d25565b6100f96100f4366004610c42565b610505565b005b34801561010757600080fd5b50610070610116366004610e7c565b6105c7565b34801561012757600080fd5b506101306106ee565b60405161007a9190610fe6565b6000818152602081815260409182902060098101805484518185028101850190955280855260609485949293600a0192909184918301828280156101aa57602002820191906000526020600020905b81546001600160a01b0316815260019091019060200180831161018c575b50505050509150808054806020026020016040519081016040528092919081815260200182805480156101fc57602002820191906000526020600020905b8154815260200190600101908083116101e8575b5050505050905091509150915091565b600060208190529081526040902080546001820180546001600160a01b0390921692916102389061112b565b80601f01602080910402602001604051908101604052809291908181526020018280546102649061112b565b80156102b15780601f10610286576101008083540402835291602001916102b1565b820191906000526020600020905b81548152906001019060200180831161029457829003601f168201915b5050505050908060020180546102c69061112b565b80601f01602080910402602001604051908101604052809291908181526020018280546102f29061112b565b801561033f5780601f106103145761010080835404028352916020019161033f565b820191906000526020600020905b81548152906001019060200180831161032257829003601f168201915b5050505050908060030154908060040154908060050154908060060180546103669061112b565b80601f01602080910402602001604051908101604052809291908181526020018280546103929061112b565b80156103df5780601f106103b4576101008083540402835291602001916103df565b820191906000526020600020905b8154815290600101906020018083116103c257829003601f168201915b5050505050908060070180546103f49061112b565b80601f01602080910402602001604051908101604052809291908181526020018280546104209061112b565b801561046d5780601f106104425761010080835404028352916020019161046d565b820191906000526020600020905b81548152906001019060200180831161045057829003601f168201915b5050505050908060080180546104829061112b565b80601f01602080910402602001604051908101604052809291908181526020018280546104ae9061112b565b80156104fb5780601f106104d0576101008083540402835291602001916104fb565b820191906000526020600020905b8154815290600101906020018083116104de57829003601f168201915b5050505050905089565b600081815260208181526040808320600981018054600180820183559186528486200180546001600160a01b03191633179055600a8201805491820181558552928420349301839055805491519293909290916001600160a01b03169084908381818185875af1925050503d806000811461059c576040519150601f19603f3d011682016040523d82523d6000602084013e6105a1565b606091505b5050905080156105c1578282600501546105bb919061117b565b60058301555b50505050565b6001546000908152602081905260408120600481015442116106445760405162461bcd60e51b815260206004820152602c60248201527f54686520646561646c696e652073686f756c642062652061206461746520696e60448201526b103a343290333aba3ab9329760a11b606482015260840160405180910390fd5b80546001600160a01b0319166001600160a01b038b161781556001810161066b8a826111e3565b506002810161067a89826111e3565b506003810187905560048101869055600060058201556006810161069e86826111e3565b50600781016106ad85826111e3565b50600881016106bc84826111e3565b50600180549060006106cd836112a3565b9190505550600180546106e091906112bc565b9a9950505050505050505050565b60606000805b60015481101561073c576000818152602081905260409020546001600160a01b0316331461072a5781610726816112a3565b9250505b80610734816112a3565b9150506106f4565b5060008167ffffffffffffffff81111561075857610758610dd9565b6040519080825280602002602001820160405280156107ef57816020015b6107dc60405180610160016040528060006001600160a01b03168152602001606081526020016060815260200160008152602001600081526020016000815260200160608152602001606081526020016060815260200160608152602001606081525090565b8152602001906001900390816107765790505b5090506000805b600154811015610c39576000818152602081905260409020546001600160a01b03163314610c2757600081815260208181526040918290208251610160810190935280546001600160a01b0316835260018101805491928401916108599061112b565b80601f01602080910402602001604051908101604052809291908181526020018280546108859061112b565b80156108d25780601f106108a7576101008083540402835291602001916108d2565b820191906000526020600020905b8154815290600101906020018083116108b557829003601f168201915b505050505081526020016002820180546108eb9061112b565b80601f01602080910402602001604051908101604052809291908181526020018280546109179061112b565b80156109645780601f1061093957610100808354040283529160200191610964565b820191906000526020600020905b81548152906001019060200180831161094757829003601f168201915b5050505050815260200160038201548152602001600482015481526020016005820154815260200160068201805461099b9061112b565b80601f01602080910402602001604051908101604052809291908181526020018280546109c79061112b565b8015610a145780601f106109e957610100808354040283529160200191610a14565b820191906000526020600020905b8154815290600101906020018083116109f757829003601f168201915b50505050508152602001600782018054610a2d9061112b565b80601f0160208091040260200160405190810160405280929190818152602001828054610a599061112b565b8015610aa65780601f10610a7b57610100808354040283529160200191610aa6565b820191906000526020600020905b815481529060010190602001808311610a8957829003601f168201915b50505050508152602001600882018054610abf9061112b565b80601f0160208091040260200160405190810160405280929190818152602001828054610aeb9061112b565b8015610b385780601f10610b0d57610100808354040283529160200191610b38565b820191906000526020600020905b815481529060010190602001808311610b1b57829003601f168201915b5050505050815260200160098201805480602002602001604051908101604052809291908181526020018280548015610b9a57602002820191906000526020600020905b81546001600160a01b03168152600190910190602001808311610b7c575b50505050508152602001600a8201805480602002602001604051908101604052809291908181526020018280548015610bf257602002820191906000526020600020905b815481526020019060010190808311610bde575b505050505081525050838381518110610c0d57610c0d6112cf565b60200260200101819052508180610c23906112a3565b9250505b80610c31816112a3565b9150506107f6565b50909392505050565b600060208284031215610c5457600080fd5b5035919050565b604080825283519082018190526000906020906060840190828701845b82811015610c9d5781516001600160a01b031684529284019290840190600101610c78565b5050508381038285015284518082528583019183019060005b81811015610cd257835183529284019291840191600101610cb6565b5090979650505050505050565b6000815180845260005b81811015610d0557602081850181015186830182015201610ce9565b506000602082860101526020601f19601f83011685010191505092915050565b6001600160a01b038a16815261012060208201819052600090610d4a8382018c610cdf565b90508281036040840152610d5e818b610cdf565b90508860608401528760808401528660a084015282810360c0840152610d848187610cdf565b905082810360e0840152610d988186610cdf565b9050828103610100840152610dad8185610cdf565b9c9b505050505050505050505050565b80356001600160a01b0381168114610dd457600080fd5b919050565b634e487b7160e01b600052604160045260246000fd5b600082601f830112610e0057600080fd5b813567ffffffffffffffff80821115610e1b57610e1b610dd9565b604051601f8301601f19908116603f01168101908282118183101715610e4357610e43610dd9565b81604052838152866020858801011115610e5c57600080fd5b836020870160208301376000602085830101528094505050505092915050565b600080600080600080600080610100898b031215610e9957600080fd5b610ea289610dbd565b9750602089013567ffffffffffffffff80821115610ebf57600080fd5b610ecb8c838d01610def565b985060408b0135915080821115610ee157600080fd5b610eed8c838d01610def565b975060608b0135965060808b0135955060a08b0135915080821115610f1157600080fd5b610f1d8c838d01610def565b945060c08b0135915080821115610f3357600080fd5b610f3f8c838d01610def565b935060e08b0135915080821115610f5557600080fd5b50610f628b828c01610def565b9150509295985092959890939650565b600081518084526020808501945080840160005b83811015610fab5781516001600160a01b031687529582019590820190600101610f86565b509495945050505050565b600081518084526020808501945080840160005b83811015610fab57815187529582019590820190600101610fca565b60006020808301818452808551808352604092508286019150828160051b87010184880160005b8381101561111d57888303603f19018552815180516001600160a01b0316845261016088820151818a87015261104582870182610cdf565b915050878201518582038987015261105d8282610cdf565b606084810151908801526080808501519088015260a0808501519088015260c080850151888303828a015291935091506110978382610cdf565b9250505060e080830151868303828801526110b28382610cdf565b9250505061010080830151868303828801526110ce8382610cdf565b9250505061012080830151868303828801526110ea8382610f72565b9250505061014080830151925085820381870152506111098183610fb6565b96890196945050509086019060010161100d565b509098975050505050505050565b600181811c9082168061113f57607f821691505b60208210810361115f57634e487b7160e01b600052602260045260246000fd5b50919050565b634e487b7160e01b600052601160045260246000fd5b8082018082111561118e5761118e611165565b92915050565b601f8211156111de57600081815260208120601f850160051c810160208610156111bb5750805b601f850160051c820191505b818110156111da578281556001016111c7565b5050505b505050565b815167ffffffffffffffff8111156111fd576111fd610dd9565b6112118161120b845461112b565b84611194565b602080601f831160018114611246576000841561122e5750858301515b600019600386901b1c1916600185901b1785556111da565b600085815260208120601f198616915b8281101561127557888601518255948401946001909101908401611256565b50858210156112935787850151600019600388901b60f8161c191681555b5050505050600190811b01905550565b6000600182016112b5576112b5611165565b5060010190565b8181038181111561118e5761118e611165565b634e487b7160e01b600052603260045260246000fdfea264697066735822122035cb3ab1101cd16cbca37368ccf40fe5ceadb69b23b0d03f18d215419ad602e664736f6c63430008110033",
  "linkReferences": {},
  "deployedLinkReferences": {}
}