{
  "_format": "hh-sol-artifact-1",
  "contractName": "CloudFunding",
  "sourceName": "contracts/CloudFunding.sol",
  "abi": [
    {
      "inputs": [],
      "stateMutability": "nonpayable",
      "type": "constructor"
    },
    {
      "anonymous": false,
      "inputs": [
        {
          "indexed": false,
          "internalType": "uint256",
          "name": "campaignId",
          "type": "uint256"
        },
        {
          "indexed": false,
          "internalType": "address",
          "name": "donor",
          "type": "address"
        },
        {
          "indexed": false,
          "internalType": "uint256",
          "name": "amount",
          "type": "uint256"
        }
      ],
      "name": "DonationReceived",
      "type": "event"
    },
    {
      "anonymous": false,
      "inputs": [
        {
          "indexed": false,
          "internalType": "address",
          "name": "walletAddress",
          "type": "address"
        },
        {
          "indexed": false,
          "internalType": "string",
          "name": "emailId",
          "type": "string"
        }
      ],
      "name": "UserLoggedIn",
      "type": "event"
    },
    {
      "anonymous": false,
      "inputs": [
        {
          "indexed": false,
          "internalType": "address",
          "name": "walletAddress",
          "type": "address"
        },
        {
          "indexed": false,
          "internalType": "string",
          "name": "emailId",
          "type": "string"
        }
      ],
      "name": "UserRegistered",
      "type": "event"
    },
    {
      "inputs": [
        {
          "internalType": "uint256",
          "name": "",
          "type": "uint256"
        }
      ],
      "name": "campaigns",
      "outputs": [
        {
          "internalType": "address",
          "name": "owner",
          "type": "address"
        },
        {
          "internalType": "string",
          "name": "title",
          "type": "string"
        },
        {
          "internalType": "string",
          "name": "description",
          "type": "string"
        },
        {
          "internalType": "uint256",
          "name": "target",
          "type": "uint256"
        },
        {
          "internalType": "uint256",
          "name": "deadline",
          "type": "uint256"
        },
        {
          "internalType": "uint256",
          "name": "amountCollected",
          "type": "uint256"
        },
        {
          "internalType": "string",
          "name": "image",
          "type": "string"
        },
        {
          "internalType": "string",
          "name": "campaigntype",
          "type": "string"
        },
        {
          "internalType": "string",
          "name": "documentlink",
          "type": "string"
        }
      ],
      "stateMutability": "view",
      "type": "function"
    },
    {
      "inputs": [
        {
          "internalType": "address",
          "name": "_owner",
          "type": "address"
        },
        {
          "internalType": "string",
          "name": "_title",
          "type": "string"
        },
        {
          "internalType": "string",
          "name": "_description",
          "type": "string"
        },
        {
          "internalType": "uint256",
          "name": "_target",
          "type": "uint256"
        },
        {
          "internalType": "uint256",
          "name": "_deadline",
          "type": "uint256"
        },
        {
          "internalType": "string",
          "name": "_image",
          "type": "string"
        },
        {
          "internalType": "string",
          "name": "_campaigntype",
          "type": "string"
        },
        {
          "internalType": "string",
          "name": "_documentlink",
          "type": "string"
        }
      ],
      "name": "createCampaign",
      "outputs": [
        {
          "internalType": "uint256",
          "name": "",
          "type": "uint256"
        }
      ],
      "stateMutability": "nonpayable",
      "type": "function"
    },
    {
      "inputs": [
        {
          "internalType": "uint256",
          "name": "_id",
          "type": "uint256"
        }
      ],
      "name": "donateToCampaign",
      "outputs": [],
      "stateMutability": "payable",
      "type": "function"
    },
    {
      "inputs": [
        {
          "internalType": "string",
          "name": "",
          "type": "string"
        }
      ],
      "name": "emailToAddress",
      "outputs": [
        {
          "internalType": "address",
          "name": "",
          "type": "address"
        }
      ],
      "stateMutability": "view",
      "type": "function"
    },
    {
      "inputs": [
        {
          "internalType": "string",
          "name": "emailId",
          "type": "string"
        }
      ],
      "name": "getAddressByEmail",
      "outputs": [
        {
          "internalType": "address",
          "name": "",
          "type": "address"
        }
      ],
      "stateMutability": "view",
      "type": "function"
    },
    {
      "inputs": [],
      "name": "getCampaigns",
      "outputs": [
        {
          "components": [
            {
              "internalType": "address",
              "name": "owner",
              "type": "address"
            },
            {
              "internalType": "string",
              "name": "title",
              "type": "string"
            },
            {
              "internalType": "string",
              "name": "description",
              "type": "string"
            },
            {
              "internalType": "uint256",
              "name": "target",
              "type": "uint256"
            },
            {
              "internalType": "uint256",
              "name": "deadline",
              "type": "uint256"
            },
            {
              "internalType": "uint256",
              "name": "amountCollected",
              "type": "uint256"
            },
            {
              "internalType": "string",
              "name": "image",
              "type": "string"
            },
            {
              "internalType": "string",
              "name": "campaigntype",
              "type": "string"
            },
            {
              "internalType": "string",
              "name": "documentlink",
              "type": "string"
            },
            {
              "internalType": "address[]",
              "name": "donators",
              "type": "address[]"
            },
            {
              "internalType": "uint256[]",
              "name": "donations",
              "type": "uint256[]"
            }
          ],
          "internalType": "struct CloudFunding.Campaign[]",
          "name": "",
          "type": "tuple[]"
        }
      ],
      "stateMutability": "view",
      "type": "function"
    },
    {
      "inputs": [
        {
          "internalType": "uint256",
          "name": "_id",
          "type": "uint256"
        }
      ],
      "name": "getDonators",
      "outputs": [
        {
          "internalType": "address[]",
          "name": "",
          "type": "address[]"
        },
        {
          "internalType": "uint256[]",
          "name": "",
          "type": "uint256[]"
        }
      ],
      "stateMutability": "view",
      "type": "function"
    },
    {
      "inputs": [
        {
          "internalType": "address",
          "name": "walletAddress",
          "type": "address"
        }
      ],
      "name": "isAddressRegistered",
      "outputs": [
        {
          "internalType": "bool",
          "name": "",
          "type": "bool"
        }
      ],
      "stateMutability": "view",
      "type": "function"
    },
    {
      "inputs": [
        {
          "internalType": "string",
          "name": "emailId",
          "type": "string"
        }
      ],
      "name": "isEmailRegistered",
      "outputs": [
        {
          "internalType": "bool",
          "name": "",
          "type": "bool"
        }
      ],
      "stateMutability": "view",
      "type": "function"
    },
    {
      "inputs": [],
      "name": "numberOfCampaigns",
      "outputs": [
        {
          "internalType": "uint256",
          "name": "",
          "type": "uint256"
        }
      ],
      "stateMutability": "view",
      "type": "function"
    },
    {
      "inputs": [
        {
          "internalType": "string",
          "name": "emailId",
          "type": "string"
        },
        {
          "internalType": "string",
          "name": "password",
          "type": "string"
        },
        {
          "internalType": "string",
          "name": "confirmPassword",
          "type": "string"
        },
        {
          "internalType": "address",
          "name": "walletAddress",
          "type": "address"
        }
      ],
      "name": "registerUser",
      "outputs": [],
      "stateMutability": "nonpayable",
      "type": "function"
    },
    {
      "inputs": [
        {
          "internalType": "string",
          "name": "emailId",
          "type": "string"
        },
        {
          "internalType": "string",
          "name": "password",
          "type": "string"
        }
      ],
      "name": "signIn",
      "outputs": [
        {
          "internalType": "bool",
          "name": "",
          "type": "bool"
        }
      ],
      "stateMutability": "nonpayable",
      "type": "function"
    },
    {
      "inputs": [],
      "name": "userCount",
      "outputs": [
        {
          "internalType": "uint256",
          "name": "",
          "type": "uint256"
        }
      ],
      "stateMutability": "view",
      "type": "function"
    },
    {
      "inputs": [
        {
          "internalType": "address",
          "name": "",
          "type": "address"
        }
      ],
      "name": "users",
      "outputs": [
        {
          "internalType": "string",
          "name": "emailId",
          "type": "string"
        },
        {
          "internalType": "bytes32",
          "name": "hashedPassword",
          "type": "bytes32"
        },
        {
          "internalType": "address",
          "name": "walletAddress",
          "type": "address"
        }
      ],
      "stateMutability": "view",
      "type": "function"
    }
  ],
  "bytecode": "0x6080604052600060065534801561001557600080fd5b506000600455611d588061002a6000396000f3fe6080604052600436106100dd5760003560e01c8063616208661161007f578063c5caea0111610059578063c5caea0114610273578063df3cdad7146102ab578063ea78dcbf146102cb578063fd3c99521461030c57600080fd5b80636162086614610202578063a6b0363314610222578063a87430ba1461024457600080fd5b8063141961bc116100bb578063141961bc1461014f5780632c162dbc1461018457806338b6a3a1146101b457806342a4fda8146101ed57600080fd5b806307973ccf146100e257806307ca140d1461010b5780630fa91fa914610121575b600080fd5b3480156100ee57600080fd5b506100f860045481565b6040519081526020015b60405180910390f35b34801561011757600080fd5b506100f860065481565b34801561012d57600080fd5b5061014161013c3660046114ac565b61032c565b6040516101029291906114c5565b34801561015b57600080fd5b5061016f61016a3660046114ac565b6103fd565b60405161010299989796959493929190611599565b34801561019057600080fd5b506101a461019f3660046116d4565b6106f6565b6040519015158152602001610102565b3480156101c057600080fd5b506101a46101cf366004611754565b6001600160a01b031660009081526001602052604090205460ff1690565b6102006101fb3660046114ac565b6108da565b005b34801561020e57600080fd5b506100f861021d366004611776565b610a20565b34801561022e57600080fd5b50610237610b44565b60405161010291906118e0565b34801561025057600080fd5b5061026461025f366004611754565b61109a565b60405161010293929190611a25565b34801561027f57600080fd5b5061029361028e366004611a58565b61114e565b6040516001600160a01b039091168152602001610102565b3480156102b757600080fd5b506101a46102c6366004611a58565b61117f565b3480156102d757600080fd5b506102936102e6366004611a58565b80516020818301810180516003825292820191909301209152546001600160a01b031681565b34801561031857600080fd5b50610200610327366004611a95565b6111a9565b60008181526005602090815260409182902060098101805484518185028101850190955280855260609485949293600a01929091849183018282801561039b57602002820191906000526020600020905b81546001600160a01b0316815260019091019060200180831161037d575b50505050509150808054806020026020016040519081016040528092919081815260200182805480156103ed57602002820191906000526020600020905b8154815260200190600101908083116103d9575b5050505050905091509150915091565b600560205260009081526040902080546001820180546001600160a01b03909216929161042990611b2e565b80601f016020809104026020016040519081016040528092919081815260200182805461045590611b2e565b80156104a25780601f10610477576101008083540402835291602001916104a2565b820191906000526020600020905b81548152906001019060200180831161048557829003601f168201915b5050505050908060020180546104b790611b2e565b80601f01602080910402602001604051908101604052809291908181526020018280546104e390611b2e565b80156105305780601f1061050557610100808354040283529160200191610530565b820191906000526020600020905b81548152906001019060200180831161051357829003601f168201915b50505050509080600301549080600401549080600501549080600601805461055790611b2e565b80601f016020809104026020016040519081016040528092919081815260200182805461058390611b2e565b80156105d05780601f106105a5576101008083540402835291602001916105d0565b820191906000526020600020905b8154815290600101906020018083116105b357829003601f168201915b5050505050908060070180546105e590611b2e565b80601f016020809104026020016040519081016040528092919081815260200182805461061190611b2e565b801561065e5780601f106106335761010080835404028352916020019161065e565b820191906000526020600020905b81548152906001019060200180831161064157829003601f168201915b50505050509080600801805461067390611b2e565b80601f016020809104026020016040519081016040528092919081815260200182805461069f90611b2e565b80156106ec5780601f106106c1576101008083540402835291602001916106ec565b820191906000526020600020905b8154815290600101906020018083116106cf57829003601f168201915b5050505050905089565b6000806107028461114e565b90506001600160a01b0381166107515760405162461bcd60e51b815260206004820152600f60248201526e2ab9b2b9103737ba103337bab7321760891b60448201526064015b60405180910390fd5b6001600160a01b03811660009081526002602052604080822081516060810190925280548290829061078290611b2e565b80601f01602080910402602001604051908101604052809291908181526020018280546107ae90611b2e565b80156107fb5780601f106107d0576101008083540402835291602001916107fb565b820191906000526020600020905b8154815290600101906020018083116107de57829003601f168201915b505050918352505060018201546020808301919091526002909201546001600160a01b03166040918201525191925061083691869101611b68565b604051602081830303815290604052805190602001208160200151146108945760405162461bcd60e51b815260206004820152601360248201527224b731b7b93932b1ba103830b9b9bbb7b9321760691b6044820152606401610748565b7ffd7a49bf0be38d61ec3404f450519a68eb8bdd1edb8729b6c5f8c139e9dafeaf82866040516108c5929190611b84565b60405180910390a16001925050505b92915050565b6000818152600560209081526040808320600981018054600180820183559186528486200180546001600160a01b03191633179055600a8201805491820181558552928420349301839055805491519293909290916001600160a01b03169084908381818185875af1925050503d8060008114610973576040519150601f19603f3d011682016040523d82523d6000602084013e610978565b606091505b5050905080156109e057828260050160008282546109969190611bbe565b9091555050604080518581523360208201529081018490527f0b5b4c52969ff7329ecf7ee536409fda87812b15a8622bc6e8cdeab3aee14a269060600160405180910390a1610a1a565b60405162461bcd60e51b815260206004820152600f60248201526e151c985b9cd9995c8819985a5b1959608a1b6044820152606401610748565b50505050565b600654600090815260056020526040812060048101544211610a995760405162461bcd60e51b815260206004820152602c60248201527f54686520646561646c696e652073686f756c642062652061206461746520696e60448201526b103a343290333aba3ab9329760a11b6064820152608401610748565b80546001600160a01b0319166001600160a01b038b1617815560018101610ac08a82611c20565b5060028101610acf8982611c20565b5060038101879055600481018690556000600582015560068101610af38682611c20565b5060078101610b028582611c20565b5060088101610b118482611c20565b5060068054906000610b2283611ce0565b91905055506001600654610b369190611cf9565b9a9950505050505050505050565b60606000805b600654811015610b92576000818152600560205260409020546001600160a01b03163314610b805781610b7c81611ce0565b9250505b80610b8a81611ce0565b915050610b4a565b5060008167ffffffffffffffff811115610bae57610bae611631565b604051908082528060200260200182016040528015610c4557816020015b610c3260405180610160016040528060006001600160a01b03168152602001606081526020016060815260200160008152602001600081526020016000815260200160608152602001606081526020016060815260200160608152602001606081525090565b815260200190600190039081610bcc5790505b5090506000805b600654811015611091576000818152600560205260409020546001600160a01b0316331461107f576000818152600560209081526040918290208251610160810190935280546001600160a01b031683526001810180549192840191610cb190611b2e565b80601f0160208091040260200160405190810160405280929190818152602001828054610cdd90611b2e565b8015610d2a5780601f10610cff57610100808354040283529160200191610d2a565b820191906000526020600020905b815481529060010190602001808311610d0d57829003601f168201915b50505050508152602001600282018054610d4390611b2e565b80601f0160208091040260200160405190810160405280929190818152602001828054610d6f90611b2e565b8015610dbc5780601f10610d9157610100808354040283529160200191610dbc565b820191906000526020600020905b815481529060010190602001808311610d9f57829003601f168201915b50505050508152602001600382015481526020016004820154815260200160058201548152602001600682018054610df390611b2e565b80601f0160208091040260200160405190810160405280929190818152602001828054610e1f90611b2e565b8015610e6c5780601f10610e4157610100808354040283529160200191610e6c565b820191906000526020600020905b815481529060010190602001808311610e4f57829003601f168201915b50505050508152602001600782018054610e8590611b2e565b80601f0160208091040260200160405190810160405280929190818152602001828054610eb190611b2e565b8015610efe5780601f10610ed357610100808354040283529160200191610efe565b820191906000526020600020905b815481529060010190602001808311610ee157829003601f168201915b50505050508152602001600882018054610f1790611b2e565b80601f0160208091040260200160405190810160405280929190818152602001828054610f4390611b2e565b8015610f905780601f10610f6557610100808354040283529160200191610f90565b820191906000526020600020905b815481529060010190602001808311610f7357829003601f168201915b5050505050815260200160098201805480602002602001604051908101604052809291908181526020018280548015610ff257602002820191906000526020600020905b81546001600160a01b03168152600190910190602001808311610fd4575b50505050508152602001600a820180548060200260200160405190810160405280929190818152602001828054801561104a57602002820191906000526020600020905b815481526020019060010190808311611036575b50505050508152505083838151811061106557611065611d0c565b6020026020010181905250818061107b90611ce0565b9250505b8061108981611ce0565b915050610c4c565b50909392505050565b6002602052600090815260409020805481906110b590611b2e565b80601f01602080910402602001604051908101604052809291908181526020018280546110e190611b2e565b801561112e5780601f106111035761010080835404028352916020019161112e565b820191906000526020600020905b81548152906001019060200180831161111157829003601f168201915b5050505060018301546002909301549192916001600160a01b0316905083565b60006003826040516111609190611b68565b908152604051908190036020019020546001600160a01b031692915050565b600080826040516111909190611b68565b9081526040519081900360200190205460ff1692915050565b6000846040516111b99190611b68565b9081526040519081900360200190205460ff16156112115760405162461bcd60e51b815260206004820152601560248201527422b6b0b4b61030b63932b0b23c9032bc34b9ba399760591b6044820152606401610748565b6001600160a01b03811660009081526001602052604090205460ff16156112855760405162461bcd60e51b815260206004820152602260248201527f57616c6c6574206164647265737320616c726561647920726567697374657265604482015261321760f11b6064820152608401610748565b816040516020016112969190611b68565b60405160208183030381529060405280519060200120836040516020016112bd9190611b68565b60405160208183030381529060405280519060200120146113205760405162461bcd60e51b815260206004820152601760248201527f50617373776f72647320646f206e6f74206d617463682e0000000000000000006044820152606401610748565b6000836040516020016113339190611b68565b60408051601f1981840301815282825280516020918201206060840183528884528382018190526001600160a01b0386168484018190526000908152600290925291902082519193509081906113899082611c20565b506020820151816001015560408201518160020160006101000a8154816001600160a01b0302191690836001600160a01b0316021790555090505060016000866040516113d69190611b68565b908152604080519182900360209081018320805494151560ff199586161790556001600160a01b0386166000908152600191829052919091208054909316179091558290600390611428908890611b68565b90815260405190819003602001902080546001600160a01b03929092166001600160a01b03199092169190911790556004805490600061146783611ce0565b91905055507f48cac28ad4dc618e15f4c2dd5e97751182f166de97b25618318b2112aa951a2f828660405161149d929190611b84565b60405180910390a15050505050565b6000602082840312156114be57600080fd5b5035919050565b604080825283519082018190526000906020906060840190828701845b828110156115075781516001600160a01b0316845292840192908401906001016114e2565b5050508381038285015284518082528583019183019060005b8181101561153c57835183529284019291840191600101611520565b5090979650505050505050565b60005b8381101561156457818101518382015260200161154c565b50506000910152565b60008151808452611585816020860160208601611549565b601f01601f19169290920160200192915050565b6001600160a01b038a168152610120602082018190526000906115be8382018c61156d565b905082810360408401526115d2818b61156d565b90508860608401528760808401528660a084015282810360c08401526115f8818761156d565b905082810360e084015261160c818661156d565b9050828103610100840152611621818561156d565b9c9b505050505050505050505050565b634e487b7160e01b600052604160045260246000fd5b600082601f83011261165857600080fd5b813567ffffffffffffffff8082111561167357611673611631565b604051601f8301601f19908116603f0116810190828211818310171561169b5761169b611631565b816040528381528660208588010111156116b457600080fd5b836020870160208301376000602085830101528094505050505092915050565b600080604083850312156116e757600080fd5b823567ffffffffffffffff808211156116ff57600080fd5b61170b86838701611647565b9350602085013591508082111561172157600080fd5b5061172e85828601611647565b9150509250929050565b80356001600160a01b038116811461174f57600080fd5b919050565b60006020828403121561176657600080fd5b61176f82611738565b9392505050565b600080600080600080600080610100898b03121561179357600080fd5b61179c89611738565b9750602089013567ffffffffffffffff808211156117b957600080fd5b6117c58c838d01611647565b985060408b01359150808211156117db57600080fd5b6117e78c838d01611647565b975060608b0135965060808b0135955060a08b013591508082111561180b57600080fd5b6118178c838d01611647565b945060c08b013591508082111561182d57600080fd5b6118398c838d01611647565b935060e08b013591508082111561184f57600080fd5b5061185c8b828c01611647565b9150509295985092959890939650565b600081518084526020808501945080840160005b838110156118a55781516001600160a01b031687529582019590820190600101611880565b509495945050505050565b600081518084526020808501945080840160005b838110156118a5578151875295820195908201906001016118c4565b60006020808301818452808551808352604092508286019150828160051b87010184880160005b83811015611a1757888303603f19018552815180516001600160a01b0316845261016088820151818a87015261193f8287018261156d565b9150508782015185820389870152611957828261156d565b606084810151908801526080808501519088015260a0808501519088015260c080850151888303828a01529193509150611991838261156d565b9250505060e080830151868303828801526119ac838261156d565b9250505061010080830151868303828801526119c8838261156d565b9250505061012080830151868303828801526119e4838261186c565b925050506101408083015192508582038187015250611a0381836118b0565b968901969450505090860190600101611907565b509098975050505050505050565b606081526000611a38606083018661156d565b6020830194909452506001600160a01b0391909116604090910152919050565b600060208284031215611a6a57600080fd5b813567ffffffffffffffff811115611a8157600080fd5b611a8d84828501611647565b949350505050565b60008060008060808587031215611aab57600080fd5b843567ffffffffffffffff80821115611ac357600080fd5b611acf88838901611647565b95506020870135915080821115611ae557600080fd5b611af188838901611647565b94506040870135915080821115611b0757600080fd5b50611b1487828801611647565b925050611b2360608601611738565b905092959194509250565b600181811c90821680611b4257607f821691505b602082108103611b6257634e487b7160e01b600052602260045260246000fd5b50919050565b60008251611b7a818460208701611549565b9190910192915050565b6001600160a01b0383168152604060208201819052600090611a8d9083018461156d565b634e487b7160e01b600052601160045260246000fd5b808201808211156108d4576108d4611ba8565b601f821115611c1b57600081815260208120601f850160051c81016020861015611bf85750805b601f850160051c820191505b81811015611c1757828155600101611c04565b5050505b505050565b815167ffffffffffffffff811115611c3a57611c3a611631565b611c4e81611c488454611b2e565b84611bd1565b602080601f831160018114611c835760008415611c6b5750858301515b600019600386901b1c1916600185901b178555611c17565b600085815260208120601f198616915b82811015611cb257888601518255948401946001909101908401611c93565b5085821015611cd05787850151600019600388901b60f8161c191681555b5050505050600190811b01905550565b600060018201611cf257611cf2611ba8565b5060010190565b818103818111156108d4576108d4611ba8565b634e487b7160e01b600052603260045260246000fdfea2646970667358221220ccbbbbddbc1a06041e0654c356f9b94a01f93525d537f9a3d34cc92c28ef822364736f6c63430008110033",
  "linkReferences": {},
  "deployedLinkReferences": {}
}